:020000040000FA
:10080000CEF2FFFF0000007C41414141FFFFFFFFAE
:10081000FFFFFFFFFFFFFFFFFFFFFFFFFFFFFFFFE8
:10082000000102030405060708090A0BFFFFFFFF8A
:10083000020C97021763FFFFFFFFFFFFFFFFFFFFA1
:10084000FFFFFFFFFFFFFFFFFFFFFFFFFFFFFFFFB8
:10085000FFFFFFFFFFFFFFFFFFFFFF021EA6FFFFDF
:10086000FFFFFF021E88FFFFFFFFFFFFFFFFFFFFED
:10087000FFFFFFFFFFFFFFFFFFFFFFFFFFFFFFFF88
:10088000FFFFFF0217D6FFFFFFFFFFFFFFFFFFFF86
:10089000FFFFFFFFFFFFFFFFFFFFFF021E5FFFFFE6
:1008A000FFFFFFFFFFFFFFFFFFFFFFFFFFFFFFFF58
:1008B000FFFFFF02161701FF0000B4000028002808
:1008C00000283075A000A000A000A00000080008CB
:1008D000E001F000100010001000100010001000E7
:1008E00050005000500010001000D0070000000021
:1008F00000000F0001000500307507001000010026
:1009000081FF0000FFC020DE20C620FF0202020897
:10091000025000A0000000E803022A850100001137
:10092000850226850100009909024E85010000B16B
:10093000020226850100009A09022085010000C7F5
:10094000020226850100009B09022C85010000C9D6
:10095000020226850100009C09023285080000CAB7
:10096000020226850100009D090234850100009ED7
:1009700009FF0100FF20022A850100001A850226D6
:1009800085010000020A024C8500000000000222DE
:10099000850300001703A226A226A226A226A226CD
:1009A000A226A226A226A226A226A226A226A22607
:1009B000302948292A29FFFF02020202020202020C
:1009C00002010D0000001001022A850100001785B8
:1009D000022685010000450A0248850100007707CC
:1009E000022685010000460A0244850100009C831E
:1009F000022685010000470A024285010000738338
:100A0000022685010000480A024085010000FF829D
:100A1000022685010000490A023E85010000DB82B2
:100A20000226850100004A0A023C85010000ED8291
:100A30000226850100004B0A023A85010000C982A6
:100A40000226850100004C0A0238850100008183DE
:100A50000226850100004D0A0236850100004E0A7B
:100A600001E803053F101C022A850100001D8502D4
:100A70002685010000F30A1058820200005F080278
:100A8000228503000061080224850100008F830293
:100A90002685010000F30A10688202000060080247
:100AA00022850300006708022485010000ED83FF12
:100AB000FFFF000130750302010600000000000086
:100AC0000000000000000000000000000000000026
:100AD000000000000000FFFF0600800CE80314097E
:100AE00053696D706C65424C4550657269706865FC
:100AF00072616C051250002003020A000201060315
:100B000002F0FF53696D706C6520424C45205065C2
:100B1000726970686572616CE62D0000EC2D0A4305
:100B2000686172616374657269737469632031000E
:100B300002436861726163746572697374696320EA
:100B40003200084368617261637465726973746925
:100B50006320330010436861726163746572697366
:100B60007469632034000243686172616374657262
:100B70006973746963203500022A850100001485B9
:100B8000022685010000AB0B0252850300003509E7
:100B9000022485010000AC0B022685010000BD0B7C
:100BA0000254850100003609022485010000BE0BB5
:100BB000022685010000CF0B02568502000037098E
:100BC000022485010000D00B022685010000E10B04
:100BD0000258850000003809022285030000390907
:100BE000022485010000E20B022685010000F30BC0
:100BF0000246850400003F09022485010000F40B31
:100C0000E5C754F84405F5C779012200000080FBD0
:100C1000120C00B90003020C81E479217808B800B5
:100C2000028004F709D8FCE479297802B800028030
:100C300004F709D8FCE490028078C579078002F0B7
:100C4000A3D8FCD9FA781C9008B67A01BA000280C1
:100C500007E493A3F608DAF9900944AA82AB8390DB
:100C600008B7784A79048015E493A3AC82AD838AEF
:100C7000828B83F0A3AA82AB838C828D83D8E9D93F
:100C8000E775829D7583A47407120CA975820B7594
:100C9000830C7400120CA975D00075813F751A8001
:100CA000751B02759F00020C10C09FF59FE473D066
:100CB0009F22D083D082C09FE493C0E0740193C090
:100CC000E0740293F59F22E066701008A3E066705E
:100CD0000A08A3E066700408A3E06622C3E796084A
:100CE00009E7960809E7960809E79622C3E09608FF
:100CF000A3E09608A3E09608A3E09622C00AC3E00A
:100D000096F50A08A3E096420A08A3E096420A086C
:100D1000A3E096450A7001D3D00A22080808EAC069
:100D2000E0EBC0E086F0E7A4FA180986F0E7A42A11
:100D3000FA180986F0E7A42AFA180986F0E7A42A27
:100D4000FA1986F0E7A4FBE5F02AFA190886F0E71D
:100D5000A42BFBE5F03AFA190886F0E7A42BFBE593
:100D6000F03AFA18180986F0E7A4C5F02BFBE43A2C
:100D7000FA1908E7C5F0C6A426F6E5F03BFBE43A0D
:100D8000FA1886F0E7A4F6E5F00826F6E43B08F644
:100D9000E43A08F6D0E0FBD0E0FA22E4CFC0E0E489
:100DA000CEC0E0E4CDC0E0E4CCC0E075F020C3E606
:100DB00033F608E633F608E633F608E633F6181895
:100DC00018EC33FCED33FDEE33FEEF33FFC3EC974D
:100DD00009ED9709EE9709EF97191919400FFFECE4
:100DE00097FC09ED97FD09EE97FE191906D5F0BE9F
:100DF000ECF709EDF709EEF709EFF7191919D0E04B
:100E0000FCD0E0FDD0E0FED0E0FF2260160808082C
:100E1000C6C313C618C613C618C613C618C613C64B
:100E2000D5E0EA227009080808226016181818C6CA
:100E3000C333C608C633C608C633C608C633C6D5CC
:100E4000E0EA22E627F60809E637F60809E637F66B
:100E50000809E637F622E026F608A3E036F608A3EE
:100E6000E036F608A3E036F622E026F008A3E036E6
:100E7000F008A3E036F008A3E036F022C3E697F6C8
:100E80000809E697F60809E697F60809E697F622B4
:100E9000C3E096F008A3E096F008A3E096F008A35C
:100EA000E096F022E056F608A3E056F608A3E056D6
:100EB000F608A3E056F622E056F008A3E056F00844
:100EC000A3E056F008A3E056F022E0F608A3E0F60F
:100ED00008A3E0F608A3E0F622E6F008A3E6F0088F
:100EE000A3E6F008A3E6F022E0FAA3E0FBA3E0FC0F
:100EF000A3E0FD22EAF0A3EBF0A3ECF0A3EDF022D7
:100F0000CAC0E0E6F0A308DAFAD0E0FA22CAC0E0EC
:100F1000E0A3C582CCC582C583CDC583F0A3C582BD
:100F2000CCC582C583CDC583DAE6D0E0CA22C3E44E
:100F300098F8E499F9120F6F8026C3E49AFAE49BBB
:100F4000FBE920E7E9120F6FE498F8E499F922C36E
:100F5000E498F8E499F9120F6FE498F8E499F9C36A
:100F6000E49AFAE49BFB22EB20E7CFE920E7E0B923
:100F70000010BB0008E88AF084F8AAF022E4FBC85D
:100F8000FA22EB70227B10C833C8C933C93350072B
:100F9000C39AC3DBF280069A50012ADBEAC833F415
:100FA000C8C933F4C9FA2275F008E4C833C8C93394
:100FB000C933C99AC99B5004C92AC93BD5F0ECFB77
:100FC000C833F4C8E4C9FA22600D08C6A2E713C604
:100FD00018C613C6D5E0F322600C08C6C313C618A2
:100FE000C613C6D5E0F422700422600D18C6C333C0
:100FF000C608C633C6D5E0F41822251A10AF08F586
:101000001A4002151B8008F51A4002151BD2AF22A8
:10101000C0D0251A10AF08F51A5002051B8008F53C
:101020001A5002051BD2AFD0D022251AF58210AF7C
:1010300008F51A4002151B8008F51A4002151BD24C
:10104000AF851B8322251AF582E4351BF58322E444
:1010500073251AC582C0E0E51B34FFC583C0E0E5F7
:101060001AC3958224F810AF0885831B85821A80E5
:101070000885831B85821AD2AFCEF0A3E520F0A3AA
:10108000780AE608F0A3DEFAEFF0A3E58124FAF887
:10109000E608F0A3E608F0A3E608F0A30808E608CF
:1010A000F0A3E608F0A315811581D0E0FED0E0F8AA
:1010B000158115811581E8C0E0EEC0E022251AC532
:1010C00082C0E0E51B34FFC583C0E0E51AC395820A
:1010D00024F910AF0885831B85821A800885831B3D
:1010E00085821AD2AFCEF0A3E520F0A3780AE608F5
:1010F000F0A3DEFAEFF0A3E58124FBF8E608F0A305
:10110000E608F0A30808E608F0A3E608F0A31581B6
:101110001581D0E0FED0E0F815811581E8C0E0EE41
:10112000C0E022851B83851A82E0A3FEE0A3F520A0
:10113000780AE0A3F608DFFAE0A3FFE0A3C0E0E04E
:10114000A3C0E0E0A3C0E0E0A3C0E0E0A3C0E010E3
:10115000AF0885821A85831B800885821A85831BC8
:10116000D2AFD083D082020CAF851B83851A82E078
:10117000A3FEE0A3F520780AE0A3F608DFFAE0A3D7
:10118000FFE0A3C0E0E0A3C0E0E0A3C0E0E0A3C0B4
:10119000E010AF0885821A85831B800885821A8536
:1011A000831BD2AFD083D08222C0D0251AC582C083
:1011B000E0E51B34FFC583C0E0E51AC3958224F344
:1011C00010AF0885831B85821A800885831B858262
:1011D0001AD2AFC8F0A3E9F0A3EAF0A3EBF0A37929
:1011E0000AE709F0A3D8FAECF0A3EDF0A3EEF0A320
:1011F000EFF0A3D0E0F0A3D0E0F0A3D0E0F0A3E5BF
:1012000020F0A3E5F0F0A322851B83851A82E0C0BD
:10121000E0A3E0F9A3E0FAA3E0FBA3780AE0F60874
:10122000A3DFFAE0FCA3E0FDA3E0FEA3E0FFA3E060
:10123000C0E0A3E0C0E0A3E0F5D0A3E0F520A3E088
:10124000A3F5F010AF0885831B85821A800885837B
:101250001B85821AD2AFD082D083D0E0F8D0E032A2
:1012600074048006740280027401C0E0F404121059
:101270002AD0E0120F00227404800474028000CC93
:10128000C0E0EDC0E0E51AC39CCCAD1B50011D10C1
:10129000AF068C1A8D1B80068C1A8D1BD2AF120FD5
:1012A0000DD0E0FDD0E0FC22D083D082E9C0E0E4A4
:1012B00093A3C386F0C5F095F0F908E493A386F0F4
:1012C000C5F095F0700BE493A3C3994005E9048041
:1012D00002A3E475F002A42582F582E5F03583F5DA
:1012E00083D0E0F9E493A3C0E0E493C0E022D0838C
:1012F000D082ECC0E0EDC0E0E493A3FCE493A3FD56
:10130000ED4C600D12133AEC24FFFCED34FFFD8030
:10131000EFE493A3FCE493A3FDED4C600D1213796D
:10132000EC24FFFCED34FFFD80EFD0E0FDD0E0FCCD
:10133000E493A3C0E0E493C0E022C0E0C3E493964A
:10134000087401939618400FE493667008087401BE
:1013500093661870007019A3A3C3E49396087401F0
:10136000939618A3A3400DD0E0D0E0D0E002132A5A
:10137000A3A3A3A3A3A3D0E022C0E0C0F088F0E41D
:10138000936670080874019366187000A8F0A3A310
:10139000700BD0F0D0E0D0E0D0E002132AA3A3D0AD
:1013A000F0D0E02274F51210BDEAFEEBFFEE24341B
:1013B000F8EF3400F9880A890BEE2435F582EF3412
:1013C00000F583E0F8EE2437F582EF3400F583E092
:1013D000F50CEC850CF0A4FCAAF0850CF0EDA42A29
:1013E000FDE82CF8E43DF97A257B00120F6FEA85C1
:1013F0000A82850B83F05407F87401B80002800458
:10140000C333D8FCC0E0E0131313541FF8EE28F8E0
:10141000EF3400F9E8245DF582E93400F583D0E08B
:10142000F8E0586008EE2434F582EF801EEE243692
:10143000F582EF3400F583E0F5F0EA84A8F0EE28B9
:10144000F8EF3400F9E82438F582E93400F583E058
:10145000F97F0402116974F51210BDEAFEEBFFEE8C
:101460002434F582EF3400F583E0C0E0EE2435F556
:1014700082EF3400F583D0E0F08E828F83A3A3A3A4
:10148000A3A3A3A3C082C0838E828F83A3A3A3A39D
:10149000A3E0F8A3E0F9D083D082E0C398F50AA3D3
:1014A000E099F50BEE2480F582EF3400F583E064DB
:1014B000017069EE2481F582EF3400F583E0F8A332
:1014C000E0F98E828F83A3A3A3A3A3A3A3E0FCA32D
:1014D000E0FD8E828F83A3A3A3A3A3E0FAA3E0FB86
:1014E000C3EA9CEB9D5027C3EC98ED99402EC3EACC
:1014F00098EB9950277CFC7D04EEFAEFFB12260056
:10150000EE2480F582EF3400F583E4F0800EC3EA28
:1015100098EB9940E0C3EC98ED9950D9EE2434F85B
:10152000EF3400F9E8FCE9FDEE2435F582EF3400F4
:10153000F583E0F8EE2437F582EF3400F583E0F52B
:101540000CE50A850CF0A4F50AAAF0850CF0E50B71
:10155000A42AF50BE8250AF8E4350BF97A257B0077
:10156000120F6FEA8C828D83F05407F87401B80073
:10157000028004C333D8FCC0E0E0131313541FF8F7
:10158000EE28F8EF3400F9E8245DF582E93400F53F
:1015900083D0E0F8E0586008EE2434F582EF801E36
:1015A000EE2436F582EF3400F583E0F5F0EA84A806
:1015B000F0EE28F8EF3400F9E82438F582E9340039
:1015C000F583E0F9121E51021451C082C083851ABE
:1015D00082851B83E0F8A3E0F9C3EA9CEB9D5012DF
:1015E000C3EC98ED994019C3EA98EB995012790130
:1015F0008010C3EA98EB9940F5C3EC98ED9950EE52
:101600007900D083D08222EAC39CFAEB9DFB22FFB3
:101610008521878522C622C0E0C0D0E8C0E0E9C0AD
:10162000E0EAC0E0EBC0E0ECC0E0EDC0E0C00AC022
:101630000BC00CC00DC082C083C0F0759B009061D0
:1016400082E0A2E640030216F5E591A2E64003021D
:1016500016F57591BF9003C1E06405700812273834
:10166000122744800312273E75210012279EE9901D
:1016700003C2F079001227921225767A017B00903E
:1016800003C0E0F9122A68907803E0644260030224
:10169000173E90055EE014F0600302173EC2AF12E1
:1016A00016A200782AD0E0F618D0E0F6E59F54079D
:1016B000F9700590848D8003908491780A120ECA87
:1016C000E9C4C0E07829E6550AF50A08E6550BF5A5
:1016D0000B740B780A120FD8D0E0250AF8906270CC
:1016E000E0A2E740F8E8C333906272F0906270E0E5
:1016F000D2E0F08049E0A2E55024E591A2E5501E39
:101700007591DF9003C1E0640D70139003E3E00472
:10171000F064287002E4F07A00E0F9122810906179
:1017200081E0A2E35009E5E9A2E3500375E9F7A3DC
:10173000E0A2E75009E591A2E7500375917FD0F050
:10174000D083D082D00DD00CD00BD00AD0E0FDD009
:10175000E0FCD0E0FBD0E0FAD0E0F9D0E0F8D0D067
:10176000D0E032C0E0C0D0C082C083906183E0A2EC
:10177000E05009E5BFA2E0500375BFFEE0A2E150D2
:1017800009E5BFA2E1500375BFFDE0A2E25009E503
:10179000BFA2E2500375BFFBE0A2E35009E5BFA280
:1017A000E3500375BFF7E0A2E45009E5BFA2E4509F
:1017B0000375BFEFE0A2E55009E5BFA2E550037550
:1017C000BFDFE0A2E65009E5BFA2E6500375BFBF48
:1017D000D083D0828088C0E0C0D0E8C0E0E9C0E01B
:1017E000EAC0E0EBC0E0ECC0E0EDC0E0C0F0E5A78F
:1017F000A2E6500FE5A1A2E6500953A7BF75A1BF0D
:1018000012183BE5A7A2E5500CE5A1A2E55006534E
:10181000A7DF75A1DFE5A7A2E15009E5A1A2E1508C
:101820000375A1FDE5A7A2E2500CE5A1A2E25006D6
:1018300053A7FB75A1FBD0F002174C74F81210BD32
:101840007521019003C1E0640670151226CC8A82CE
:101850008B83A3A3A3A3A3A3E0FAA3E0FB122726F1
:10186000A2AFE433FED2AF9003C7E0640170187AF0
:10187000207B009003C0E0F9122AF27A207B0090CE
:1018800003C0E0F9122A6E906182E0D2E6F0900582
:101890005DE0602185C62280169003C6E064017079
:1018A00008E5C654F84405F5C653BEFC121610747C
:1018B00001652160E4EEA2E092AF7F01021169FFB1
:1018C0008E238F24858228858327851A82851B8312
:1018D000E0CEA3E0CF852882852783EBC9EAC8ED57
:1018E000CBECCA75F010C3E833C8E933C9EA33CA90
:1018F000EB33CBC3EA9EF526EB9FF525B35004AB43
:1019000025AA26EC33CCED33CDD5F0DAAE23AF24C7
:101910002274EB1210BD74FA120FFA8A0A8B0B8C28
:10192000168D179003C1E024F7C3940550069084E8
:10193000DD021A731226CC8A0C8B0DAE0CAF0DEEA5
:101940004F7003021A70AC0AAD0B851A82851B8397
:10195000AA82AB831227568E828F83A3A3780A12A2
:101960000ECA9084B5780A120EA4851A82851B834C
:10197000780E120ECA9084B5780E120EA4780A79E9
:101980000E120CDC501F780A790E120E7C9084D156
:10199000780A120CFC4047850A12850B13850C143B
:1019A000850D158041850E12850F13851014851144
:1019B000157812790A120E7C9084D17812120CFCE0
:1019C000501C7512007513007514007515017812FE
:1019D000790E120E7C7812790A120E4380089084D8
:1019E000DD7812120ECA74097812120E2490850D39
:1019F000780A120ECA7812790A120D9B8E828F8392
:101A0000A3A3A3A3A3A3E0F8A3E0F97AD07B0312D6
:101A10000F6F880A890BE4F50CF50D7812790A121C
:101A20000E437404121045E0F8A3E0F97AD07B036A
:101A3000120F6FE8FA8A0AE4F50B7812790A120C91
:101A4000DC50077812790A120E7C9003C1E064081A
:101A5000600AE064066005E06405701C9084C97843
:101A600012120CFC50129084C57812120E56800887
:101A70009084757812120ECA8516828517837812A3
:101A8000120ED974061210107F0E02116974F7122B
:101A900010BD12276890055BE064017010906245EC
:101AA000E4F0A3F053F4F343FE0C5390F312271425
:101AB000E5C654804449F5C6E59E547F644970F8F4
:101AC000906185740FF0900559E0F47002A3E06016
:101AD0004E90055AE0600814601B14602E8040751B
:101AE0000A01750B00900559E0780A120FE7E50A24
:101AF000F45280802A750A01750B00900559E07830
:101B00000A120FE7E50AF452908014750A01750B6A
:101B100000900559E0780A120FE7E50AF452A0791F
:101B2000007F0202116974F71210BDE9FEEAFF742A
:101B3000016E700C7A807B009003C0E0F9122A6875
:101B4000902E40E493F46008E493F912256A80092A
:101B500053C680E59E547F70FA12271A90055BE009
:101B600064017003122582900559E0F47002A3E02D
:101B7000604B90055AE0600814601A14602C803D98
:101B8000750A01750B00900559E0780A120FE7E518
:101B90000A42808028750A01750B00900559E0788B
:101BA0000A120FE7E50A42908013750A01750B00CF
:101BB000900559E0780A120FE7E50A42A01227685B
:101BC0001226CC8A0A8B0BA80AA90BE8496015E5F6
:101BD000E170FCE82414F582E93400F583E0F46058
:101BE00003E0F5E174016F700A7A019003C0E0F937
:101BF000122ABC021B2174F11210BD8A0A8B0B8CB5
:101C00000C8D0D740F121045780E120ECA9084B50B
:101C1000780A120EA49084B5780E120EA4780A7970
:101C20000E120CDC5015780A790E120E7C9084D1BD
:101C3000780A120CFC401579018013780E790A128B
:101C40000E7C9084D1780E120CFC40EB79007F085A
:101C500002116974ED1210BD8A0A8B0B8C0C8D0D6C
:101C60007413121045780E120ECA9084B5780A12B9
:101C70000EA49084B5780E120EA4780E790A120C78
:101C8000DC4011780A790E120E7CAA0AAB0BAC0C60
:101C9000AD0D8022751200751300751400751501C5
:101CA0007812790E120E7C7812790A120E43AA125B
:101CB000AB13AC14AD157F0C0211699084B5780A92
:101CC000120ECA8A828B83780A120EB77F04021121
:101CD0006974F51210BD8C828D83780A120ECA8A3F
:101CE000828B83780A120E90EA2404F8EB3400F910
:101CF0008C828D83A3A3A3A3E0FCA3E0FD8882894B
:101D000083C3E09CF0A3E09DF088828983C3E094C4
:101D100020A3E0944E40229084A1780A120ECA8A31
:101D2000828B83780A120E698A828B83A3A3A3A372
:101D3000E02420F0A3E0344EF0808074F51210BD52
:101D4000E9FE900513E0FAA3E0FBEEC333F8E433B9
:101D5000F9744328F582748339F583E02AF50AA3E0
:101D6000E03BF50B780A1212649084CD120EE81253
:101D700018C074021210108A0A8B0B8C0C8D0D7413
:101D800010780A120E0BAA0AAB0B7F0402116974B9
:101D9000F11210BD8A0E8B0F8C108D11740F121062
:101DA00045E0FAA3E0FB7411121045E0F50AA3E048
:101DB000F50B7413121045E0FEA3E0FF780A12122F
:101DC00064EA2401F50AEB3400F50BE4F50CF50D9B
:101DD000780E790A120D1B9084BD780A120ECA780B
:101DE0000E790A120D1BAA0EAB0FAC10AD11121812
:101DF000C074021210108B0BEA450B60047A01804C
:101E0000027A00EC2AFCED3400FDECF8EDF97A7171
:101E10007B02120F6F880A890BE4F50CF50D8E8298
:101E20008F83780A120ED9ECF8EDF97A717B0212E1
:101E30000F6F8A0A8B0B7405780A120FE78E828F58
:101E400083A3A3A3A3E50AF0A3E50BF07F08021187
:101E500069C082C083E9906000F0D083D08222C044
:101E6000E074F21211A9A2AFE433FED2AFE589A269
:101E7000E15003122C54758900C2C5751C00EEA2F6
:101E8000E092AF7F01021208C0E074F21211A9A221
:101E9000AFE433FED2AFE58BA2E05003122C5475B1
:101EA0008B00C2E880D5C0E0C0D0E8C0E0E5A8D291
:101EB000AFC2C7751C00A2E792AFD0E0F8D0D0D077
:101EC000E032120CB2019907120CB2189907120CE9
:101ED000B2479907120CB2809907120CB2A8990761
:101EE000120CB2D69907120CB2ED9907120CB2047B
:101EF0009A07120CB21A9A07120CB2419A07120CE6
:101F0000B2549A07120CB26A9A07120CB27D9A0761
:101F1000120CB2A29A07120CB2E2A506120CB2E1A0
:101F2000A606120CB216A706120CB237A706120CA0
:101F3000B247A706120CB268A706120CB274A80624
:101F4000120CB241A906120CB2B4A906120CB23A94
:101F5000AA06120CB27DAA06120CB2B4AA06120C82
:101F6000B23AAB06120CB20CAC06120CB26AAC065A
:101F7000120CB282AC06120CB2FCAC06120CB2FF10
:101F8000AC06120CB202AD06120CB2A9AD06120CD0
:101F9000B2C1AD06120CB2F1AD06120CB211AE0612
:101FA000120CB2FFAE06120CB2B5AF06120CB2C3E1
:101FB000E506120CB2EBE506120CB219E606120C9D
:101FC000B250E606120CB2B8E606120CB201E706F1
:101FD000120CB24CE706120CB28AE706120CB2C71A
:101FE000E706120CB2F5E706120CB29CE806120CDA
:101FF000B2A6E806120CB2B3E806120CB2E6E80686
:10200000120CB2A8E906120CB2B4E906120CB2CC5A
:10201000E906120CB2D6E906120CB239A207120C6C
:10202000B247A207120CB25FA207120CB277A20746
:10203000120CB2EFAC05120CB28DAD05120CB2054C
:10204000AE05120CB21AAF05120CB254AF05120C49
:10205000B2FDAF05120CB2D2B005120CB236B20509
:10206000120CB28DB205120CB214B305120CB2FBF5
:10207000B305120CB248B405120CB2D6B405120C5A
:10208000B2FAB405120CB2CFB605120CB210B705F5
:10209000120CB232B705120CB2B3B705120CB29DD6
:1020A000B805120CB263B905120CB2FAC806120CCC
:1020B000B2CCC906120CB275CA06120CB2B8CA0666
:1020C000120CB245CB06120CB2D1CB06120CB2B236
:1020D000CC06120CB2E1CC06120CB2DDCD06120C0D
:1020E000B225CE06120CB227CF06120CB26BCF0669
:1020F000120CB291CF06120CB270FF06120CB20095
:102100008007120CB2168007120CB23C8007120C2A
:10211000B2648107120CB26E8107120CB2C782073B
:10212000120CB2C78307120CB2F3DB06120CB228F2
:10213000DD06120CB25BDD06120CB2A5DD06120C38
:10214000B263DF06120CB2442E00120CB2A72E00AE
:10215000120CB2EC2F00120CB2FC2F00120CB21FAA
:102160003000120CB26A3000120CB20F3100120CA7
:10217000B2053200120CB2CF3200120CB24734005A
:10218000120CB2893400120CB2273500120CB27452
:102190003500120CB29A3500120CB2883700120CBE
:1021A000B28D3700120CB26E3900120CB2C2390077
:1021B000120CB2243A00120CB24C3A00120CB2F0DB
:1021C0003A00120CB2B23B00120CB2E33B00120C0C
:1021D000B2E63B00120CB22E3C00120CB2703C0076
:1021E000120CB2D73C00120CB2A13D00120CB2B4DA
:1021F0003D00120CB2CD3D00120CB2183E00120C84
:10220000B2F33E00120CB2823F00120CB2CD3F007E
:10221000120CB200B004120CB20CB004120CB24595
:10222000B004120CB28AB004120CB241B104120C08
:10223000B2C7B104120CB22CB204120CB258B204E0
:10224000120CB291B204120CB2A5B404120CB281F9
:10225000B604120CB26CB804120CB2A3B904120C7E
:10226000B203BC04120CB2EFBC04120CB235BE04B3
:10227000120CB242BF04120CB25FBF04120CB29730
:10228000BF04120CB2B1BF04120CB219C004120C7C
:10229000B2B3C404120CB254C504120CB2A5C504E6
:1022A000120CB2CCC504120CB21AC604120CB2380D
:1022B000C604120CB28CC604120CB265C704120C10
:1022C000B2ECC804120CB274C904120CB219E106C3
:1022D000120CB223E106120CB2EEE106120CB209A6
:1022E000E206120CB22FE206120CB273E206120CD6
:1022F000B2ABE206120CB2D4E206120CB24DE30607
:10230000120CB262E306120CB277E306120CB2AE04
:10231000E306120CB2C2E306120CB2F3E306120C8F
:10232000B22DE406120CB259E406120CB2AFE40668
:10233000120CB203E506120CB24CE506120CB27692
:10234000E506120CB29BE506120CB2A0F706120CC1
:10235000B26AF806120CB24DF906120CB2C3F906B5
:10236000120CB205FA06120CB232FB06120CB2EFD6
:102370008C06120CB2188D06120CB2318D06120C9E
:10238000B2768E06120CB2548F06120CB2738F0600
:10239000120CB2009006120CB2439006120CB290CE
:1023A0009106120CB22F9206120CB2AE9406120CC9
:1023B000B2459506120CB2199606120CB2FB96069F
:1023C000120CB2679806120CB2FA9806120CB2C33D
:1023D000FE05120CB22CFF05120CB280FF05120C88
:1023E000B2A7FF05120CB2FFEE06120CB26CEF069C
:1023F000120CB2B7EF06120CB2ACF006120CB2A877
:10240000F106120CB292F206120CB220B006120CB7
:10241000B262B006120CB23CB106120CB215B20692
:10242000120CB210B306120CB2EFB306120CB25B70
:10243000B406120CB222B506120CB28DB506120CFF
:10244000B2F4B506120CB21FB606120CB290B60664
:10245000120CB223B706120CB28CB706120CB2A142
:10246000B706120CB2E9B706120CB202B806120C8B
:10247000B267B806120CB26AB806120CB2F88A0734
:10248000120CB2208B07120CB25E8B07120CB21C1E
:102490008C07120CB2878C07120CB2A38C07120C9B
:1024A000B2CB8C07120CB2FB8C07120CB20A8D0750
:1024B000120CB2848D07120CB2AA8D07120CB21640
:1024C000CA05120CB2F3CB05120CB2EECD05120CFC
:1024D000B2C1CE05120CB20CCF05120CB257CF050B
:1024E000120CB269CF05120CB2A9CF05120CB2DEE4
:1024F000CF05120CB22AD005120CB259D005120C1D
:10250000B27CD005120CB2C9D005120CB252D10562
:10251000120CB25FD305120CB24AD505120CB28D63
:10252000D505120CB2F2D605120CB233D705120C37
:10253000B2A6D705120CB2F2D705120CB21DD805FF
:10254000120CB2719906120CB29C9906120CB2834D
:10255000A006120CB2A7A206120CB262A406120CBC
:10256000B2BFA506120CB2DBC904120CB272CA04C7
:10257000120CB29FCA04120CB2E5CA04120CB224A7
:10258000CC04120CB2BBCD04120CB235CE04120C2A
:10259000B250CE04120CB2C5CE04120CB2F4CF0469
:1025A000120CB24FD104120CB251D204120CB2AEC2
:1025B000D304120CB2C7D304120CB224D404120CEC
:1025C000B206D504120CB239D504120CB2A9D50446
:1025D000120CB223D604120CB272D604120CB23E04
:1025E000D704120CB243D804120CB222D904120C34
:1025F000B2ADD904120CB21BDA04120CB28FDA0499
:10260000120CB2B8DA04120CB277DB04120CB2F17D
:10261000DC04120CB20EDD04120CB22DDD04120C1F
:10262000B2BEDD04120CB2E3DD04120CB20BDE0408
:10263000120CB286DE04120CB2E0DE04120CB234CC
:10264000E004120CB2F1E004120CB2C4E104120C6A
:10265000B247D805120CB297D805120CB2A3D80510
:10266000120CB280D905120CB2B0D905120CB2E826
:10267000D905120CB267DA05120CB29FDA05120CFA
:10268000B2F1DA05120CB22EDB05120CB253DD05E5
:10269000120CB27FDF05120CB27AE105120CB255B2
:1026A000E305120CB22D8405120CB23E9905120CF2
:1026B000B2889905120CB2679F05120CB2E8A0050A
:1026C000120CB247A705120CB242A805120CB27F39
:1026D000A805120CB2A2A805120CB2E4A805120CAF
:1026E000B2EDA805120CB2F7A805120CB2E3A905C9
:1026F000120CB2D7AA05120CB2F2E104120CB26AA3
:10270000EC04120CB270EC04120CB27CF304120C48
:10271000B2D18307120CB2678407120CB27D840712
:10272000120CB2F78407120CB24D8507120CB28B53
:102730008507120CB2E88507120CB2658607120CE9
:10274000B26E8607120CB27A8607120CB28D86071B
:10275000120CB2C98607120CB2DF8607120CB23E09
:102760008707120CB254F306120CB261F306120C76
:10277000B27BF306120CB2BAF306120CB2F8F306EF
:10278000120CB25DF406120CB272F406120CB27D99
:10279000F406120CB28AF406120CB2A1F406120C62
:1027A000B2AFF406120CB2BAF406120CB2C6F406BA
:1027B000120CB2D5F406120CB2E0F406120CB203FD
:1027C000F506120CB2ACF506120CB2BCF506120CF2
:1027D000B2D6F506120CB2F3F506120CB20FF606DD
:1027E000120CB234F606120CB23EF606120CB252BD
:1027F000F606120CB271F606120CB2D2F606120CE4
:10280000B2D8F606120CB2DEF606120CB2E4F606E8
:10281000120CB2F0F606120CB223F706120CB21B21
:10282000E605120CB29DE605120CB246E705120C45
:10283000B28EE805120CB29CEA05120CB282EB05CE
:10284000120CB2B7EB05120CB2D9EB05120CB28226
:10285000EC05120CB252EE05120CB27BEE05120C16
:10286000B2F3EE05120CB225EF05120CB232EF05F1
:10287000120CB27DEF05120CB2A1EF05120CB2F2F0
:10288000F105120CB2FCF205120CB258F305120C51
:10289000B298BB05120CB2A9BC05120CB28DBD05D5
:1028A000120CB297BD05120CB2B9BD05120CB2C51F
:1028B000BD05120CB269BF05120CB296BF05120C11
:1028C000B2ACC005120CB201C105120CB250C20567
:1028D000120CB225C305120CB281C305120CB2EC66
:1028E000C305120CB221C405120CB264C405120C4B
:1028F000B22EC705120CB246C705120CB2D7C705D7
:10290000120CB2E5C705120CB232C805120CB24067
:10291000C805120CB2ACC805120CB227C905120CBE
:10292000B27EC905120CB2A5F305120CB2C7F305AD
:10293000120CB2D8F505120CB297F805120CB2C100
:10294000F905120CB27FFA05120CB26BFB05120CE2
:10295000B2489707120CB26D9707120CB2E39707B3
:10296000120CB237F804120CB240F804120CB2493F
:10297000F804120CB221F904120CB2D2FA04120CAF
:10298000B202FB04120CB22DFB04120CB25DFB046C
:10299000120CB288FB04120CB2BCFB04120CB2E89D
:1029A000FB04120CB22BFC04120CB256FC04120CE9
:1029B000B29DFC04120CB2F2FC04120CB234FD0401
:1029C000120CB28EFD04120CB2B9FD04120CB20846
:1029D000FE04120CB238FE04120CB263FE04120C98
:1029E000B291FE04120CB2B4FE04120CB2C1A307E1
:1029F000120CB2EDA307120CB21AA407120CB224E7
:102A0000A407120CB234A407120CB28EB806120C32
:102A1000B298B806120CB2D9B806120CB222B90696
:102A2000120CB25CB906120CB2B2B906120CB2D3D7
:102A3000B906120CB282BC06120CB28BBC06120C88
:102A4000B2DFBC06120CB208BD06120CB212BD06F3
:102A5000120CB280BD06120CB210BE06120CB26B84
:102A6000BE06120CB299BE06120CB221BF06120CA1
:102A7000B260BF06120CB295BF06120CB2A7BF0619
:102A8000120CB2C6BF06120CB2CFBF06120CB29621
:102A9000C006120CB265A007120CB2579507120CB3
:102AA000B28D9507120CB2C19507120CB20E9707A2
:102AB000120CB254FF04120CB26AFF04120CB2746E
:102AC000FF04120CB2BEFF04120CB23EA407120C9B
:102AD000B26BEA06120CB27EEA06120CB23FEB06AB
:102AE000120CB27EEB06120CB29BEB06120CB2D4A7
:102AF000EB06120CB221EC06120CB253EC06120CCF
:102B0000B28AEC06120CB293EE06120CB2EE9D07DE
:102B1000120CB2119E07120CB2409E07120CB2D8D2
:102B20009E07120CB21A9F07120CB2F28D07120CFC
:102B3000B2178E07120CB2418E07120CB2F5A40721
:102B4000120CB25E8505120CB23C8705120CB2DB8A
:102B50008805120CB2868905120CB2068A05120C81
:102B6000B28B8A05120CB2B48A05120CB28F8E0594
:102B7000120CB2068F05120CB21D9005120CB25742
:102B80009005120CB2989005120CB2DF9105120C50
:102B9000B2359205120CB27E9205120CB2ED92057E
:102BA000120CB2599305120CB28A9305120CB2A200
:102BB0009305120CB2BB9405120CB2CB9405120C07
:102BC000B2819605120CB2989605120CB2CA9605FF
:102BD000120CB26C9805120CB2009905120CB210CE
:102BE000A307120CB221A307120CB24BA507120CBB
:102BF000B28AA507120CB215A607120CB220A607BE
:102C0000120CB225A607120CB231A607120CB25C48
:102C1000A107120CB26CA107120CB281A107120C11
:102C2000B233A207120CB2639F07120CB2E89F07DF
:102C3000120CB24CA007120CB2B49A07120CB2DDFF
:102C40009A07120CB2439B07120CB2639B07120C3B
:102C5000B2B49B07120CB20F9C07120CB2499C072E
:102C6000120CB24C9C07120CB28CFB06120CB2B1C7
:102C7000FB06120CB2CEFB06120CB2EBFB06120CDA
:102C8000B210FC06120CB231FC06120CB25BFC0650
:102C9000120CB218FD06120CB296FD06120CB2BD53
:102CA000FD06120CB2C7FD06120CB2ECFE06120CA9
:102CB000B2EAFF04120CB2FAFF04120CB2FDFF04D8
:102CC000120CB2F83F00120CB21D9307120CB2ADF9
:102CD0009407120CB20E9507120CB2549507120C01
:102CE000B206D006120CB248D006120CB263D0065F
:102CF000120CB234D106120CB216D206120CB22348
:102D0000D406120CB295D406120CB27FD506120C62
:102D1000B266D606120CB2569C07120CB2A89C07DB
:102D2000120CB21B9D07120CB2889D07120CB2D672
:102D30009007120CB2009107120CB2CF9107120C3F
:102D4000B2AB9207120CB2C4C006120CB290C1060C
:102D5000120CB2D1C106120CB20BC206120CB2692F
:102D6000C206120CB2BDC206120CB21BC306120C74
:102D7000B2B1C306120CB2B9C406120CB243C606F5
:102D8000120CB2E1C606120CB248C706120CB25BB6
:102D9000C706120CB24FC806120CB298C806120C25
:102DA000B2008006120CB2328306120CB2C3840643
:102DB000120CB21A8506120CB2378506120CB2B785
:102DC0008506120CB2338706120CB2028806120C6A
:102DD000B26F8B06120CB2598C06120CB2AAD60630
:102DE000120CB23DD906120CB2EBD906120CB2008D
:102DF000DB06120CB272DB06120CB26E8707120CE5
:102E0000B2B38707120CB2D08707120CB2868807BC
:102E1000120CB2D98807120CB2A98907120CB2BFE2
:102E20008A07120CB2CAA507120CB294A507120C9D
:102E3000B2D8FF05120CB2F7A507FFFFFFFFFFFF97
:102E4000FFFFFFFF74F61210519002D074FEF0A342
:102E500004F09002D3F09002D2F07A018A0A750B46
:102E6000007402780A120FE7123C65EA88828983AF
:102E7000700774FEF0A304800474FFF0A3F088824E
:102E80008983A3A3A3F088828983A3A3F00AEAC35A
:102E9000940240C87A927B211221E67AE07B2112CB
:102EA00024807900023A0774F2121051EAFEEBFF17
:102EB0008E828F831234816046123B97122FE17508
:102EC0000D00780C1212648A828B83A312127B127B
:102ED0003439121010E9702C850A82850B83122F69
:102EE000E1780C1212648A828B83A312127B7C021B
:102EF0007D007A287B85123441121010E970057923
:102F000002022FCD9009FF123481600CC3E498FABD
:102F1000E499FB122FD250057901022FCD7A067B5E
:102F200000122AA48A0C8B0DEA450D700579130254
:102F30002FCD7A007B0080409009FF1239558A0E10
:102F40008B0F7403780E120FE7850A82850B83E0DE
:102F5000250EF8A3E0350F8882F583A3A3A3A3EC85
:102F6000F0A3EDF09009FFE02401F0A3E03400F0BD
:102F7000EA24010AEB3400FB122FD240BB850C82FD
:102F8000850D83E4F0A3F0750A04F50B780A12129C
:102F900064EEFCEFFDE50C2402FAE50D123948124F
:102FA00010109002D81234819002D86017E0FAA372
:102FB000E08003E8FAE9FB8A828B8312348170F3A4
:102FC0008A828B83E50CF0A3E50DF079007F060281
:102FD00011238E828F83E0F8A3E0F9C3EA98EB997E
:102FE00022123BAC8A828B83E0F50C22C082C08324
:102FF000E99009FEF0D083D082020CAF74F7121072
:1030000051E9FE74145E600779101224AA800BEE59
:10301000A2E040047902800279007F01021123744A
:10302000F7121051ECFEEDFFE9A2E55007791012FE
:1030300024AA8034A2E3502679101224AAE960263B
:10304000EE2418F582EF3400F583E0601BEE2417C0
:10305000F582EF3400F583E06401600A800AA2E1A2
:10306000400479038002790080B074F41210517426
:10307000E9120FFAEAFEEBFF890AE4F50CF50D7888
:103080000C121264750C02780C121264750C4C75DB
:103090000D85780C1212647CFF7DFF7A017B001293
:1030A0003B911210108A828B83E582458360541213
:1030B0003ACF851A82851B83123C28740212104570
:1030C0007404F0141210457401F07404121045E4F5
:1030D000F0740512104574FFF0740612104574FF69
:1030E000F0E50AF50B780B121268790074011210E2
:1030F00045AC82AD83EEFAEFFB1221807401121011
:10310000108002790174171210107F0402112374C9
:10311000E81210518A188B198C148D15741812101E
:1031200045E0F516A3E0F517741A121045E0F50C0A
:10313000A3E0F50D741C121045E0F512A3E0F513A1
:103140009002D88006850A82850B83E0F50AA3E009
:10315000F50BE50A450B70030231FC7E007F00E5AC
:103160000A2404F510E50B3400F5118008EE240163
:103170000EEF3400FF850A82850B83123AD1C3EE2D
:1031800098EF9950C08E0E8F0F7403780E120FE7D0
:10319000851082851183E0250EF50EA3E0350FF52D
:1031A0000F850E82F583123ACFC3E89518E9951979
:1031B00040BBC3E51498E5159940B2E50C450D6098
:1031C00020780C1212647816121264850E82850F14
:1031D00083E0FC7D00123BA7123441121010E9601D
:1031E0008CE5124513600F85108285118312377F9D
:1031F000123ACF123C22AA0EAB0F80047A007B0059
:103200007F1002112374EE121051ECFEEDFF9002BC
:10321000D8E0FCA3E0800A8C828D83123AD3E8FCCC
:10322000E9FDEC4D70030232C68C828D83123ACFD9
:10323000880A890B8882F583A3A3A3A3E0F50EA3D4
:10324000E0F50FC3EA950EEB950F40CB8C828D8392
:10325000A3A3E0F510A3E0F511E50E2510F8E50FA6
:103260003511F9C3EA98EB9950AD750C00750D0056
:10327000800CE50C2401F50CE50D3400F50DC3E5DB
:103280000C9510E50D9511508E850C12850D13745B
:10329000037812120FE7E50A2512F8E50B3513F94A
:1032A00088828983A3A3A3A3E06A7003A3E06B7061
:1032B000C1EE4F600B8E828F83E50EF0A3E50FF019
:1032C000E8FAE9FB80047A007B007F0A021123748C
:1032D000EC12105174FE120FFAEAFEEBFF74161294
:1032E0001045E0F510A3E0F5117418121045E0F553
:1032F00012A3E0F513750A00750B00851A82851B71
:1033000083E4F0A3F0EE2404F50EEF3400F50F850E
:103310000E82F583123AC7A385820C85830D74FF54
:103320006A700374FF6B603B851A82851B838582FC
:103330000A85830B780A1212648E828F83E0F50A65
:10334000750B00780A121264850C82850D831212A7
:103350007BEA24010AEB3400FB123B911210108A25
:103360000A8B0B8E828F83E0F5147515007814128A
:103370001264850C82850D8312127B12343912106F
:1033800010E970268E828F83E0F51478141212648F
:10339000850C82850D8312127B7C027D007A287B4E
:1033A00085123441121010E96016850E82850F8354
:1033B000123BA812218C8A0C8B0DA80CA90D8062DF
:1033C0008E828F83E0F5147814121264850C828546
:1033D0000D8312127B7C027D007A267B851234419C
:1033E000121010E96031E50A450B6011851A8285DB
:1033F0001B83E065107004A3E065116006AA10ABA2
:103400001180B0850A82850B83A3A3A3A3E024FFC8
:10341000F8A3E034FF800A850E82850F83E0F8A3CD
:10342000E0F9E51245136003123C22AA0AAB0B74C3
:10343000021210107F0C0211237C027D007A2A7B7D
:1034400085121FA0740422C082C0839002D8123457
:1034500081602788828983A3A3A3A3E0FCA3E0F56E
:10346000838C82A3A3A3A3E06A7003A3E06B88828A
:10347000898370DAA3123BA780047A007B00022FB5
:10348000F5E0F8A3E0F9E8492274F312105174FE54
:10349000120FFAEAFEEBFF8C0A8D0B890C740F12E7
:1034A0001045E0F50D851A82851B83AC82AD831231
:1034B00021CEE9F50E7064E50C600E7910EEFAEF9E
:1034C000FB1224AAE9F50E7052AC0AAD0BEEFAEF2E
:1034D000FB121F10E9F50E7042851A82851B83E0EE
:1034E000FEA3E0FF74FF650D6031EE2402F50AEFE4
:1034F0001239BB121264750A1E750B00780A12127B
:1035000064EEFCEFFD7ADA7B2112220474041210BF
:10351000108E828F83A3A3A3E50DF0A90E7402126F
:1035200010107F0502112374F512105174FE120F52
:10353000FAEAFEEBFF8C0A8D0B890C851A82851B3B
:1035400083AC82AD831221CE7417696010E50C60E4
:10355000167910EEFAEFFB1224AAE9600A7402123F
:1035600010107F03021123AC0AAD0BEEFAEFFB1231
:103570001F0A80E974F6121051EAFEEBFF12217A5D
:10358000EA4B600FEE24FFF8EF34FFF9EA28FAEB7C
:10359000398003EEFAEFFB023A0774F0121051740F
:1035A000E3120FFA8A0A8B0BEC2402FEED123CC0E8
:1035B000F510741E651070531221D48A0C8B0DEA1D
:1035C000450D6042EA2403F50EEB3400F50FE4F5F7
:1035D00010F51178101212648E828F83E0FD7C004A
:1035E000AA0AAB0B850E82850F83123CCF121010F6
:1035F000E50C2402FAE50D3400FB12220A850E8246
:10360000850F8374FFF0790002377A9009FEE0F4A9
:103610006065E510C39419505EE510C333F8E433D8
:10362000F9E854FCF8742828F8748239F9E824FC85
:10363000FAE934FFFB8A0E8B0F8A82F583123BA8CE
:10364000EA4B6033E824FEF582E934FFF583123457
:103650008160248C828D83A385820C85830D8C826E
:103660008D83E0F9700B850C82850D83E064017019
:103670000B741265106005790602377A7404121013
:103680004585821085831178101212648C828D8397
:10369000A3A3A312127B8C828D83A3A3A3A3A31243
:1036A0003955850C82850D83E0FA850E82850F835E
:1036B00012377F12104F7404121010E9F50E6003D8
:1036C0000237787404121045AC82AD83AA0AAB0BA2
:1036D0008E828F83E0C333F8E433F9E854FCF87446
:1036E0002628F582748239F58312377F12104FE94C
:1036F000F50E702C8E828F83E0FD74046D607974FA
:103700000412104585820C85830D780C1212647C9E
:1037100000AA0AAB0B9009FE123CCF121010805881
:10372000850C82850D83E0704F8E828F83E0851A31
:1037300082851B83F07403121045E9F08E828F831B
:10374000E0F8740468600D740668600874086860C6
:10375000037410687404121045123AD374011210E5
:1037600045123C28851A82851B83AC82AD83AA0A48
:10377000AB0B121EC2750E00A90E741D023AE8E0D2
:10378000F8A3E0F5838882227900020CAF74F0126E
:10379000105174EA120FFA8A0E8B0F8C828D8312ED
:1037A0003BA8750C00EC2402FEED3400FF8E828FE6
:1037B00083C3E09AA3E09B4004EA4B7005790102C1
:1037C000393D851A82851B83E4F0E4F50AF50B7810
:1037D0000A121264780A121264780A1212648E8233
:1037E0008F83123955123B911210108A0A8B0BA845
:1037F0000AA90BE849700302392388828983A3AAA6
:1038000082AB83E82404F50AE93400F50B851A82BB
:10381000851B83E0707188828983E06402700A747A
:10382000011210457401F080687401121045740291
:10383000F012395B75F012A4F885F00DA90DE58240
:1038400028F582E58339F583A3A3ECF0A3EDF075A9
:10385000101075110078101212641239517402128E
:103860001045E075F012A4F8A9F0E58228F8E58388
:1038700039123942121010851A82851B83E004F038
:10388000600302390880727401121045E06401700F
:10389000A088828983E06402600302392312395BC5
:1038A000F51075110074027810120FE7E5822510EB
:1038B000F582E5833511F583A3A3ECF0A3EDF07554
:1038C000100275110078101212641239517402122C
:1038D0001045E0F51074027810120FE7E58225100C
:1038E000F8E5833511123942121010851A82851BB2
:1038F00083E004F0C39405500F850A82850B83E0B2
:10390000F47003A3E0F47003750C01850A82850B43
:1039100083E02401FAA3E03400FBE50CA2E04003BD
:103920000237CA851A82851B83E07004790A800DEC
:10393000AC82AD83AA0EAB0F121ECE7900741602B4
:103940003AE8F9E82404FAE93400FB122A0E74027A
:10395000228A828B83E0FCA3E0FD22850A82850B0C
:1039600083E0FCA3E0FD851A82851B83E02274F6C8
:10397000121051123A0C4004EA4B70047901803362
:10398000E4F50AF50B780A1212648C828D83A3A3E6
:10399000A3A3E0F50A780A1212641239B512126470
:1039A000123B8D1210108B0BEA450B7004790A80C4
:1039B0000279008052EC2405F50AED3400F50B780D
:1039C0000A2274F6121051123A0C4004EA4B7004A9
:1039D00079018033E4F50AF50B780A1212648C82BF
:1039E0008D83A3A3A3A3E0F50A780A121264123907
:1039F000B5121264123B8D1210108B0BEA450B703E
:103A000004790A800279007F020211238C828D835F
:103A1000A3A3E0FEA3E0FF8C828D83123BACC3EE38
:103A20009AEF9B2274F6121051EAFEEBFF8C828D06
:103A3000837C007D00123AD970047901800CA3A325
:103A4000A3E0F9EEFAEFFB12215680BB74F01210DE
:103A5000518A0C8B0DECFEEDFF750E008002050EF9
:103A6000EE2416F582EF3400F583E0F8E50EC398F6
:103A70005051E50EC333F8E433F9EE28F50AEF3977
:103A8000F50B7C007D00850A82F583123AD970140B
:103A9000850A82850B83123AD38E828F83123C284B
:103AA00079018021A3A3A3E0F9AA0CAB0D12215642
:103AB000E960AB850A82850B83123AC7EAF0A3EB73
:103AC000F0800279008024123BAC8E828F8322A387
:103AD000A3A3A3E0F8A3E0F922123BAC12216E8A63
:103AE000828B83E5824583221210107F0802112306
:103AF00074F0121051ECFEEDFF8E828F83123AD3D8
:103B0000123B97C3E098A3E0994004E84970047918
:103B1000018077EE2405F50EEF3400F50FEE240456
:103B2000F50CEF3400F50D850C82F583E0F510758A
:103B300011007810121264780E12126412343912C5
:103B40001010E9700479108041E4F5107810121219
:103B500064850C82850D83E0F50C750D00780C12E0
:103B60001264780E121264850A82850B831239550D
:103B70008E828F83123BA8123B911210108B0BEA9E
:103B8000450B7004790A80027900023AEBEEFCEFF3
:103B9000FD122168740622EE2402F50AEF3400F5C6
:103BA0000B850A82F58322A3123BAC22E0FAA3E044
:103BB000FB2274F41210518A0A8B0BECFEEDFF7C91
:103BC000007D008E828F83123AD9700479018010B3
:103BD000EEFCEFFDA3A3A3E0F9AA0AAB0B12215C54
:103BE00002310A02378874F6121051ECFEEDFF1212
:103BF0003D936029EE4F60078E828F83123C2888A8
:103C0000828983A3A3E0F874FE6870047917800F9B
:103C100074FF6870047900800679168002790202C8
:103C20003A07851282851383E8F0A3E9F02274F63F
:103C30001210517C008C0A750B007402780A120F66
:103C4000E7123C6588828983E06A7003A3E06B70A9
:103C500006E8FAE9FB800B0CECC3940240D77A002B
:103C60007B00023A0774D0250AF87402350BF9225A
:103C700074F4121051EA4B6044EA2402FEEB123C49
:103C8000C0F46039E064FE6034EA2403F50AEB34E2
:103C900000F50BE4F50CF50D780C1212647D1E7C1A
:103CA000178A828B83123BA8123CC91210108E8295
:103CB0008F8374FEF0850A82850B8304F002310A3B
:103CC0003400FF8E828F83E022850A82850B83E099
:103CD000F91221FE74022274F01210518A0C8B0D1D
:103CE000890E74FE650C700474FF650D7003023D4F
:103CF00090E970251221D48B0BEA450B6003023D3D
:103D0000907AFF7BFF123D937003023D9088828979
:103D100083E50CF0A3E50D80767401650E7010123A
:103D20003D93606C8882898374FFF0A3F0801774E0
:103D300002650E705B790112249EE97053AA0CABE8
:103D40000D123D93604AE82402FEE9123CC0FA7469
:103D5000FF6A603CE82403F50AE93400F50B74FEC1
:103D60006A6018E4F510F51178101212647D1E7C5B
:103D700014AA0CAB0D123CC9121010EEFAEFFB1294
:103D8000220A850A82850B8374FFF08E828F83F06E
:103D9000023AEB1221D48A0A8B0BA80AA90BE84934
:103DA00022C082C0839002DBEAF0A3EBF0D083D084
:103DB00082020CAF74F7121051E99002DAF07A0423
:103DC0007B001223CC1221447F0102112374F412D0
:103DD00010518A0A8B0BEB548060349002DAE0F9C0
:103DE000122A508A0C8B0DA80CA90DE8FEE9FFE8F9
:103DF0004960138E828F83E064A070031221F8EE75
:103E0000FAEFFB122A3EAA0AE50B6480FB80047AD3
:103E1000007B007F0402112374F612105174F51216
:103E20000FFAEAFEEBFF7404121045AC82AD831268
:103E30001F16E96003023EC5EE2402F50AEF3400C6
:103E4000F50B7406121045E0A2E050219002DDE06F
:103E5000F8A3E0F9E849606D7404121045123EE3DE
:103E60009002DEE0F583888212104F80589002DBCA
:103E7000E0F8A3E0F9E84960197404121045123E15
:103E8000E39002DCE0F583888212104FE9F87004B9
:103E9000803378067405121045E0702974061210FC
:103EA00045E0851A82851B83F07401121045E4F009
:103EB000A3F07403121045E8F0851A82851B831263
:103EC0003EE3121EC28E828F83A3A3A3A3A3A312D9
:103ED0003EEDEA4B6003122D1A740B1210107F0294
:103EE000021123AC82AD83850A82850B83E0FAA39D
:103EF000E0FB2274EE12105189108A0E8B0F8C0C8D
:103F00008D0D7412121045E0F50AA3E0F50B7A1E30
:103F10007B00122A388A128B13AE12AF13EE4F6059
:103F20005C8E828F8374B0F0A3E50CF08E828F8359
:103F3000A3A3E50EF0A3E50FF08E828F83A3A3A3C6
:103F4000A3E50DF0EE2405FAEF3400FBE50A450B7E
:103F50006019750E19750F00780E121264AC0AAD57
:103F60000B122A0E740212101080097C197D007940
:103F700000122A26EEFAEFFBA910122A447F0A0249
:103F8000112374F4121051740C121045E0F50AA3B9
:103F9000E0F50B740E121045E0F50CA3E0F50D787A
:103FA0000C121264E50A75F0E8A4C50AA8F075F0D1
:103FB00003A428F875F0E8E50BA428F50B780A129D
:103FC0001264122D387404121010023E1374F7128A
:103FD0001051EAFEEBFFEE4F601A8E828F83E0F9FC
:103FE00074FF69600F74FE69600A122D3E8E828F25
:103FF0008374FFF0023DC8FF851C87C2AF020CAF7F
:020000040002F8
:10300000C082C083E9900A01F002B28474F7121002
:1030100051E99002DFF07C177D037AFF7BFF1222DB
:10302000A09002E074FFF0A3F0A3E4F0A3F0790510
:103030001222289002DFE0F91221507ABE7B221280
:10304000248002BF9274F41210518A0A8B0BEB5445
:103050008060309002DFE0F9122A508A0C8B0DAEAE
:103060000CAF0DEE4F60138E828F83E064B070035F
:10307000122240EEFAEFFB122A3EAA0AE50B648008
:10308000FB80047A007B0002B25374F21210517478
:10309000FC120FFAEAFEEBFF741212104512C4790B
:1030A000EE4F700302B12D7402121045EEF0A3EF43
:1030B00012B48EECF0A3ED12B48EAA82AB8312216F
:1030C0004AE9F50C706AE50A450B60648E828F83CD
:1030D00012C45FEE4F60567A067B00122AA48A0E55
:1030E0008B0FA80EA90FE8497005750C1380418855
:1030F000828983E412B13AEEF0A3EF12C48AE50AA2
:10310000F0A3E50BF09002E512B1C19002E5700565
:1031100012BF3C801B12BF2A8003EAFCEBFD8C82AD
:103120008D8312B1C170F38C828D8380E3750C02A4
:10313000A90C740412101002C679F0A312C430A3B3
:103140002274F2121051890CE975F017A4FEAFF049
:103150009002E4E4F09002E212B1C1600A122AAADD
:103160009002E2E4F0A3F0EEFAEFFB122AA48A0A3E
:103170008B0BEA450B602FEEFCEFFD7900122A263F
:103180009002E2E50AF0A3E50BF07B00800812B1A3
:10319000ABE4F0A3F00BEBC3950C40F2E50C90020E
:1031A000E4F079008002791302C679EB75F017A478
:1031B000F8A9F09002E2E028FAA3E0398A82F583C8
:1031C0002212BBCEEA4B2274F4121051740C12106E
:1031D0004512C454FEE9FF750A00750B00800CE52A
:1031E0000A2401F50AE50B3400F50BC3E50A9CE55A
:1031F0000B9D5032850A0C850B0D7403780C120F51
:10320000E7EA250CF8EB350DF988828983A3A3A39F
:10321000A3A3A312C011EE650C7003EF650D70BF80
:10322000E8FAE9FB80047A007B00802774F412102E
:10323000517900EAA2E0501B750A4E750B84780A9A
:103240001212647C047D007A037B0A12222274022B
:103250001210107F04021123C082C0839002E51275
:10326000B28B601C88828983A3A3E06A7003A3E009
:103270006B8882898370E8A3A3A3A312BBCA8004CE
:103280007A007B00D083D082020CAF12C75FE8497E
:103290002274EE12105174FC120FFAEAFEEBFF8555
:1032A0001A82851B83E4F0A3F0EE240212BF1CEE09
:1032B000240512C437EE2404F510EF12B843E024BD
:1032C000FE603924FC604624FE605224FE605E24C9
:1032D000FE700302B3A424FE700302B40824FE703F
:1032E0000302B41724FE700302B42624FC70030208
:1032F000B43524FE700302B44402B4819002FE741B
:1033000017F0A3E412B496121EC802B481851A8283
:10331000851B83AC82AD8312224602B451851A828A
:10332000851B83AC82AD8312224C02B451850E0AF8
:10333000850F0B7402121045AC82AD83850A82851D
:103340000B8312BBCA12216E8A0E8B0FAC0EAD0F0F
:10335000EC4D603BE4F50EF50F780E121264750E1D
:10336000FE750F02780E121264750EFF750F02784B
:103370000E121264740812104512127B12C8DB126E
:103380001010E9F50E700B12BBC0121EE0800F7515
:103390000E01850A82850B8312B48412BF3C850E10
:1033A0000A02B4547402121045AC82AD83850E82B9
:1033B000850F8312B995603C850E82850F83A3A388
:1033C00012127B7512FE75130278121212647512B6
:1033D000FF7513027812121264740812104512124B
:1033E0007B12C8DB121010E9F50B700B12BBC01278
:1033F0001EE6800F750B01850E82850F8312B48443
:1034000012BF3C850B0A804C851A82851B83AC82D7
:10341000AD83122252803A851A82851B83AC82AD1D
:1034200083122258802B851A82851B83AC82AD8340
:1034300012225E801C851A82851B83AC82AD8312AA
:103440002264800D851A82851B83AC82AD83122293
:103450006AE9F50AE50A60298E828F83A3E0641485
:10346000601F851082851183E09002FE12B48E12D7
:10347000C75B9002FF12BF3CE50AA312B496121E6E
:10348000C202BE2B12C75F851A82851B8322F0857C
:103490001A82851B8322F07CFE7D02850C82850DBD
:1034A0008312BBCE2274EE12105174FC120FFA8AF2
:1034B0000C8B0D8C108D11EA2405F50AEB3400F508
:1034C0000B7C157D0079007AFE7B02122A26E50A24
:1034D0002402F50EE50B12C43A851A82851B8385FA
:1034E00082128583137812121264850A82850B83F7
:1034F000A3A3A3A312B98C121264E50A2405F51242
:10350000E50B3400F5137812121264850E82850FD4
:103510008312BCE112216874061210108A128B13F8
:10352000AE12AF13E50C2402F50CE50D12BF1FEE31
:103530004F700302B6638017740212104512BBCAA3
:1035400088828983EAF0A3EBF09002FEE004F09019
:1035500002FEE0C39405400302B663E4F512F513DE
:1035600078121212647512E775130278121212643F
:103570007512E8751302781212126474061210455F
:1035800012127B7910EEFCEFFD12C8DD121010E96B
:10359000705E850A82850B83A3A3A3A3A3A3A3E0E4
:1035A000F89002E7E068704812B98C1212647CE867
:1035B0007D02E50A2408FAE50B3400FB122A207488
:1035C00002121010E960298E828F83A3A3A3A31295
:1035D000BBCA9002FEE0F51274027812120FE77473
:1035E000FF2512F58274023513F583EAF0A3EBF0A0
:1035F00074021210458582128583137812121264A8
:10360000740212104512127B850E82850F8312BB45
:10361000F01210108A128B13AE12AF139002FEE05C
:10362000F51275130074027812120FE774FE25125A
:10363000F874023513F988828983A312B1C170032B
:1036400002B52FE82403080808E93400F9EE4F60BA
:103650000302B5388882898374FFF0A3F09002FEDC
:10366000E004F09002FEE0600A12BBC0121ED479A2
:1036700000800B850A82850B8312BF33790A02BE54
:103680002B74EA12105174FE120FFA8C148D15EA85
:103690002405F50EEB12C8C512C463750A00750B3C
:1036A00000EA2402F512EB3400F513851A82851B1B
:1036B0008385820C85830D780C121264850E8285B9
:1036C0000F83A3A3A3A312B859121264E50E240515
:1036D000F50CE50F12BF1F780C121264850E82855F
:1036E0000F8312B85D12216874061210108A0C8BB9
:1036F0000DEA450D700302B7FEEA2404F510EB1243
:10370000B84312C4638A828B83A3A3A3E0F9851212
:103710008285138312BBD4600302B7FEE4F516F56D
:103720001778161212647516E775170278161212BA
:10373000647516E875170278161212647406121072
:103740004512127B7913AC0CAD0D85128285138363
:1037500012C8E3121010E9F50B600302B7FE9002E5
:10376000E7E0F8E50A7009E024029002FFF0801417
:103770009002FFE0FCE82402FAE43400FBEA6C70FB
:1037800001EB707E850A82AA8212B983941412B961
:103790007B506B851082851183E0C0E074002A1293
:1037A000B83AD0E0F0050A851082851183A3E0C005
:1037B000E0850A0C7400250C12B83AD0E0F0050A36
:1037C0009002E712B8591212647CE87D02850A0C57
:1037D0007400250C12B84D1210109002E7E0250A73
:1037E000F50A74FF6E700374FF6F6012EE24010E11
:1037F000EF3400FFE50AC39414500302B6ABE50AA8
:10380000601312BBDE85128285138312BBCA121E9F
:10381000DA79008014E50B7003750B0A8514828534
:103820001583EEF0A3EFF0A90B74021210107F0EB7
:10383000021123850A0E7400250EF58274033400EC
:10384000F583223400F511851082F58322FA740382
:103850003400FB122A0E74022212C49922A3A3126E
:10386000B8632212BF2AFDEEFAEFFB2274EE1210AB
:103870005174FE120FFA8C108D11EA2405F50EEB2F
:1038800012C43A750D009002FEE4F0F50CEA240231
:10389000F50AEB3400F50B80449002FEE0FA90024A
:1038A000E7E0F812B983941712B97B400D9002FE3D
:1038B000E0F87416C3989002E7F012B98C12126403
:1038C0007CE87D0274FF2AFA740212B850121010BC
:1038D0009002E7E0F89002FEE028F0050CE50E24E7
:1038E00016F582E50F12B83EE0F8E50CC398507467
:1038F0009002FEE0C39416506BE50CC333F8E4333A
:10390000F9E50E28FEE50F39FF851A82851B83AC89
:1039100082AD838E828F8312B9957008750D011266
:10392000BF2F8050E4F512F513781212126475124D
:10393000E775130278121212647512E87513027893
:1039400012121264740612104512127B7916850A3F
:1039500082850B8312C8E3121010E9F50D70030283
:10396000B89980BB7CFE7D02850A82850B8312BBE1
:10397000CA121EECA90D740202BE2DE99400C365A3
:10398000D03322EA28F8E43400F9E822E0F5127591
:10399000130078122212BE228A128B13AC12AD13BE
:1039A000EC4D2274EA12105174FC120FFA8A0E8B3D
:1039B0000F8C148D15EA2405F50CEB12BF1F750A48
:1039C00000750B00E50C2402F512E50D3400F5132B
:1039D00074021210458582108583117810121264CA
:1039E000850C82850D83A3A3A3A312C43F12126486
:1039F000E50C2405F510E50D3400F51178101212D0
:103A00006485128285138312BF2512BBC4122168FC
:103A100074061210108A108B11AE10AF11E50E242F
:103A200002F510E50F3400F511803888828983741F
:103A3000FFF0050A12B83374FFF0050A9002E7E0C0
:103A4000F50E750F00780E1212647CE87D02850A6F
:103A50000E7400250E12B84D1210109002E7E025EA
:103A60000AF50AEE4F60278E828F83A3A3A3E0F9A5
:103A700085108285118312BBD4EE240412C437E969
:103A80006027850E82850F8312BBB612BF3CE50A04
:103A9000700302BB9C12BBDE85108285118312BBB2
:103AA000CA121EF2790002BBB1E4F516F5177816BA
:103AB0001212647516E775170278161212647516DD
:103AC000E875170278161212647408121045121263
:103AD0007B7911EEFCEFFD85108285118312C8E31E
:103AE000121010E9F50B709A850A82AA82EA9002F8
:103AF000E77009E024049002FFF08025E0F89002CE
:103B0000FFE0F516E82404FCE43400FDEC651670D3
:103B100001ED708112B983941212B97B400302BA8D
:103B200095850E82850F83E0C0E074002A12B83AB2
:103B3000D0E0F0050A850E82850F83A3E0C0E01275
:103B4000B833D0E012BBF985820E85830F780E1250
:103B50001264740412104512127B8512828513833D
:103B600012BBF01210108A0E8B0FAE0EAF0F850A2B
:103B70000E7400250EF874033400F9EE4F70030242
:103B8000BA2B851A82851B83E08882898312BBF950
:103B9000A3E0C0E012B833D0E002BA39E50B7003FD
:103BA000750B0A850C82850D8312BBB612BF3CA92A
:103BB0000B740402B82B12C75F851482851583220B
:103BC0007CFE7D02850C82850D8312BBCE22E0FA3D
:103BD000A3E0FB2212BBCE122156E9F50B22900284
:103BE000FFE0F5F0E50A849002FEF07CFE7D022203
:103BF00012B863122174740422F0050A851A8285B2
:103C00001B832274EC12105174FE120FFA8A0A8B75
:103C10000B8C108D11EA2405FEEB3400FF12BE0C54
:103C2000EE241812C437EA450D700302BCAF12BD72
:103C3000F5502912BCD48A128B13EA4513606B79B4
:103C400012AC0CAD0D850A82850B8312BBCA85129E
:103C50008285138312104FE9F50C7058E4F50CF5CA
:103C60000D780C1212648E828F83A3A3E0F50C787A
:103C70000C121264EE240312BF1C780C1212648E14
:103C8000828F8312BCE112228E7406121010E9F5A5
:103C90000C7021850E82850F83E0701F850A828556
:103CA0000B8312BBCA121EF88011750C0E800975A9
:103CB0000C018004E50C600312BF2F850E82850F76
:103CC00083E0600479008002A90C74021210107F56
:103CD0000C021123851A82851B8312BBCE12227C13
:103CE0002212BF2AFD850A82850B8312BBCE227465
:103CF000EE12105174FE120FFA8A0A8B0B8C0E8D85
:103D00000FEA2405FEEB3400FF75100012BE0CEA2A
:103D1000450D700302BDD312BDF5502C12BCD48AE0
:103D2000108B11EA4511604A7912AC0CAD0D850A71
:103D300082850B8312BBCA85108285118312104FB6
:103D4000E9F510600302BDD6850A82850B8312C097
:103D500011AA0CFB12BDE770147AFF7BFF12BDE7BE
:103D6000606C88828983E50CF0A3E50DF0750C008A
:103D7000800775100E805F050C9002E4E0FAE50CF8
:103D8000C39A504AE50C75F017A4FAABF088828903
:103D900083A3A3E02AFAA3E03BFB8A828B8312BFB2
:103DA00025EC4D70D2750C17750D00780C1212644D
:103DB000EEFCEFFD122A0E7402121010EEFCEFFD65
:103DC000850A82850B8312BBCA121EFE80147510F1
:103DD00009800375100112C757850E82850F831263
:103DE000BF3CA91002B9761222708A128B13A81256
:103DF000A913E84922E50A2402F50AE50B3400F587
:103E00000B8A828B83A3A3A3E0A2E522851A828575
:103E10001B83AC82AD838E828F8312BE228A0C8B71
:103E20000D22E0FAA3E0FB12216E2274041210109E
:103E30007F0A02112374EC1210518C128D13EA24A4
:103E400005F50EEB12C43A751100EA2402F50CEBED
:103E500012BF1F850C82F58312BBCA12C969700399
:103E600002BF117510008071850E82850F83E0649A
:103E700001704F8E828F83A3A312127B8E828F8359
:103E8000A3A3A3A3E0F5147515007814121264EE31
:103E90002405F514EF3400F515781412126412BBE2
:103EA000C412228E7406121010E9F5116014850EEA
:103EB00082850F83E4F012C757851282851383121F
:103EC000BF3C7C177D007900EEFAEFFB122A268EAC
:103ED000828F83E4F0A3F005109002E4E0F8E5108F
:103EE000C398501EE51075F017A4F8A9F0850A8252
:103EF000850B83A3A312C8CF12BF25EC4D6003022C
:103F0000BE68850A82850B8374FFF0A3F0E511700B
:103F10000612BBC4121F04A91102BCCFF50CEF346A
:103F200000F50D22A312BF2AFD22E0FCA3E0228EA1
:103F3000828F8312C75F851082851183E8F0A3E921
:103F4000F022C082C0839002E0E06A7003A3E06BBD
:103F500070067AE07B0280047A007B0002B28474EF
:103F6000F71210517F00EF75F003A4F8A9F0EC28C8
:103F7000F8ED39F988828983E06A7003A3E06B70F9
:103F800006E8FAE9FB800B0FEFC3940240D87A00F1
:103F90007B007F0102112374F612105112C5487084
:103FA000067A007B008007A3A3A3A312BBCA02C6A4
:103FB0000974F2121051E9FE740E12104512C0116C
:103FC000741012104512C4798C828D83E0640270E3
:103FD0003BA312C75B88828983E0F50EA3E0F9A8B2
:103FE0000E74026870037429697021750E02750FD2
:103FF00000780E121264780A121264780C1212649D
:10400000EEF91222B274061210108002790102C673
:1040100079E0F50CA3E0F50D2274E812105174FB61
:10402000120FFAE9851A82851B83F08A188B198C86
:10403000108D11741F12104512C47974211210458D
:1040400012C011742312104512C4637512008C82C1
:104050008D83A3A3A3E0A2E4502A741D121045127D
:10406000BCDA8A828B83E5824583700302C125799D
:104070000AAC10AD11AA18AB1912104FE9F5126075
:104080000302C128851082851183E0640260030267
:10409000C3DEA312C75B850A82850B83A3858214C6
:1040A000858315E5102406F50EE51112C43A8882C1
:1040B0008983E0FAA3E0F9EA2400F516E439F5175C
:1040C00078161212EE010000280128EDC007000248
:1040D00028C4C1032834C10029EEC2012916C30235
:1040E00029BDC20329EEC204297FC3DEC3EE4F708F
:1040F0003E850E82850F8312C454FAE9FB8A828BB7
:1041000083E0850C82850D8312C4901212648A822A
:104110008B83A312BF2AFDAA0AAB0B122A0E7402CC
:10412000121010800375120EA912740502C8BD7515
:10413000120B80F4EE4F70F7850C82850D837401AD
:10414000F012C469850A82850B83F07C007D0085AE
:104150001082851183A3A3A3A3E02401FAA3E03472
:1041600000FB12216EEA4B60418A828B83E02402BD
:10417000F8850C82850D83E028F0EA2404F8EB34FE
:1041800000F988828983E085148285158312C4A290
:1041900012C4901212648A828B8312BF24E50A240F
:1041A00003FAE50B3400FB02C11B850C82850D83ED
:1041B000E02404F07C047D007900AA14AB15122AD7
:1041C0002602C128EE4F600302C12F12C469FEA36C
:1041D000E0FF850C82850D837404F0EE850A8285EC
:1041E0000B83F0EF851482851583F074031210455C
:1041F000AC82AD83EEFAEFFB12C536700302C29AB1
:104200008A828B83A3A312C45F7401121045858236
:104210001085831178101212647405121045121261
:104220007B7CFF7DFF12217474041210108B11EA45
:1042300045117033850E82850F8312C43F121264BC
:10424000850E82850F83A312127B7C027D007A2863
:104250007B85121FA07404121010E9700A740112F9
:10426000104574FFF0A3F08E828F83E064027034F7
:10427000750E02750F00780E1212648E828F8312F3
:10428000BF24E50A2404FAE50B12B8501210108579
:104290000C82850D83E0240280097401121045EE22
:1042A000F0A3EFF0740112104512C450F074011223
:1042B0001045A312C448A3A3A3F002C128EE4F6087
:1042C0000302C12F850E82850F8312BF25AA18AB6A
:1042D000191222A6850C82850D837402F0EA850AE4
:1042E00082850B83F0851482851583EB80CBEE4F9E
:1042F000600302C12F12C469F8A3E0F9850C82851E
:104300000D837402F0E8850A82850B83F0E9851439
:104310008285158380A3850E82850F8312BBCA1206
:104320002A08EAFC8C82A882C39EE49F404BE86E78
:104330007001EF70047C00801F851A82851B83E06A
:10434000FAEE2AFAEF3400FBC3EA98EB940050032C
:10435000E08004EECCC39CFCEC850C82850D83F0E0
:104360008C0C750D00780C121264850E82850F83FB
:10437000E02EFCA3E03F02C11675120702C128EE31
:104380004F600302C12F850E82850F8312C75B85A4
:104390000C82850D837407F08882898312C44812C9
:1043A000C430E0851482851583F0E82402FAE934EC
:1043B00000FB8A828B8312C44812C48112C450A3AA
:1043C00012C48A12C459F0E82405F8E93400F988C7
:1043D00082898312C459A312C4A2A302C2B6741D57
:1043E00012104512C541700302C12512C75B880E29
:1043F000890FE8450F700302C1258E128F137812C2
:10440000121264780C121264780A12126474061282
:104410001045E0F9AC10AD11AA18AB19850E8285D4
:104420000F8312104F7406121010E9F51202C12802
:10443000F088828983A322F50EEF3400F50F22E085
:10444000F510751100781022E0850A82850B832211
:1044500012C4A92212C75FE82212C4A9A3A322A3EF
:10446000A3A3A3E0FEA3E0FF22850E82850F83E0D5
:10447000F8A3E0F5838882E022E0F50AA3E0F50BDB
:1044800022A3A3F08A828B83A32212B13CA3A3228E
:10449000F08A828B8312C49922E0F50C750D0078A6
:1044A0000C2212C43012C4A922E0850A82850B8333
:1044B000A3A32274EE12105174FE120FFA8A0C8B11
:1044C0000DECFAEDFB7414121045E0F512A3E0F5C3
:1044D000137416121045E0FE7418121045E0F51022
:1044E000A3E0F511851A82851B83AC82AD8312C5CA
:1044F00036603E851A82851B8312C541602FA3A3B7
:1045000012C479E50A450B602478101212647812FF
:10451000121264EEF9AC0EAD0FAA0CAB0D850A8237
:10452000850B8312104F74041210108006790E80D0
:1045300002790102B97612216E8A0E8B0FEA450FBD
:104540002212BBCE12C5482212223A8A828B83E500
:104550008245832274F612105174FE120FFA740C05
:1045600012104512C454851A82851B83F0740112FF
:104570001045E9F0E4F50AF50B780A121264750AA1
:1045800002780A121264740412104585820A858327
:104590000B780A12126412228E7406121010740222
:1045A000121010806474F7121051EAFEEBFF890AB2
:1045B0007C177D031222A6EA5402600BA90AEEFAC8
:1045C000EFFB1221628002790102BF9274F6121091
:1045D0005174FF6A700374FF6B701C7B00EB75F005
:1045E00003A4F8A9F0EC28F8ED39F912C60E0BEB8C
:1045F000C39402501480E61222768A0A8B0BA80A12
:10460000A90BE849600312C60E7F020211238882BB
:10461000898374FF12B13AE4F02274F61210511239
:1046200022768A828B83E58245836006A3A3E0FA23
:1046300080027A007B0080D174F21210518A0A8BBA
:104640000BECFEEDFF740E121045E0F50C12C67E69
:10465000701CEEFCEFFD7AFF7BFF12C67E700479C2
:1046600011801688828983E50AF0A3E50BF0888221
:104670008983A3A3E50CF079007F0602112312229F
:10468000768A0E8B0FA80EA90FE8492274EE12103D
:1046900051EAFEEBFF8C0A8D0B890E741212104545
:1046A00012C75B741412104512BF25741612104500
:1046B00012BBCA750F00EC4D600302C74F74026550
:1046C0000E600302C74A8882898312BF2AF9EC244C
:1046D00000F510E439F511EAF4F8EBF4F9EC58F8C8
:1046E000E51159F9E849705DE50A2406F8E50B344F
:1046F00000F9880C890D8882F58312B85F1222A612
:104700008A128B13E51065127004E511651360427F
:104710007810121264850C82850D8312B85F122204
:10472000AC7402121010E9F50F70277810121264A1
:10473000850A82850B83A3A312B85D1222C474027A
:10474000121010800D750F808008750F0D80037595
:104750000F0BA90F02BE308E828F8312C75F22E03B
:10476000F8A3E0F92274E812105174E7120FFA85E9
:104770001A82851B83EAF0A3EBF08C188D1989103F
:104780007431121045E0F514A3E0F51574331210DE
:1047900045E0F516A3E0F5177435121045E0F51164
:1047A000750A00750B00E50B75F003A4F8A9F085F8
:1047B0001A82851B8312C8CFE0F47003A3E0F47063
:1047C0000302C8ADEE2402F50EEF12C8C5E0700377
:1047D00002C8AD85180C85190D780C121264AC1640
:1047E000AD17AA14AB1512222E74021210108A0CE7
:1047F0008B0DEA450D700302C8ADE4F512F5137890
:104800001212126474061210458582128583137881
:10481000121212647409121045858212858313786E
:1048200012121264851482851583A3A3A3A3121206
:104830007B7914AC0CAD0D8E828F8312C8E31210FD
:1048400010E97069850C82850D83A3A3A3A312C709
:104850005B740212104512BF3C850E82850F83E007
:10486000A2E05018A9107402121045AC82AD838EDC
:10487000828F8312BBCA122186E9420A850E828585
:104880000F83E0A2E15026E511F50C780C121268B6
:10489000A9107403121045AC82AD838E828F8312EF
:1048A000BBCA1221807401121010E9420A050BE5FF
:1048B0000BC39402500302C7A6A90A741912101060
:1048C0007F100211233400F50F850E82F58322E05C
:1048D00028FEA3E039FF8E828F83227916850C8211
:1048E000850D8312BBCE12228874082274F2121036
:1048F00051EAFEEBFF890D7401650D600E740265CF
:104900000D7063790112249EE9705BEEFAEFFB12E1
:10491000C9696047750C00800B7C177D0079001217
:104920002A26050C9002E4E0F8E50CC3985021E536
:104930000C75F017A4F8A9F0850A82850B83A3A350
:10494000E028FAA3E039FB8A828B8312B28B70C90C
:10495000850A82850B8374FFF0A3F07C177D03EE3C
:10496000FAEFFB1222A002C6791222708A0A8B0B80
:10497000EA450B2274F21210518A0A8B0BECFEED01
:10498000FF740E12104512C011900A01E0F4603D50
:104990007A097B00122A38EA4B60328A828B837450
:1049A000B1F0A3E412C483A312C481A3E50AF0A367
:1049B000E50B12C9D0EEF0A3EF12C9D0A3A3E50C0A
:1049C000F0A3E50DF0900A01E0F9122A4402C6793D
:1049D000F08A828B83A3A3A3A3A322C082C0839067
:1049E00061907404F0A37448F0A37402F0906180A5
:1049F0007440F09061BC7403F09061877419F0907A
:104A00006265741BF090619C740DF090619A743330
:104A1000F0A37455F09061A0743AF090055BE064E7
:104A2000017009C2919003C5746780059003C57435
:104A300061F0902E3EE493906186F0902E40E493D6
:104A4000F46027E493540FF8906185E0686012E504
:104A5000C654804449F5C6E59E547F644970F8E821
:104A6000F053C680E59E547F70FA79051227F20252
:104A7000CC1DC082C083E9540FF9906185E0696064
:104A800012E5C654804449F5C6E59E547F644970DA
:104A9000F8E9F053C680E59E547F70FA02CC1DC041
:104AA00082C083E5A8F853A87E906181E4F0A3F06A
:104AB000A3F0C2BA539AFEC289759B00C2C275E9BF
:104AC0000075910075BF0075A91175B905906181D8
:104AD000F0A374C0F0A3E4F0D2BA439A01748058F2
:104AE00042A802CC1DC082C08374F8120FFA900352
:104AF000C3E0F8A3E0F9E849700302CC139003C3C4
:104B0000E0544060237908851A82851B83AA82AB12
:104B10008312265A851A82851B83AA82AB831223AD
:104B2000309003C3E054BFF0E054806010790C7AF9
:104B30007F7B0512265A9003C3E0547FF0E0A2E089
:104B4000503190619A7433F0A37455F09061A07461
:104B50003AF090055BE064017009C2919003C5745E
:104B60006780059003C57461F01223369003C3E09B
:104B700054FEF0E05402603190619A743FF0A374E7
:104B80005AF09061A0747FF090055BE064017009B9
:104B9000D2919003C5747180059003C5746AF012B8
:104BA00023369003C3E054FDF0E054046013902ECC
:104BB0003CE493906186F012233C9003C3E054FBE5
:104BC000F0E054086013902E3DE493906186F0125B
:104BD000233C9003C3E054F7F0E054106013902E90
:104BE0003EE493906186F012233C9003C3E054EFBF
:104BF000F0E05420600A12233C9003C3E054DFF03D
:104C0000A3E05401600D1225821223429003C4E0F8
:104C100054FEF074081210108003F0A3F0D083D07B
:104C200082020CAF74EC12105174F4120FFA851A50
:104C300082851B83AC82AD837583847582897404FD
:104C4000120F0D902E3C93F4600302CDB1907808C2
:104C5000E0C39402500302CD917404121045AC825B
:104C6000AD837583847582157408120F0D851A82C1
:104C7000851B838582148583157404121045AC82CC
:104C8000AD837510FF7511FF7FFF7E00750E4875AF
:104C90000F78801574086E700302CD2474096E704D
:104CA0000302CD24740A6E607B850E82850F8378A3
:104CB0000A120ECA8C828D83A90BE50CC9F88812E2
:104CC0007418780A120E0BE512450AF8C3E098A38F
:104CD000E099850E82850F83780A120ECA40188CDF
:104CE000828D837418780A120E0BE512450AF8E0DB
:104CF000C398F8A3E0801C7418780A120E0BE51212
:104D0000450AFAE9FB8C828D83E0F8A3E0F9EAC357
:104D100098F8EB99F9C3E89510E9951150068810B9
:104D20008911EEFF0EE50E2404F50EE50F3400F5B3
:104D30000FEEC39413500302CC9474FF65107004FB
:104D400074FF651160238F0A7402780A120FE774EA
:104D500048250AF5827478350BF583780A120ECA55
:104D6000851482851583E50AF0EC24020C0CED34E1
:104D700000FD851482851583A385821485831574AF
:104D80000C121045E5826C7003E5836D600302CC64
:104D900082750A01750B00780A12126474021210EF
:104DA00045AC82AD837A8F7B0B122C2A74021210D1
:104DB00010740C1210107F0C021123C082C083905B
:104DC00061AE7468F0A3746AF090624574FBF0A35E
:104DD00004F053F4FD43FE0290055B7401F0906112
:104DE000A0E0643A90619A70237433F0A37455F094
:104DF0009061A0743AF0740164017009C29190034B
:104E0000C5746780289003C574618021743FF0A346
:104E1000745AF09061A0747FF0740164017009D23B
:104E2000919003C5747180059003C5746A02CC1C0F
:104E30007F04021123C082C08390050DE0640170DD
:104E40000A900512E06004790C8002790002CC1D02
:104E5000C082C08375E1F1900510E06055146008D0
:104E60001460591460518059122594900506E0F998
:104E70007A077B0512277490847D120EE81227AA08
:104E800090846D120EE8122780900511E0F9122728
:104E90008C79011227E6900504E02416F8A3E0348B
:104EA00000F98882898374ACF0A37425F07900023C
:104EB000CC1D12259A80B41225A080AF1225A680A1
:104EC000AA791280EA74F412105175D90D9004F584
:104ED000E0A2E0E4331313F8900506E0C433335442
:104EE000C0484401F5D97804790588828983A3A351
:104EF000A3E0F5D988828983A3A882A983E8640AFC
:104F00007003E9640570E378F5790488828983A3E6
:104F1000E0F5D988828983A3A882A983E864FB701D
:104F200003E9640470E575E1959004F5E0F97AF61B
:104F30007B0412277A900A237440F0A37425F0A30F
:104F400074A2F0A37426F0A374A2F0A37426F0A3B5
:104F500074A2F0A37426F0A37446F0A37425F0A302
:104F600074A2F0A37426F0A3745EF0A37425F090ED
:104F70000A3174A2F0A37426F0A374A2F0A37426DD
:104F8000F0A374A2F0A37426F0A374A2F0A3742675
:104F9000F0A374A2F0A37426F0A374A2F0A3742665
:104FA000F0900504E0F8A3E0F5838882A3A3780AD3
:104FB000120ECA908481780A120E569084B5780A2F
:104FC000120EA4900504E0240EF8A3E03400F98842
:104FD000828983780A120ED9900504E02414F8A37C
:104FE000E03400F9888289837413F09003C174025D
:104FF000F002CE30C082C083900516E02407F5D9B8
:10500000900506E0C4333354C0F5D9780479058897
:10501000828983A3A3A3E0F5D988828983A3A88288
:10502000A983E8640A7003E9640570E3900516E05B
:10503000601F78047905FAE82413F582E93400F555
:1050400083E0F5D988828983A3A882A9831AEA70AC
:10505000E6900536E02407F5D9900506E0C4333321
:1050600054C04404F5D97804790588828983A3A3C0
:10507000A3E0F5D988828983A3A882A983E8640A7A
:105080007003E9640570E3900536E0601F780479E9
:1050900005FAE82433F582E93400F583E0F5D98890
:1050A000828983A3A882A9831AEA70E675E19590A4
:1050B0000A23744CF0A37425F0A374A2F0A3742601
:1050C000F0A374A2F0A37426F0A374A2F0A3742634
:1050D000F0A37446F0A37425F0A374A2F0A3742681
:1050E000F0A3745EF0A37425F0900A3174A2F0A3CB
:1050F0007426F0A374A2F0A37426F0A374A2F0A304
:105100007426F0A374A2F0A37426F0A374A2F0A3F3
:105110007426F0A374A2F0A37426F09084A1120E5A
:10512000E8900504E0240EF8A3E03400F9888289B1
:1051300083120EF4900504E02414F8A3E03400F97F
:10514000888289837412F09003C1740102CC1CC060
:1051500082C083900516E02407F5D9900506E0C4C7
:10516000333354C04402F5D97804790588828983A1
:10517000A3A3A3E0F5D988828983A3A882A983E8A1
:10518000640A7003E9640570E3900516E0601F7817
:10519000047905FAE82413F582E93400F583E0F593
:1051A000D988828983A3A882A9831AEA70E675E167
:1051B00095900A237458F0A37425F0A37458F0A3B3
:1051C0007425F0A37458F0A37425F0A37458F0A3C9
:1051D0007425F0A37458F0A37425F0A37458F0A3B9
:1051E0007425F0A3745EF0A37425F0900A3174A2C4
:1051F000F0A37426F0A374A2F0A37426F0A374A203
:10520000F0A37426F0A374A2F0A37426F0A374A2F2
:10521000F0A37426F0A374A2F0A37426F09084A1E6
:10522000120EE8900504E0240EF8A3E03400F9889B
:10523000828983120EF4900504E02414F8A3E0346C
:1052400000F9888289837414F09003C1740402CC3D
:105250001CC082C083900516E02407F5D99005068E
:10526000E0C4333354C04406F5D978047905888204
:105270008983A3A3A3E0F5D988828983A3A882A9FF
:1052800083E8640A7003E9640570E3900516E06042
:105290001F78047905FAE82413F582E93400F583D0
:1052A000E0F5D988828983A3A882A9831AEA70E6E7
:1052B000900536E02407F5D9900506E0C433335451
:1052C000C04404F5D97804790588828983A3A3A30F
