:020000040000FA
:104000000BC2FFFF0100007C42424242FFFFFFFF64
:10401000FFFFFFFFFFFFFFFFFFFFFFFFFFFFFFFFB0
:10402000000102030405060708090A0BFFFFFFFF52
:10403000024497024F63FFFFFFFFFFFFFFFFFFFFF9
:10404000FFFFFFFFFFFFFFFFFFFFFFFFFFFFFFFF80
:10405000FFFFFFFFFFFFFFFFFFFFFF0256A6FFFF6F
:10406000FFFFFF025688FFFFFFFFFFFFFFFFFFFF7D
:10407000FFFFFFFFFFFFFFFFFFFFFFFFFFFFFFFF50
:10408000FFFFFF024FD6FFFFFFFFFFFFFFFFFFFF16
:10409000FFFFFFFFFFFFFFFFFFFFFF02565FFFFF76
:1040A000FFFFFFFFFFFFFFFFFFFFFFFFFFFFFFFF20
:1040B000FFFFFF024E1701FF0000B4000028002898
:1040C00000283075A000A000A000A0000008000893
:1040D000E001F000100010001000100010001000AF
:1040E00050005000500010001000D00700000000E9
:1040F00000000F00010005003075070010000100EE
:1041000081FF0000FFC058DE58C658FF02020208B7
:10411000025000A0000000E80302308501000015F5
:1041200085022A850100009909022485010000B159
:1041300002022A850100009A09025285010000C787
:1041400002022A850100009B09022E85010000C998
:1041500002022A850100009C09023685080000CA77
:1041600002022A850100009D090238850100009E97
:1041700009FF0100FF200230850100001E85022A90
:1041800085010000020A025085000000000002269E
:10419000850300001703A25EA25EA25EA25EA25E7D
:1041A000A25EA25EA25EA25EA25EA25EA25EA25E0F
:1041B000306148612A61FFFF02020202020202022C
:1041C00002010D00000010010230850100001B8576
:1041D000022A85010000450A024C8501000077078C
:1041E000022A85010000460A0248850100009C83DE
:1041F000022A85010000470A0246850100007383F8
:10420000022A85010000480A024485010000FF825D
:10421000022A85010000490A024285010000DB8272
:10422000022A850100004A0A024085010000ED8251
:10423000022A850100004B0A023E85010000C98266
:10424000022A850100004C0A023C8501000081839E
:10425000022A850100004D0A023A850100004E0A3B
:1042600001E803053F101C02308501000021850292
:104270002A85010000F30A1058820200005F08023C
:10428000268503000061080228850100008F830253
:104290002A85010000F30A1068820200006008020B
:1042A00026850300006708022885010000ED83FFD2
:1042B000FFFF00013075030201060000000000004E
:1042C00000000000000000000000000000000000EE
:1042D000000000000000FFFF0600800CE803140946
:1042E00053696D706C65424C4550657269706865C4
:1042F00072616C051250002003020A0002010603DD
:1043000002F0FF53696D706C6520424C452050658A
:10431000726970686572616CE6650000EC650A435D
:1043200068617261637465726973746963203100D6
:1043300002436861726163746572697374696320B2
:1043400032000843686172616374657269737469ED
:10435000632033001043686172616374657269732E
:10436000746963203400024368617261637465722A
:104370006973746963203500023085010000188577
:10438000022A85010000AB0B0256850300003509A7
:10439000022885010000AC0B022A85010000BD0B3C
:1043A0000258850100003609022885010000BE0B75
:1043B000022A85010000CF0B025A8502000037094E
:1043C000022885010000D00B022A85010000E10BC4
:1043D000025C8500000038090226850300003909C7
:1043E000022885010000E20B022A85010000F30B80
:1043F000024A850400003F09022885010000F40BF1
:10440000E5C754F84404F5C779012200000080FB99
:10441000124400B90003024481E479217808B8000D
:10442000028004F709D8FCE479297802B8000280F8
:1044300004F709D8FCE490028078C579078002F07F
:10444000A3D8FCD9FA781C9040B67A01BA00028051
:1044500007E493A3F608DAF9900944AA82AB8390A3
:1044600040B7784A79048015E493A3AC82AD838A7F
:10447000828B83F0A3AA82AB838C828D83D8E9D907
:10448000E77582597583E774031244A975820B7529
:10449000834474001244A975D00075813F751A8059
:1044A000751B02759F00024410C09FF59FE473D0F6
:1044B0009F22D083D082C09FE493C0E0740193C058
:1044C000E0740293F59F22E066701008A3E0667026
:1044D0000A08A3E066700408A3E06622C3E7960812
:1044E00009E7960809E7960809E79622C3E09608C7
:1044F000A3E09608A3E09608A3E09622C00AC3E0D2
:1045000096F50A08A3E096420A08A3E096420A0834
:10451000A3E096450A7001D3D00A22080808EAC031
:10452000E0EBC0E086F0E7A4FA180986F0E7A42AD9
:10453000FA180986F0E7A42AFA180986F0E7A42AEF
:10454000FA1986F0E7A4FBE5F02AFA190886F0E7E5
:10455000A42BFBE5F03AFA190886F0E7A42BFBE55B
:10456000F03AFA18180986F0E7A4C5F02BFBE43AF4
:10457000FA1908E7C5F0C6A426F6E5F03BFBE43AD5
:10458000FA1886F0E7A4F6E5F00826F6E43B08F60C
:10459000E43A08F6D0E0FBD0E0FA22E4CFC0E0E451
:1045A000CEC0E0E4CDC0E0E4CCC0E075F020C3E6CE
:1045B00033F608E633F608E633F608E633F618185D
:1045C00018EC33FCED33FDEE33FEEF33FFC3EC9715
:1045D00009ED9709EE9709EF97191919400FFFECAC
:1045E00097FC09ED97FD09EE97FE191906D5F0BE67
:1045F000ECF709EDF709EEF709EFF7191919D0E013
:10460000FCD0E0FDD0E0FED0E0FF226016080808F4
:10461000C6C313C618C613C618C613C618C613C613
:10462000D5E0EA227009080808226016181818C692
:10463000C333C608C633C608C633C608C633C6D594
:10464000E0EA22E627F60809E637F60809E637F633
:104650000809E637F622E026F608A3E036F608A3B6
:10466000E036F608A3E036F622E026F008A3E036AE
:10467000F008A3E036F008A3E036F022C3E697F690
:104680000809E697F60809E697F60809E697F6227C
:10469000C3E096F008A3E096F008A3E096F008A324
:1046A000E096F022E056F608A3E056F608A3E0569E
:1046B000F608A3E056F622E056F008A3E056F0080C
:1046C000A3E056F008A3E056F022E0F608A3E0F6D7
:1046D00008A3E0F608A3E0F622E6F008A3E6F00857
:1046E000A3E6F008A3E6F022E0FAA3E0FBA3E0FCD7
:1046F000A3E0FD22EAF0A3EBF0A3ECF0A3EDF0229F
:10470000CAC0E0E6F0A308DAFAD0E0FA22CAC0E0B4
:10471000E0A3C582CCC582C583CDC583F0A3C58285
:10472000CCC582C583CDC583DAE6D0E0CA22C3E416
:1047300098F8E499F912476F8026C3E49AFAE49B4B
:10474000FBE920E7E912476FE498F8E499F922C3FE
:10475000E498F8E499F912476FE498F8E499F9C3FA
:10476000E49AFAE49BFB22EB20E7CFE920E7E0B9EB
:104770000010BB0008E88AF084F8AAF022E4FBC825
:10478000FA22EB70227B10C833C8C933C9335007F3
:10479000C39AC3DBF280069A50012ADBEAC833F4DD
:1047A000C8C933F4C9FA2275F008E4C833C8C9335C
:1047B000C933C99AC99B5004C92AC93BD5F0ECFB3F
:1047C000C833F4C8E4C9FA22600D08C6A2E713C6CC
:1047D00018C613C6D5E0F322600C08C6C313C6186A
:1047E000C613C6D5E0F422700422600D18C6C33388
:1047F000C608C633C6D5E0F41822251A10AF08F54E
:104800001A4002151B8008F51A4002151BD2AF2270
:10481000C0D0251A10AF08F51A5002051B8008F504
:104820001A5002051BD2AFD0D022251AF58210AF44
:1048300008F51A4002151B8008F51A4002151BD214
:10484000AF851B8322251AF582E4351BF58322E40C
:1048500073251AC582C0E0E51B34FFC583C0E0E5BF
:104860001AC3958224F810AF0885831B85821A80AD
:104870000885831B85821AD2AFCEF0A3E520F0A372
:10488000780AE608F0A3DEFAEFF0A3E58124FAF84F
:10489000E608F0A3E608F0A3E608F0A30808E60897
:1048A000F0A3E608F0A315811581D0E0FED0E0F872
:1048B000158115811581E8C0E0EEC0E022251AC5FA
:1048C00082C0E0E51B34FFC583C0E0E51AC39582D2
:1048D00024F910AF0885831B85821A800885831B05
:1048E00085821AD2AFCEF0A3E520F0A3780AE608BD
:1048F000F0A3DEFAEFF0A3E58124FBF8E608F0A3CD
:10490000E608F0A30808E608F0A3E608F0A315817E
:104910001581D0E0FED0E0F815811581E8C0E0EE09
:10492000C0E022851B83851A82E0A3FEE0A3F52068
:10493000780AE0A3F608DFFAE0A3FFE0A3C0E0E016
:10494000A3C0E0E0A3C0E0E0A3C0E0E0A3C0E010AB
:10495000AF0885821A85831B800885821A85831B90
:10496000D2AFD083D0820244AF851B83851A82E008
:10497000A3FEE0A3F520780AE0A3F608DFFAE0A39F
:10498000FFE0A3C0E0E0A3C0E0E0A3C0E0E0A3C07C
:10499000E010AF0885821A85831B800885821A85FE
:1049A000831BD2AFD083D08222C0D0251AC582C04B
:1049B000E0E51B34FFC583C0E0E51AC3958224F30C
:1049C00010AF0885831B85821A800885831B85822A
:1049D0001AD2AFC8F0A3E9F0A3EAF0A3EBF0A379F1
:1049E0000AE709F0A3D8FAECF0A3EDF0A3EEF0A3E8
:1049F000EFF0A3D0E0F0A3D0E0F0A3D0E0F0A3E587
:104A000020F0A3E5F0F0A322851B83851A82E0C085
:104A1000E0A3E0F9A3E0FAA3E0FBA3780AE0F6083C
:104A2000A3DFFAE0FCA3E0FDA3E0FEA3E0FFA3E028
:104A3000C0E0A3E0C0E0A3E0F5D0A3E0F520A3E050
:104A4000A3F5F010AF0885831B85821A8008858343
:104A50001B85821AD2AFD082D083D0E0F8D0E0326A
:104A600074048006740280027401C0E0F4041248E9
:104A70002AD0E0124700227404800474028000CC23
:104A8000C0E0EDC0E0E51AC39CCCAD1B50011D1089
:104A9000AF068C1A8D1B80068C1A8D1BD2AF124765
:104AA0000DD0E0FDD0E0FC22D083D082E9C0E0E46C
:104AB00093A3C386F0C5F095F0F908E493A386F0BC
:104AC000C5F095F0700BE493A3C3994005E9048009
:104AD00002A3E475F002A42582F582E5F03583F5A2
:104AE00083D0E0F9E493A3C0E0E493C0E022D08354
:104AF000D082ECC0E0EDC0E0E493A3FCE493A3FD1E
:104B0000ED4C600D124B3AEC24FFFCED34FFFD80C0
:104B1000EFE493A3FCE493A3FDED4C600D124B79FD
:104B2000EC24FFFCED34FFFD80EFD0E0FDD0E0FC95
:104B3000E493A3C0E0E493C0E022C0E0C3E4939612
:104B4000087401939618400FE49366700808740186
:104B500093661870007019A3A3C3E49396087401B8
:104B6000939618A3A3400DD0E0D0E0D0E0024B2AEA
:104B7000A3A3A3A3A3A3D0E022C0E0C0F088F0E4E5
:104B8000936670080874019366187000A8F0A3A3D8
:104B9000700BD0F0D0E0D0E0D0E0024B2AA3A3D03D
:104BA000F0D0E02274F51248BDEAFEEBFFEE2434AB
:104BB000F8EF3400F9880A890BEE2435F582EF34DA
:104BC00000F583E0F8EE2437F582EF3400F583E05A
:104BD000F50CEC850CF0A4FCAAF0850CF0EDA42AF1
:104BE000FDE82CF8E43DF97A257B0012476FEA8551
:104BF0000A82850B83F05407F87401B80002800420
:104C0000C333D8FCC0E0E0131313541FF8EE28F8A8
:104C1000EF3400F9E8245DF582E93400F583D0E053
:104C2000F8E0586008EE2434F582EF801EEE24365A
:104C3000F582EF3400F583E0F5F0EA84A8F0EE2881
:104C4000F8EF3400F9E82438F582E93400F583E020
:104C5000F97F0402496974F51248BDEAFEEBFFEEE4
:104C60002434F582EF3400F583E0C0E0EE2435F51E
:104C700082EF3400F583D0E0F08E828F83A3A3A36C
:104C8000A3A3A3A3C082C0838E828F83A3A3A3A365
:104C9000A3E0F8A3E0F9D083D082E0C398F50AA39B
:104CA000E099F50BEE2480F582EF3400F583E064A3
:104CB000017069EE2481F582EF3400F583E0F8A3FA
:104CC000E0F98E828F83A3A3A3A3A3A3A3E0FCA3F5
:104CD000E0FD8E828F83A3A3A3A3A3E0FAA3E0FB4E
:104CE000C3EA9CEB9D5027C3EC98ED99402EC3EA94
:104CF00098EB9950277CFC7D04EEFAEFFB125E00E6
:104D0000EE2480F582EF3400F583E4F0800EC3EAF0
:104D100098EB9940E0C3EC98ED9950D9EE2434F823
:104D2000EF3400F9E8FCE9FDEE2435F582EF3400BC
:104D3000F583E0F8EE2437F582EF3400F583E0F5F3
:104D40000CE50A850CF0A4F50AAAF0850CF0E50B39
:104D5000A42AF50BE8250AF8E4350BF97A257B003F
:104D600012476FEA8C828D83F05407F87401B80003
:104D7000028004C333D8FCC0E0E0131313541FF8BF
:104D8000EE28F8EF3400F9E8245DF582E93400F507
:104D900083D0E0F8E0586008EE2434F582EF801EFE
:104DA000EE2436F582EF3400F583E0F5F0EA84A8CE
:104DB000F0EE28F8EF3400F9E82438F582E9340001
:104DC000F583E0F9125651024C51C082C083851A16
:104DD00082851B83E0F8A3E0F9C3EA9CEB9D5012A7
:104DE000C3EC98ED994019C3EA98EB9950127901F8
:104DF0008010C3EA98EB9940F5C3EC98ED9950EE1A
:104E00007900D083D08222EAC39CFAEB9DFB22FF7B
:104E10008521878522C622C0E0C0D0E8C0E0E9C075
:104E2000E0EAC0E0EBC0E0ECC0E0EDC0E0C00AC0EA
:104E30000BC00CC00DC082C083C0F0759B00906198
:104E400082E0A2E64003024EF5E591A2E6400302AD
:104E50004EF57591BF9003C1E064057008125F388C
:104E6000125F448003125F3E752100125F9EE9903D
:104E700003C2F07900125F92125D767A017B009096
:104E800003C0E0F9126268907803E06442600302B4
:104E90004F3E90055EE014F06003024F3EC2AF1239
:104EA0004EA200782AD0E0F618D0E0F6E59F54072D
:104EB000F9700590848D8003908491780A1246CA17
:104EC000E9C4C0E07829E6550AF50A08E6550BF56D
:104ED0000B740B780A1247D8D0E0250AF89062705C
:104EE000E0A2E740F8E8C333906272F0906270E0AD
:104EF000D2E0F08049E0A2E55024E591A2E5501E01
:104F00007591DF9003C1E0640D70139003E3E0043A
:104F1000F064287002E4F07A00E0F9126010906109
:104F200081E0A2E35009E5E9A2E3500375E9F7A3A4
:104F3000E0A2E75009E591A2E7500375917FD0F018
:104F4000D083D082D00DD00CD00BD00AD0E0FDD0D1
:104F5000E0FCD0E0FBD0E0FAD0E0F9D0E0F8D0D02F
:104F6000D0E032C0E0C0D0C082C083906183E0A2B4
:104F7000E05009E5BFA2E0500375BFFEE0A2E1509A
:104F800009E5BFA2E1500375BFFDE0A2E25009E5CB
:104F9000BFA2E2500375BFFBE0A2E35009E5BFA248
:104FA000E3500375BFF7E0A2E45009E5BFA2E45067
:104FB0000375BFEFE0A2E55009E5BFA2E550037518
:104FC000BFDFE0A2E65009E5BFA2E6500375BFBF10
:104FD000D083D0828088C0E0C0D0E8C0E0E9C0E0E3
:104FE000EAC0E0EBC0E0ECC0E0EDC0E0C0F0E5A757
:104FF000A2E6500FE5A1A2E6500953A7BF75A1BFD5
:1050000012503BE5A7A2E5500CE5A1A2E5500653DE
:10501000A7DF75A1DFE5A7A2E15009E5A1A2E15054
:105020000375A1FDE5A7A2E2500CE5A1A2E250069E
:1050300053A7FB75A1FBD0F0024F4C74F81248BD8A
:105040007521019003C1E064067015125ECC8A825E
:105050008B83A3A3A3A3A3A3E0FAA3E0FB125F2681
:10506000A2AFE433FED2AF9003C7E0640170187AB8
:10507000207B009003C0E0F91262F27A207B00905E
:1050800003C0E0F912626E906182E0D2E6F0900512
:105090005DE0602185C62280169003C6E064017041
:1050A00008E5C654F84405F5C653BEFC124E10740C
:1050B00001652160E4EEA2E092AF7F01024969FF41
:1050C0008E238F24858228858327851A82851B83DA
:1050D000E0CEA3E0CF852882852783EBC9EAC8ED1F
:1050E000CBECCA75F010C3E833C8E933C9EA33CA58
:1050F000EB33CBC3EA9EF526EB9FF525B35004AB0B
:1051000025AA26EC33CCED33CDD5F0DAAE23AF248F
:105110002274EB1248BD74FA1247FA8A0A8B0B8C80
:10512000168D179003C1E024F7C3940550069084B0
:10513000E1025273125ECC8A0C8B0DAE0CAF0DEEF9
:105140004F7003025270AC0AAD0B851A82851B8327
:10515000AA82AB83125F568E828F83A3A3780A1232
:1051600046CA9084B5780A1246A4851A82851B83A4
:10517000780E1246CA9084B5780E1246A4780A7941
:105180000E1244DC501F780A790E12467C9084D1AE
:10519000780A1244FC4047850A12850B13850C14CB
:1051A000850D158041850E12850F1385101485110C
:1051B000157812790A12467C9084D178121244FC38
:1051C000501C7512007513007514007515017812C6
:1051D000790E12467C7812790A1246438008908430
:1051E000E178121246CA7409781212462490850D8D
:1051F000780A1246CA7812790A12459B8E828F83EA
:10520000A3A3A3A3A3A3E0F8A3E0F97AD07B03129E
:10521000476F880A890BE4F50CF50D7812790A12AC
:1052200046437404124845E0F8A3E0F97AD07B03C2
:1052300012476FE8FA8A0AE4F50B7812790A1244E9
:10524000DC50077812790A12467C9003C1E06408AA
:10525000600AE064066005E06405701C9084C9780B
:10526000121244FC50129084C578121246568008DF
:1052700090847578121246CA851682851783781233
:105280001246D974061248107F0E02496974F7124B
:1052900048BD125F6890055BE06401701090624544
:1052A000E4F0A3F053F4F343FE0C5390F3125F14B5
:1052B000E5C654804449F5C6E59E547F644970F8BC
:1052C000906185740FF0900559E0F47002A3E060DE
:1052D0004E90055AE0600814601B14602E804075E3
:1052E0000A01750B00900559E0780A1247E7E50AB4
:1052F000F45280802A750A01750B00900559E078F8
:105300000A1247E7E50AF452908014750A01750BFA
:1053100000900559E0780A1247E7E50AF452A079AF
:10532000007F0202496974F71248BDE9FEEAFF7482
:10533000016E700C7A807B009003C0E0F912626805
:10534000906640E493F46008E493F9125D6A800982
:1053500053C680E59E547F70FA125F1A90055BE099
:1053600064017003125D82900559E0F47002A3E0BD
:10537000604B90055AE0600814601A14602C803D60
:10538000750A01750B00900559E0780A1247E7E5A8
:105390000A42808028750A01750B00900559E07853
:1053A0000A1247E7E50A42908013750A01750B005F
:1053B000900559E0780A1247E7E50A42A0125F68B3
:1053C000125ECC8A0A8B0BA80AA90BE8496015E586
:1053D000E170FCE82414F582E93400F583E0F46020
:1053E00003E0F5E174016F700A7A019003C0E0F9FF
:1053F0001262BC02532174F11248BD8A0A8B0B8CD5
:105400000C8D0D740F124845780E1246CA9084B563
:10541000780A1246A49084B5780E1246A4780A79C8
:105420000E1244DC5015780A790E12467C9084D115
:10543000780A1244FC401579018013780E790A121B
:10544000467C9084D1780E1244FC40EB79007F08B2
:1054500002496974ED1248BD8A0A8B0B8C0C8D0DC4
:105460007413124845780E1246CA9084B5780A1211
:1054700046A49084B5780E1246A4780E790A124498
:10548000DC4011780A790E12467CAA0AAB0BAC0CF0
:10549000AD0D80227512007513007514007515018D
:1054A0007812790E12467C7812790A124643AA12B3
:1054B000AB13AC14AD157F0C0249699084B5780A22
:1054C0001246CA8A828B83780A1246B77F04024941
:1054D0006974F51248BD8C828D83780A1246CA8A97
:1054E000828B83780A124690EA2404F8EB3400F9A0
:1054F0008C828D83A3A3A3A3E0FCA3E0FD88828913
:1055000083C3E09CF0A3E09DF088828983C3E0948C
:1055100020A3E0944E40229084A1780A1246CA8AC1
:10552000828B83780A1246698A828B83A3A3A3A302
:10553000E02420F0A3E0344EF0808074F51248BDE2
:10554000E9FE900513E0FAA3E0FBEEC333F8E43381
:10555000F9744328F582748339F583E02AF50AA3A8
:10556000E03BF50B780A124A649084CD1246E812AB
:1055700050C074021248108A0A8B0B8C0C8D0D746B
:1055800010780A12460BAA0AAB0B7F040249697411
:10559000F11248BD8A0E8B0F8C108D11740F1248BA
:1055A00045E0FAA3E0FB7411124845E0F50AA3E0D8
:1055B000F50B7413124845E0FEA3E0FF780A124A87
:1055C00064EA2401F50AEB3400F50BE4F50CF50D63
:1055D000780E790A12451B9084BD780A1246CA7863
:1055E0000E790A12451BAA0EAB0FAC10AD1112506A
:1055F000C074021248108B0BEA450B60047A0180DC
:10560000027A00EC2AFCED3400FDECF8EDF97A7139
:105610007B0212476F880A890BE4F50CF50D8E8228
:105620008F83780A1246D9ECF8EDF97A717B021271
:10563000476F8A0A8B0B7405780A1247E78E828FB0
:1056400083A3A3A3A3E50AF0A3E50BF07F08024917
:1056500069C082C083E9906000F0D083D08222C00C
:10566000E074F21249A9A2AFE433FED2AFE589A2F9
:10567000E15003126454758900C2C5751C00EEA286
:10568000E092AF7F01024A08C0E074F21249A9A279
:10569000AFE433FED2AFE58BA2E050031264547541
:1056A0008B00C2E880D5C0E0C0D0E8C0E0E5A8D259
:1056B000AFC2C7751C00A2E792AFD0E0F8D0D0D03F
:1056C000E0321244B223DC031244B23ADC03124447
:1056D000B269DC031244B2A2DC031244B2CADC0396
:1056E0001244B2F8DC031244B20FDD031244B226B6
:1056F000DD031244B23CDD031244B263DD03124405
:10570000B276DD031244B28CDD031244B29FDD0396
:105710001244B2C4DD031244B2B7F5011244B2B66A
:10572000F6011244B2EBF6011244B20CF701124436
:10573000B21CF7011244B23DF7011244B249F8011C
:105740001244B216F9011244B289F9011244B20F9F
:10575000FA011244B252FA011244B289FA01124417
:10576000B20FFB011244B2E1FB011244B23FFC0153
:105770001244B257FC011244B2D1FC011244B2D41B
:10578000FC011244B2D7FC011244B27EFD01124466
:10579000B296FD011244B2C6FD011244B2E6FD010B
:1057A0001244B2D4FE011244B28AFF011244B21F65
:1057B000A7031244B247A7031244B275A7031244C9
:1057C000B2ACA7031244B214A8031244B25DA803FA
:1057D0001244B2A8A8031244B2E6A8031244B223AA
:1057E000A9031244B251A9031244B2F8A903124406
:1057F000B202AA031244B20FAA031244B242AA038D
:105800001244B204AB031244B210AB031244B228E8
:10581000AB031244B232AB031244B2D6E3031244D8
:10582000B2E4E3031244B2FCE3031244B214E4030F
:105830001244B20EE7011244B2ACE7011244B224A2
:10584000E8011244B239E9011244B273E901124489
:10585000B21CEA011244B2F1EA011244B255EC0161
:105860001244B2ACEC011244B233ED011244B21A4C
:10587000EE011244B267EE011244B2F5EE01124499
:10588000B219EF011244B2EEF0011244B22FF1014D
:105890001244B251F1011244B2D2F1011244B2BC2D
:1058A000F2011244B282F3011244B2538F03124444
:1058B000B22590031244B2CE90031244B211910368
:1058C0001244B29E91031244B22A92031244B20BC4
:1058D00093031244B23A93031244B236940312442F
:1058E000B27E94031244B28095031244B2C495036D
:1058F0001244B2EA95031244B2F4E5031244B2CC66
:10590000C0031244B2E2C0031244B208C1031244FD
:10591000B230C2031244B23AC2031244B293C30378
:105920001244B293C4031244B24F9D031244B28492
:105930009E031244B2B79E031244B2019F03124465
:10594000B2BFA0031244B2B1D7011244B214D801BD
:105950001244B259D9011244B269D9011244B28C2D
:10596000D9011244B2D7D9011244B27CDA011244EF
:10597000B272DB011244B23CDC011244B2B4DD016C
:105980001244B2F6DD011244B294DE011244B2E1D7
:10599000DE011244B207DF011244B2F5E001124405
:1059A000B2FAE0011244B2DBE2011244B22FE30189
:1059B0001244B291E3011244B2B9E3011244B25D60
:1059C000E4011244B21FE5011244B250E501124451
:1059D000B253E5011244B29BE5011244B2DDE50188
:1059E0001244B244E6011244B2A2D1031244B2B549
:1059F000D1031244B2CED1031244B219D2031244DD
:105A0000B2F4D2031244B283D3031244B2CED3030E
:105A10001244B20080011244B20C80011244B2451B
:105A200080011244B28A80011244B24181011244C1
:105A3000B2C781011244B22C82011244B2588201D1
:105A40001244B29182011244B2A584011244B2817F
:105A500086011244B26C88011244B2A38901124437
:105A6000B2038C011244B2EF8C011244B2358E01A4
:105A70001244B2428F011244B25F8F011244B297B6
:105A80008F011244B2B18F011244B2199001124435
:105A9000B2B394011244B25495011244B2A59501D7
:105AA0001244B2CC95011244B21A96011244B23893
:105AB00096011244B28C96011244B26597011244C9
:105AC000B2EC98011244B27499011244B275A20367
:105AD0001244B27FA2031244B24AA3031244B26535
:105AE000A3031244B28BA3031244B2CFA303124404
:105AF000B207A4031244B230A4031244B2A9A4030F
:105B00001244B2BEA4031244B2D3A4031244B20A94
:105B1000A5031244B21EA5031244B24FA5031244BA
:105B2000B289A5031244B2B5A5031244B20BA60371
:105B30001244B25FA6031244B2A8A6031244B2D222
:105B4000A6031244B2F7A6031244B2FCB8031244EF
:105B5000B2C6B9031244B2A9BA031244B21FBB03BE
:105B60001244B261BB031244B28EBC031244B2FCB5
:105B7000C4021244B225C5021244B23EC502124408
:105B8000B283C6021244B261C7021244B280C70295
:105B90001244B20DC8021244B250C8021244B29D5F
:105BA000C9021244B23CCA021244B2BBCC02124433
:105BB000B252CD021244B226CE021244B208CF0233
:105BC0001244B274D0021244B207D1021244B2EDB0
:105BD000E0031244B256E1031244B2AAE1031244B4
:105BE000B2D1E1031244B25BB0031244B2C8B003B5
:105BF0001244B213B1031244B208B2031244B20405
:105C0000B3031244B2EEB3031244B20DE9021244DC
:105C1000B24FE9021244B229EA021244B202EB0284
:105C20001244B2FDEB021244B2DCEC021244B24860
:105C3000ED021244B20FEE021244B27AEE021244A6
:105C4000B2E1EE021244B20CEF021244B27DEF0256
:105C50001244B210F0021244B279F0021244B28E31
:105C6000F0021244B2D6F0021244B2EFF002124433
:105C7000B254F1021244B257F1021244B2C4CB033F
:105C80001244B2ECCB031244B22ACC031244B2E861
:105C9000CC031244B253CD031244B26FCD0312446D
:105CA000B297CD031244B2C7CD031244B2D6CD038E
:105CB0001244B250CE031244B276CE031244B27EE6
:105CC0008E021244B25B90021244B2569202124407
:105CD000B22993021244B27493021244B2BF9302E7
:105CE0001244B2D193021244B21194021244B24649
:105CF00094021244B29294021244B2C19402124429
:105D0000B2E494021244B23195021244B2BA95023E
:105D10001244B2C797021244B2B299021244B2F5C9
:105D200099021244B25A9B021244B29B9B02124443
:105D3000B20E9C021244B25A9C021244B2859C02DA
:105D40001244B27ED1021244B2A9D1021244B290DE
:105D5000D8021244B2B4DA021244B26FDC02124426
:105D6000B2CCDD021244B24466001244B2DB6600DB
:105D70001244B20867001244B24E67001244B28D5A
:105D800068001244B2246A001244B29E6A001244AF
:105D9000B2B96A001244B22E6B001244B25D6C00BC
:105DA0001244B2B86D001244B2BA6E001244B21777
:105DB00070001244B23070001244B28D7000124470
:105DC000B26F71001244B2A271001244B21272009A
:105DD0001244B28C72001244B2DB72001244B2A7B9
:105DE00073001244B2AC74001244B28B75001244BA
:105DF000B21676001244B28476001244B2F87600ED
:105E00001244B22177001244B2E077001244B25A31
:105E100079001244B27779001244B29679001244A4
:105E2000B2277A001244B24C7A001244B2747A005B
:105E30001244B2EF7A001244B2497B001244B29D80
:105E40007C001244B25A7D001244B22D7E001244EE
:105E5000B2AF9C021244B2FF9C021244B20B9D02EC
:105E60001244B2E89D021244B2189E021244B2508B
:105E70009E021244B2CF9E021244B2079F02124405
:105E8000B2599F021244B2969F021244B2BBA102C1
:105E90001244B2E7A3021244B2E2A5021244B2BD18
:105EA000A7021244B2F37F001244B200C4011244AC
:105EB000B24AC4011244B229CA011244B2AACB01A7
:105EC0001244B209D2011244B204D3011244B241C5
:105ED000D3011244B264D3011244B2A6D3011244D6
:105EE000B2AFD3011244B2B9D3011244B2A5D40166
:105EF0001244B299D5011244B2DB99011244B25353
:105F0000A4011244B259A4011244B265AB01124477
:105F1000B29DC4031244B233C5031244B249C5034F
:105F20001244B2C3C5031244B219C6031244B25795
:105F3000C6031244B2B4C6031244B231C7031244BA
:105F4000B23AC7031244B246C7031244B259C70358
:105F50001244B295C7031244B2ABC7031244B20A4B
:105F6000C8031244B2B0B4031244B2BDB403124425
:105F7000B2D7B4031244B216B5031244B254B503F7
:105F80001244B2B9B5031244B2CEB5031244B2D929
:105F9000B5031244B2E6B5031244B2FDB503124490
:105FA000B20BB6031244B216B6031244B222B603C1
:105FB0001244B231B6031244B23CB6031244B25F8B
:105FC000B6031244B208B7031244B218B70312441E
:105FD000B232B7031244B24FB7031244B26BB703E5
:105FE0001244B290B7031244B29AB7031244B2AE4D
:105FF000B7031244B2CDB7031244B22EB803124411
:10600000B234B8031244B23AB8031244B240B803EF
:106010001244B24CB8031244B27FB8031244B283A4
:10602000AA021244B205AB021244B2AEAB02124451
:10603000B2F6AC021244B204AF021244B2EAAF02AA
:106040001244B21FB0021244B241B0021244B2EA8A
:10605000B0021244B2BAB2021244B2E3B202124423
:10606000B25BB3021244B28DB3021244B29AB302CD
:106070001244B2E5B3021244B209B4021244B25A55
:10608000B6021244B264B7021244B2C0B70212445C
:10609000B20080021244B21181021244B2F58102B0
:1060A0001244B2FF81021244B22182021244B22D84
:1060B00082021244B2D183021244B2FE830212441D
:1060C000B21485021244B26985021244B2B8860243
:1060D0001244B28D87021244B2E987021244B254CC
:1060E00088021244B28988021244B2CC8802124457
:1060F000B2968B021244B2AE8B021244B23F8C02B3
:106100001244B24D8C021244B29A8C021244B2A8CC
:106110008C021244B2148D021244B28F8D021244CA
:10612000B2E68D021244B2EFDD021244B211DE0279
:106130001244B222E0021244B2E1E2021244B20B73
:10614000E4021244B2C9E4021244B2B5E5021244B8
:10615000B26ADA031244B28FDA031244B205DB03E7
:106160001244B23688031244B23F88031244B24844
:1061700088031244B22089031244B2D18A03124424
:10618000B2018B031244B22C8B031244B25C8B031A
:106190001244B2878B031244B2BB8B031244B2E7A2
:1061A0008B031244B22A8C031244B2558C0312445E
:1061B000B29C8C031244B2F18C031244B2338D03AF
:1061C0001244B28D8D031244B2B88D031244B2074B
:1061D0008E031244B2378E031244B2628E0312440D
:1061E000B2908E031244B2B38E031244B27DE60322
:1061F0001244B2A9E6031244B2D6E6031244B2E056
:10620000E6031244B2F0E6031244B27BF1021244F8
:10621000B285F1021244B2C6F1021244B20FF20288
:106220001244B249F2021244B29FF2021244B2C0C6
:10623000F2021244B26FF5021244B278F50212442F
:10624000B2CCF5021244B2F5F5021244B2FFF502E7
:106250001244B26DF6021244B2FDF6021244B25874
:10626000F7021244B286F7021244B20EF802124448
:10627000B24DF8021244B282F8021244B294F8020B
:106280001244B2B3F8021244B2BCF8021244B28310
:10629000F9021244B202E2031244B279D803124462
:1062A000B2AFD8031244B2E3D8031244B230DA03D7
:1062B0001244B25EE5031244B274E5031244B27EA6
:1062C000E5031244B2C8E5031244B2FAE6031244ED
:1062D000B2C7AB031244B2DAAB031244B29BAC03B5
:1062E0001244B2DAAC031244B2F7AC031244B23037
:1062F000AD031244B27DAD031244B2AFAD031244FC
:10630000B2E6AD031244B2EFAF031244B278DF033A
:106310001244B29BDF031244B2CADF031244B262DA
:10632000E0031244B2A4E0031244B2BECE0312440E
:10633000B2E3CE031244B20DCF031244B2B1E7036D
:106340001244B220B0011244B2FEB1011244B29D17
:10635000B3011244B248B4011244B2C8B4011244A9
:10636000B24DB5011244B276B5011244B251B90131
:106370001244B2C8B9011244B2DFBA011244B219D0
:10638000BB011244B25ABB011244B2A1BC01124477
:10639000B2F7BC011244B240BD011244B2AFBD011C
:1063A0001244B21BBE011244B24CBE011244B2648C
:1063B000BE011244B27DBF011244B28DBF0112442E
:1063C000B243C1011244B25AC1011244B28CC1019C
:1063D0001244B22EC3011244B2C2C3011244B2AD80
:1063E000E4031244B2BEE4031244B207E8031244C9
:1063F000B246E8031244B2F9E8031244B204E903D6
:106400001244B209E9031244B22BE9031244B2F96F
:10641000E2031244B209E3031244B21EE30312443E
:10642000B2D0E3031244B2FAFE021244B27FFF027A
:106430001244B2E3FF021244B2D6DD031244B2FFAB
:10644000DD031244B265DE031244B285DE0312445A
:10645000B2D6DE031244B231DF031244B26BDF0363
:106460001244B26EDF031244B2E8BC031244B20D10
:10647000BD031244B22ABD031244B247BD03124405
:10648000B26CBD031244B28DBD031244B2B7BD035A
:106490001244B274BE031244B2F2BE031244B219E3
:1064A000BF031244B223BF031244B248C0031244D4
:1064B000B215E9031244B225E9031244B228E903F4
:1064C0001244B2F87F001244B23FD6031244B2CF56
:1064D000D7031244B230D8031244B276D803124420
:1064E000B25F96031244B2A196031244B2BC960363
:1064F0001244B28D97031244B26F98031244B2BF94
:106500009A031244B2319B031244B21B9C031244FF
:10651000B20B9D031244B25B7E001244B2AD7E000A
:106520001244B2207F001244B28D7F001244B2F8B0
:10653000D3031244B222D4031244B2F1D40312445E
:10654000B2CDD5031244B20080031244B2CC800312
:106550001244B20D81031244B24781031244B2A522
:1065600081031244B2F981031244B25782031244E8
:10657000B2ED82031244B2F583031244B27F850365
:106580001244B21D86031244B28486031244B297A9
:1065900086031244B28B87031244B2D48703124499
:1065A000B20DB8021244B23FBB021244B2D0BC02D8
:1065B0001244B227BD021244B244BD021244B2C416
:1065C000BD021244B240BF021244B20FC0021244D4
:1065D000B27CC3021244B266C4021244B2B1F902E0
:1065E0001244B244FC021244B2F2FC021244B2075A
:1065F000FE021244B279FE021244B23AC8031244B7
:10660000B27FC8031244B29CC8031244B252C903F9
:106610001244B2A5C9031244B275CA031244B28B24
:10662000CB031244B286E8031244B250E80312448A
:10663000B2B3E8031244B2DBE803FFFFFFFFFFFF42
:10664000FFFFFFFFC082C0839061907404F0A374C9
:1066500048F0A37402F09061807440F09061BC74C3
:1066600003F09061877419F0906265741BF090617B
:106670009C740DF090619A7433F0A37455F090619E
:10668000A0743AF090055BE064017009C291900338
:10669000C5746780059003C57461F090663EE4930D
:1066A000906186F0906640E493F46027E493540F81
:1066B000F8906185E0686012E5C654804449F5C6EB
:1066C000E59E547F644970F8E8F053C680E59E5417
:1066D0007F70FA7905125FF2026886C082C083E992
:1066E000540FF9906185E0696012E5C65480444911
:1066F000F5C6E59E547F644970F8E9F053C680E51D
:106700009E547F70FA026886C082C083E5A8F85361
:10671000A87E906181E4F0A3F0A3F0C2BA539AFE80
:10672000C289759B00C2C275E90075910075BF00F2
:1067300075A91175B905906181F0A374C0F0A3E447
:10674000F0D2BA439A0174805842A8026886C08287
:10675000C08374F81247FA9003C3E0F8A3E0F9E8A5
:1067600049700302687C9003C3E0544060237908B9
:10677000851A82851B83AA82AB83125E5A851A8290
:10678000851B83AA82AB83125B309003C3E054BFA6
:10679000F0E054806010790C7A7F7B05125E5A908D
:1067A00003C3E0547FF0E0A2E0503190619A74336B
:1067B000F0A37455F09061A0743AF090055BE0642A
:1067C000017009C2919003C5746780059003C57478
:1067D00061F0125B369003C3E054FEF0E0540260B7
:1067E0003190619A743FF0A3745AF09061A0747F65
:1067F000F090055BE064017009D2919003C574715B
:1068000080059003C5746AF0125B369003C3E054B0
:10681000FDF0E05404601390663CE493906186F0D0
:10682000125B3C9003C3E054FBF0E054086013900B
:10683000663DE493906186F0125B3C9003C3E054A4
:10684000F7F0E05410601390663EE493906186F098
:10685000125B3C9003C3E054EFF0E05420600A1256
:106860005B3C9003C3E054DFF0A3E05401600D12E1
:106870005D82125B429003C4E054FEF0740812483B
:10688000108003F0A3F0D083D0820244AF74EC12E6
:10689000485174F41247FA851A82851B83AC82AD85
:1068A00083758384758289740412470D90663C93C6
:1068B000F46003026A1A907808E0C394025003025D
:1068C00069FA7404124845AC82AD8375838475827D
:1068D00015740812470D851A82851B8385821485DD
:1068E00083157404124845AC82AD837510FF751191
:1068F000FF7FFF7E00750E48750F78801574086E57
:10690000700302698D74096E700302698D740A6EDA
:10691000607B850E82850F83780A1246CA8C828D31
:1069200083A90BE50CC9F888127418780A12460B73
:10693000E512450AF8C3E098A3E099850E82850F19
:1069400083780A1246CA40188C828D837418780A9C
:1069500012460BE512450AF8E0C398F8A3E0801C44
:106960007418780A12460BE512450AFAE9FB8C8284
:106970008D83E0F8A3E0F9EAC398F8EB99F9C3E84E
:106980009510E99511500688108911EEFF0EE50E5D
:106990002404F50EE50F3400F50FEEC394135003F5
:1069A0000268FD74FF6510700474FF651160238F29
:1069B0000A7402780A1247E77448250AF582747847
:1069C000350BF583780A1246CA851482851583E54E
:1069D0000AF0EC24020C0CED3400FD8514828515C0
:1069E00083A3858214858315740C124845E5826C57
:1069F0007003E5836D60030268EB750A01750B0097
:106A0000780A124A647402124845AC82AD837A8FC8
:106A10007B1912642A7402124810740C1248107FF9
:106A20000C024923C082C0839061AE7468F0A374E5
:106A30006AF090624574FBF0A304F053F4FD43FE4A
:106A40000290055B7401F09061A0E0643A90619A55
:106A500070237433F0A37455F09061A0743AF0740D
:106A60000164017009C2919003C574678028900386
:106A7000C574618021743FF0A3745AF09061A074D2
:106A80007FF0740164017009D2919003C574718024
:106A9000059003C5746A0268857F04024923C08299
:106AA000C08390050DE06401700A900512E0600457
:106AB000790C80027900026886C082C08375E1F19A
:106AC000900510E0605514600814605914605180FE
:106AD00059125D94900506E0F97A077B05125F7400
:106AE00090847D1246E8125FAA90846D1246E812E7
:106AF0005F80900511E0F9125F8C7901125FE690DA
:106B00000504E02416F8A3E03400F9888289837430
:106B1000ACF0A3745DF07900026886125D9A80B4CF
:106B2000125DA080AF125DA680AA791280EA74F48B
:106B300012485175D90D9004F5E0A2E0E433131327
:106B4000F8900506E0C4333354C0484401F5D978C1
:106B500004790588828983A3A3A3E0F5D988828973
:106B600083A3A882A983E8640A7003E9640570E33B
:106B700078F5790488828983A3E0F5D988828983AE
:106B8000A3A882A983E864FB7003E9640470E57537
:106B9000E1959004F5E0F97AF67B04125F7A900AA9
:106BA000237440F0A3745DF0A374A2F0A3745EF0AC
:106BB000A374A2F0A3745EF0A374A2F0A3745EF0B9
:106BC000A37446F0A3745DF0A374A2F0A3745EF006
:106BD000A3745EF0A3745DF0900A3174A2F0A37404
:106BE0005EF0A374A2F0A3745EF0A374A2F0A37489
:106BF0005EF0A374A2F0A3745EF0A374A2F0A37479
:106C00005EF0A374A2F0A3745EF0900504E0F8A314
:106C1000E0F5838882A3A3780A1246CA908481781B
:106C20000A1246569084B5780A1246A4900504E0EC
:106C3000240EF8A3E03400F988828983780A12468A
:106C4000D9900504E02414F8A3E03400F98882897F
:106C5000837413F09003C17402F0026A99C082C079
:106C600083900516E02407F5D9900506E0C4333378
:106C700054C0F5D97804790588828983A3A3A3E059
:106C8000F5D988828983A3A882A983E8640A70035E
:106C9000E9640570E3900516E0601F78047905FA51
:106CA000E82413F582E93400F583E0F5D988828978
:106CB00083A3A882A9831AEA70E6900536E0240728
:106CC000F5D9900506E0C4333354C04404F5D978AF
:106CD00004790588828983A3A3A3E0F5D9888289F2
:106CE00083A3A882A983E8640A7003E9640570E3BA
:106CF000900536E0601F78047905FAE82433F582C0
:106D0000E93400F583E0F5D988828983A3A882A9B4
:106D1000831AEA70E675E195900A23744CF0A37427
:106D20005DF0A374A2F0A3745EF0A374A2F0A37448
:106D30005EF0A374A2F0A3745EF0A37446F0A37493
:106D40005DF0A374A2F0A3745EF0A3745EF0A3746C
:106D50005DF0900A3174A2F0A3745EF0A374A2F007
:106D6000A3745EF0A374A2F0A3745EF0A374A2F007
:106D7000A3745EF0A374A2F0A3745EF0A374A2F0F7
:106D8000A3745EF09084A11246E8900504E0240EFE
:106D9000F8A3E03400F9888289831246F490050450
:106DA000E02414F8A3E03400F9888289837412F097
:106DB0009003C17401026885C082C083900516E00B
:106DC0002407F5D9900506E0C4333354C04402F5D6
:106DD000D97804790588828983A3A3A3E0F5D988AB
:106DE000828983A3A882A983E8640A7003E9640501
:106DF00070E3900516E0601F78047905FAE8241323
:106E0000F582E93400F583E0F5D988828983A3A867
:106E100082A9831AEA70E675E195900A237458F006
:106E2000A3745DF0A37458F0A3745DF0A37458F0DC
:106E3000A3745DF0A37458F0A3745DF0A37458F0CC
:106E4000A3745DF0A37458F0A3745DF0A3745EF0B6
:106E5000A3745DF0900A3174A2F0A3745EF0A37481
:106E6000A2F0A3745EF0A374A2F0A3745EF0A37406
:106E7000A2F0A3745EF0A374A2F0A3745EF0A374F6
:106E8000A2F0A3745EF09084A11246E8900504E09D
:106E9000240EF8A3E03400F9888289831246F49026
:106EA0000504E02414F8A3E03400F988828983748F
:106EB00014F09003C17404026885C082C0839005F9
:106EC00016E02407F5D9900506E0C4333354C044D6
:106ED00006F5D97804790588828983A3A3A3E0F510
:106EE000D988828983A3A882A983E8640A7003E908
:106EF000640570E3900516E0601F78047905FAE8F0
:106F00002413F582E93400F583E0F5D9888289837A
:106F1000A3A882A9831AEA70E6900536E02407F553
:106F2000D9900506E0C4333354C04404F5D978043D
:106F3000790588828983A3A3A3E0F5D98882898310
:106F4000A3A882A983E8640A7003E9640570E3904A
:106F50000536E0601F78047905FAE82433F582E904
:106F60003400F583E0F5D988828983A3A882A983B8
:106F70001AEA70E675E195900A237452F0A3745DE5
:106F8000F0A374A2F0A3745EF0A374A2F0A3745EE5
:106F9000F0A374A2F0A3745EF0A374A2F0A3745ED5
:106FA000F0A374A2F0A3745EF0A3745EF0A3745D0A
:106FB000F0900A3174A2F0A3745EF0A374A2F0A35F
:106FC000745EF0A374A2F0A3745EF0A374A2F0A3A5
:106FD000745EF0A374A2F0A3745EF0A374A2F0A395
:106FE000745EF09084A11246E8900504E0240EF847
:106FF000A3E03400F9888289831246F4900504E006
:107000002414F8A3E03400F9888289837415F09081
:1070100003C17403026885C082C083900504E0F850
:10702000A3E0F5838882A3A3A3A3A3A3E4026883B8
:1070300074F71248519003EFE0F875F004A4C8AA61
:10704000F02AF974F128F8740339F9E82405FAE90B
:107050003400FB8A828B83E0FCA3E0FD8882898375
:10706000A3A3A3A3A3A3A3A3A3ECF0A3EDF08882FF
:107070008983A3A3A3A3A3A3A3E024FFF8A3E034DD
:10708000FFF98A828B83E8F0A3E90272D574F712C4
:107090004851EAFEEBFF9061D0E0600302716A752F
:1070A000D90E75D90375D904EE248CF582EF34001E
:1070B000F583E5822408F8E5833400F9E0F5D9A3E7
:1070C000E865827003E9658370F2EE2484F582EF4F
:1070D0003400F583E5822404F8E5833400F9E0F513
:1070E000D9A3E865827003E9658370F275E195794B
:1070F00008EE248CFAEF3400FB125E4E7904EE2485
:1071000084FAEF3400FB125E4E7C00EEF8EFF9ECEF
:10711000FAC3E49AFA95E0FBEE2AFAEF3BFBEA2485
:107120008BF582EB3400F583E0C0E0E824ABF58218
:10713000E93400F583D0E0F00C88828983A3A8822B
:10714000A983ECC3940840C7EE2470F582EF3400A5
:10715000F583E0F8A3E0F9EE2472F582EF3400F550
:1071600083E8F0A3E9F07901800279000272D6C0C9
:1071700082C08375D90275D90375D90575E195EA81
:107180002470F582EB3400F583E0F8A3E0F9EA24FB
:1071900072F582EB3400F583E8F0A3E9F07901029F
:1071A000688674F6124851EAFEEBFF90055F74069C
:1071B000F0750A5F750B05780A124A647C01790341
:1071C000125E96740212481075D90675D90375823D
:1071D0005F758305E0F5D9A3E58264647004E583F7
:1071E000640570F075E1959003C1E06408701EEECF
:1071F0002470F582EF3400F583E0F8A3E0F9EE2483
:1072000072F582EF3400F583E8F0A3E9F07901022A
:1072100073A274F6124851EAFEEBFF9061D0E07061
:1072200066780190055F740BF09003C1E06407700D
:1072300019750A5F750B05780A124A647C01790397
:10724000125E9674021248107805740128F5D975FB
:10725000D90375825F758305E8FAE0F5D9A31AEAC8
:1072600070F875E195EE2470F582EF3400F583E057
:10727000F8A3E0F9EE2472F582EF3400F583E8F02C
:10728000A3E9F07901800279000273A274F7124831
:1072900051EAFEEBFF75D90375D90375D90DEE24BC
:1072A000DEF582EF3400F583E0F5D975E1957904D8
:1072B000125FB0EE2470F582EF3400F583E0F8A39E
:1072C000E0F9EE2472F582EF3400F583E8F0A3E9EB
:1072D000F079018001F07F0102492374F6124851D0
:1072E000EAFEEBFF9061D0E0F87480C398FAEE24D8
:1072F00083F582EF3400F583E0600478048002783F
:1073000000E8240BF8EAC39850030273A07D0990AB
:10731000055FEDF0EE24E3F8EF3400F97A607B05C9
:107320007C0888828983E08A828B83F088828983C3
:10733000A3A882A9838A828B83A3AA82AB831CEC35
:1073400070E0EE2483F582EF3400F583E0601D7574
:107350000A5F750B05780A124A647C097903EEFA14
:10736000EFFB125E9674021248107D0D74012DF52C
:10737000D975D90375825F7583058D0AE0F5D9A3A8
:10738000150AE50A70F675E1957904125FB0EE24EE
:107390001DF582EF3400F583E4F0A3F0790180025B
:1073A00079007F0202492374F6124851EAFEEBFF8E
:1073B0009061D0E0F87480C398FAEE2483F582EFF0
:1073C0003400F583E06004780480027800E8240843
:1073D000F8EAC39850030274A77D0690055F740C09
:1073E000F09003DEE0900560F07ADF7B037861794E
:1073F000057C028A828B83E088828983F08A828B73
:1074000083A3AA82AB8388828983A3A882A9831CD1
:10741000EC70E07AE17B037C028A828B83E08882D5
:107420008983F08A828B83A3AA82AB838882898333
:10743000A3A882A9831CEC70E0EE2483F582EF34CC
:1074400000F583E0601D750A5F750B05780A124A26
:10745000647C067903EEFAEFFB125E967402124822
:10746000107D0A74012DF5D975D90375825F758376
:10747000058D0AE0F5D9A3150AE50A70F675E195C0
:107480007904125FB0EE2470F582EF3400F583E0EA
:10749000F8A3E0F9EE2472F582EF3400F583E8F00A
:1074A000A3E9F07901800279000273A274F6124810
:1074B00051EAFEEBFF9061D0E0F87480C398FAEED9
:1074C0002483F582EF3400F583E0600478048002C1
:1074D0007800E82404F8EAC398500302758678021D
:1074E00090055FE8F0EE24F5F582EF3400F583E0D7
:1074F000900560F0EE2483F582EF3400F583E060C0
:107500001B750A5F750B05780A124A647C027903C1
:10751000EEFA125E9674021248107806740128F58D
:10752000D975D90375825F758305880AE0F5D9A3FB
:10753000150AE50A70F675E195EE2474F582EF34CC
:1075400000F583E4F0EE2480F582EF3400F583E467
:10755000F0EE241DF582EF3400F583E4F0A3F0791A
:1075600004125FB0EE240DF582EF3400F583E0F8ED
:10757000A3E0F9EE2472F582EF3400F583E8F0A37E
:10758000E9F07901800279000273A274F612485181
:107590009061D0E0F87480C398FCEA2483F582EB14
:1075A0003400F583E06004780480027800E8240465
:1075B000F8ECC398405B790290055F7407F0EA2409
:1075C000F6F582EB3400F583E0900560F0EA248361
:1075D000F582EB3400F583E06018750A5F750B05E2
:1075E000780A124A647C0209125E967402124810EC
:1075F0007906740129F5D975D90375825F758305FC
:10760000E9F8E0F5D9A318E870F875E195790180FB
:107610000279000273A274F5124851E9FCA2AFE4AA
:1076200033F50CC2AF7D0080010DEA246FF582EBCB
:107630003400F583E0F8EDC398501A8D0AEA250A64
:10764000F8EB3400F9E8246BF582E93400F583E0C7
:107650006C70D68024EA246FF8EB3400F9E0FEEA7F
:107660002EFAEB3400FBEA246BF582EB3400F58351
:10767000ECF088828983E004F0E50CA2E092AF7F11
:107680000302492374F6124851A2AFE433FDC2AF9E
:10769000EA246FF582EB3400F583E014F07C00609F
:1076A000368C0AEA250AF8EB3400F9E8246CF582F6
:1076B000E93400F583E0C0E0E8246BF582E93400AA
:1076C000F583D0E0F00CEA246FF582EB3400F5830B
:1076D000E0F8ECC39840CAEA246EF582EB3400F57A
:1076E0008374FFF0EA246AF582EB3400F583E4F05A
:1076F000EDA2E092AF0273A2C082C083E5A8F8C2F7
:10770000AFEA246BF582EB3400F583E9F0EA246AF2
:10771000F582EB3400F583E4F0E8A2E792AF02686B
:107720008674F3124851EAFEEBFFECFAEDFB8A8215
:107730008B83A3A3A3A3E0541FF0EE2436F582EFBE
:107740003400F583E4F0F50CEEFCEFFD8A828B83C8
:10775000E0C0E0EC245DF582ED3400F583D0E0F08C
:10776000750D00E50C33333354F8F50E8A828B83A4
:10777000E0F50A750B00E50D780A1247C8E50AA284
:10778000E0502FEE2436F8EF3400F988828983E048
:10779000F50AEE250AF50AEF3400F50BE50A243860
:1077A000F582E50B3400F583E50EF088828983E0ED
:1077B00004F0050D050EE50DC3940840AF050C8AD5
:1077C000828B83A3AA82AB838C828D83A3AC82AD90
:1077D00083E50CC39405500302774C7F05024923CF
:1077E00074F71248519003EDE0640170077A007B52
:1077F000000279577E009003F3E070F17401F0A36A
:10780000E4F0A3F090045304F0900456E4F0A3F0E5
:1078100090045904F09003F6E4F0A3F0A3F0A3F071
:1078200090040004F0900426E4F09084751246E879
:107830009004091246F490040DE4F0A3F0A3F09034
:107840000471F0900465F090045A7480F0A3E4F0A1
:10785000900460F0900458F09004DCF0A3F0A3F0E2
:10786000A3F0A3F0A3F0A3F0A3F09004E5F090043C
:1078700074F09004C4F0A3F09084751246E890046C
:10788000C61246F49084751246E89004CA1246F473
:107890009004D0E4F09004D2F09004CEF09004E88C
:1078A000F0A3F0A3F0A3F0A3F0A3F0A3F0A3F0786B
:1078B000ED7903E8246FF582E93400F58374FFF075
:1078C0000E88828983A3A882A983EEC3940440E32F
:1078D0007AED7B0378FC790488828983E0C0E0EA52
:1078E0002461F582EB3400F583D0E0F0888289834F
:1078F000A3A882A9838A828B83A3AA82AB83E8642C
:10790000017003E9640570D07AED7B0378D47903C4
:1079100088828983A3E0C0E0EA24E7F582EB3400A3
:10792000F583D0E0F088828983A3A882A9838A8224
:107930008B83A3AA82AB83E864DC7003E9640370E1
:10794000CF9003EDE004F0640170089003F5E0903F
:1079500003EFF07AF17B030272D6C082C0839003FA
:10796000F4E4F09003F3F09003EDF0A3F0A374FFC0
:10797000F075E1F1026886C082C0837800790090DA
:1079800003F4E0600478F1790388828983A3A3A3D8
:10799000A3E0F902688674F6124851EAFEEBFF8E06
:1079A000828F83A3A3A3E0600F8E828F83A3A3A300
:1079B000E4F09003EEE014F09003EDE014F07006B4
:1079C0009003EF74FFF08E828F83A3A3E4F0900501
:1079D00001E0700D9003EEE0640170057900125F24
:1079E00092EE2465F582EF3400F583E0F8A3E0F928
:1079F000E8496029EE2465F8EF3400F9880A890B1C
:107A00008882F583E0FCA3E0FD9003EFE0FA7B00C1
:107A1000125B66850A82850B83E4F0A3F0EEFAEF31
:107A2000FB125EC60273A274F7124851EAFEEBFF26
:107A30008E828F83A3A3A3A3E0FA7B00125BA8EE40
:107A4000FAEFFB125E18125EAE0272D6C082C083DD
:107A500078D4790388828983A3E4F088828983A318
:107A6000A882A983E864DC7003E9640370E69003EC
:107A7000D5026DB374F6124851EAFEEBFFEC240315
:107A8000F8ED3400F9880A890BEC2407F8ED34008E
:107A9000F9E8FCE9FD8C828D83E0F8A3E0F9850A22
:107AA00082850B83E0FAA3E0FB12476FEE240DF50D
:107AB00082EF3400F583E8F0A3E9F08C828D83E057
:107AC000F8A3E0F9850A82850B83E0FAA3E0FB12B4
:107AD000476F8B0BEA450B6013EE240DF582EF34F4
:107AE00000F583E02401F0A3E03400F00273A274F7
:107AF000F6124851EAFEEBFFEE242EF582EF340039
:107B0000F583E0FCA3E0FD780079FAECFAEDFB12D6
:107B1000476FEE2470F582EF3400F583E8F0A3E9B7
:107B2000F0780079FAECFAEDFB12476F8B0BEA451F
:107B30000B6013EE2470F582EF3400F583E024012E
:107B4000F0A3E03400F00273A274F0124851EAFE90
:107B5000EBFF7410124845780A1246CA125F508A29
:107B60000E8B0F8C108D11908485780E12465690D6
:107B700084B5780E1246A4780E124A608E828F83E6
:107B8000E0F8A3E0F5838882A3A31246E81253F637
:107B90007404124810E96003027C968E828F83E0A1
:107BA0002402F8A3E03400F9E8FAE9FB8A828B8327
:107BB000780A1246699084B5780A1246CA8A828B7E
:107BC00083780A1246B7EE240BF582EF3400F58372
:107BD000C082C0838E828F83A3A3A3A3A3E02401CA
:107BE000F8A3E03400F9D083D082E0687003A3E00A
:107BF0006970057901027C988E828F83A3A3A3A369
:107C0000A3A3A3E02401F0A3E03400F0EE2474F574
:107C100082EF3400F583E064017036EE2475F5825E
:107C2000EF3400F583E0F8A3E0F98E828F83A3A3FD
:107C3000A3A3A3A3A3E0687003A3E0697013EE24D9
:107C400075F582EF3400F583E02401F0A3E0340001
:107C5000F0EE2480F582EF3400F583E064017036A5
:107C6000EE2481F582EF3400F583E0F8A3E0F98E8D
:107C7000828F83A3A3A3A3A3A3A3E0687003A3E0BD
:107C8000697013EE2481F582EF3400F583E024015E
:107C9000F0A3E03400F079007F0802492374F71262
:107CA00048519003EFE0F875F004A4C8AAF02AF94F
:107CB00074F128FE740339FF8028EE2465F8EF3450
:107CC00000F988828983E0FCA3E0FD88828983E44F
:107CD000F0A3F08E828F83A3A3A3A3E0FA7B00120C
:107CE0005B66EE2465F582EF3400F583E0F8A3E0EF
:107CF000F9E849604FEE2464F582EF3400F583E043
:107D0000F50A780A124A68EE2463F582EF3400F52A
:107D100083E0F9EE2465F582EF3400F583E0FCA3FF
:107D2000E0FDEEFAEFFB125E427401124810E960CA
:107D300089EE2465F582EF3400F583E0F8A3E0F9DD
:107D4000E84970137C007D008E828F83A3A3A3A3D8
:107D5000E0FA7B00125B660272D674F2124851EAB6
:107D6000FEEBFF890C740E124845E0FAEE2462F532
:107D700082EF3400F583E064016003027E269061A7
:107D8000D0E0F87480C398F50EEE2483F582EF34CA
:107D900000F583E06004780480027800890AE9280D
:107DA000F8E43400F9E824020808E93400F9E50EA3
:107DB00098E499A2D265D0334068EA7005750D0247
:107DC0008003750D01E06039750B00780A124A6472
:107DD0007A5F7B05125E787402124810750A5F752F
:107DE0000B05780A124A64AC0CA90DEEFAEFFB12EF
:107DF0005E9674021248107404250CF50C7C5F7DAD
:107E0000057401250CF5D9850DD9E50C600D8C8222
:107E10008D83F8E0F5D9A318E870F875E19579003D
:107E200080067907800279FF7F06024923C082C05D
:107E300083E960208C828D83E08A828B83F08C8240
:107E40008D83A3AC82AD838A828B83A3AA82AB830A
:107E500019E970E0ECFAEDFB02688674F6124851FD
:107E6000EAFEEBFFEE2404FAEF3400FB1262A48A70
:107E70000A8B0BA80AA90BE849602988828983A389
:107E8000A3EEF0A3EFF0127FEA88828983EAF0A3E1
:107E9000EBF090086FE8F0A3E9F0E82404FAE93485
:107EA00000FB80047A007B007F0202492374F712F2
:107EB0004851EAF8EBF97C007D00127FEAE8FEE920
:107EC000FF800BEAFCEBFD8A828B83127FEDEA4B8D
:107ED0006049EA2404F8EB3400F9C3EE98EF9940C6
:107EE000E28A828B83A3A3127FD2EA28F582EB3940
:107EF000F583A3A3A3A3C3E5829EE5839F40C48A21
:107F0000828B83127FD2EC4D700590086F80048CB9
:107F1000828D83E8F0A3E9F01262AA7F010249236F
:107F200074F4124851127F776044C3E4950AFAE46E
:107F3000950BFBEE2AFAEF3BFB8A0A8B0BE8240435
:107F4000FCE93400FDC3EA9CEB9D402288828983D2
:107F5000A3A3E0FCA3E0FDE82CF582E93DF583A3B3
:107F6000A3A3A3C3E582950AE583950B5004EEFA1B
:107F7000EFFB7F04024923EAFEEBFF8C0A8D0B1214
:107F800065268A0C8B0DA80CA90DE84922C082C079
:107F90008390086F127FD2EAFCEBFD80078882890C
:107FA00083127FD2E849601FE82404FAE93400FB19
:107FB000C3EC9AED9B40E6127FD8A3A3A3A3C3E52D
:107FC000829CE5839D40D6E8FAE9FBD083D082020B
:107FD00044AFE0F8A3E0F92288828983A3A3127F4B
:107FE000EDE82AF582E93BF5832290086FE0FAA3D9
:107FF000E0FB220244AFFFFF851C87C2AF0244AF03
:10800000C082C083E9900A01F002828474F71248AA
:1080100051E99002DFF07C177D037AFF7BFF125A53
:10802000A09002E074FFF0A3F0A3E4F0A3F07905C0
:10803000125A289002DFE0F91259507ABE7B5A1288
:108040005C80028F9274F41248518A0A8B0BEB54B5
:108050008060309002DFE0F91262508A0C8B0DAE26
:108060000CAF0DEE4F60138E828F83E064B070030F
:10807000125A40EEFAEFFB12623EAA0AE50B648048
:10808000FB80047A007B0002825374F21248517420
:10809000FC1247FAEAFEEBFF74121248451294797B
:1080A000EE4F700302812D7402124845EEF0A3EFEB
:1080B00012848EECF0A3ED12848EAA82AB83125947
:1080C0004AE9F50C706AE50A450B60648E828F837D
:1080D00012945FEE4F60567A067B001262A48A0EFD
:1080E0008B0FA80EA90FE8497005750C1380418805
:1080F000828983E412813AEEF0A3EF12948AE50AB2
:10810000F0A3E50BF09002E51281C19002E5700545
:10811000128F3C801B128F2A8003EAFCEBFD8C82BD
:108120008D831281C170F38C828D8380E3750C0284
:10813000A90C7404124810029679F0A3129430A38B
:108140002274F2124851890CE975F017A4FEAFF0C1
:108150009002E4E4F09002E21281C1600A1262AA85
:108160009002E2E4F0A3F0EEFAEFFB1262A48A0AB6
:108170008B0BEA450B602FEEFCEFFD7900126226B7
:108180009002E2E50AF0A3E50BF07B008008128183
:10819000ABE4F0A3F00BEBC3950C40F2E50C9002BE
:1081A000E4F0790080027913029679EB75F017A458
:1081B000F8A9F09002E2E028FAA3E0398A82F58378
:1081C00022128BCEEA4B2274F4124851740C1248DE
:1081D00045129454FEE9FF750A00750B00800CE50A
:1081E0000A2401F50AE50B3400F50BC3E50A9CE50A
:1081F0000B9D5032850A0C850B0D7403780C1247C9
:10820000E7EA250CF8EB350DF988828983A3A3A34F
:10821000A3A3A3129011EE650C7003EF650D70BF60
:10822000E8FAE9FB80047A007B00802774F41248A6
:10823000517900EAA2E0501B750A4E750B84780A4A
:10824000124A647C047D007A037B0A125A2274026B
:108250001248107F04024923C082C0839002E512B5
:10826000828B601C88828983A3A3E06A7003A3E0E9
:108270006B8882898370E8A3A3A3A3128BCA8004AE
:108280007A007B00D083D0820244AF12975FE84926
:108290002274EE12485174FC1247FAEAFEEBFF8595
:1082A0001A82851B83E4F0A3F0EE2402128F1CEEE9
:1082B0002405129437EE2404F510EF128843E024CD
:1082C000FE603924FC604624FE605224FE605E2479
:1082D000FE70030283A424FE700302840824FE704F
:1082E0000302841724FE700302842624FC70030218
:1082F000843524FE70030284440284819002FE745B
:1083000017F0A3E41284961256C8028481851A825B
:10831000851B83AC82AD83125A46028451851A8232
:10832000851B83AC82AD83125A4C028451850E0AA0
:10833000850F0B7402124845AC82AD83850A828595
:108340000B83128BCA12596E8A0E8B0FAC0EAD0FB7
:10835000EC4D603BE4F50EF50F780E124A64750E95
:10836000FE750F02780E124A64750EFF750F0278C3
:108370000E124A647408124845124A7B1298DB12A6
:108380004810E9F50E700B128BC01256E0800F7585
:108390000E01850A82850B83128484128F3C850E20
:1083A0000A0284547402124845AC82AD83850E8261
:1083B000850F83128995603C850E82850F83A3A368
:1083C000124A7B7512FE7513027812124A647512F6
:1083D000FF7513027812124A647408124845124A53
:1083E0007B1298DB124810E9F50B700B128BC01250
:1083F00056E6800F750B01850E82850F83128484EB
:10840000128F3C850B0A804C851A82851B83AC82B7
:10841000AD83125A52803A851A82851B83AC82AD95
:1084200083125A58802B851A82851B83AC82AD83B8
:10843000125A5E801C851A82851B83AC82AD831222
:108440005A64800D851A82851B83AC82AD83125AD3
:108450006AE9F50AE50A60298E828F83A3E0641435
:10846000601F851082851183E09002FE12848E12B7
:10847000975B9002FF128F3CE50AA3128496125676
:10848000C2028E2B12975F851A82851B8322F0858C
:108490001A82851B8322F07CFE7D02850C82850D6D
:1084A00083128BCE2274EE12485174FC1247FA8A62
:1084B0000C8B0D8C108D11EA2405F50AEB3400F5B8
:1084C0000B7C157D0079007AFE7B02126226E50A9C
:1084D0002402F50EE50B12943A851A82851B8385DA
:1084E00082128583137812124A64850A82850B836F
:1084F000A3A3A3A312898C124A64E50A2405F512EA
:10850000E50B3400F5137812124A64850E82850F4C
:1085100083128CE112596874061248108A128B1368
:10852000AE12AF13E50C2402F50CE50D128F1FEE11
:108530004F700302866380177402124845128BCA7B
:1085400088828983EAF0A3EBF09002FEE004F090C9
:1085500002FEE0C394054003028663E4F512F513BE
:108560007812124A647512E77513027812124A647F
:108570007512E87513027812124A6474061248459F
:10858000124A7B7910EEFCEFFD1298DD124810E9DB
:10859000705E850A82850B83A3A3A3A3A3A3A3E094
:1085A000F89002E7E068704812898C124A647CE80F
:1085B0007D02E50A2408FAE50B3400FB1262207400
:1085C00002124810E960298E828F83A3A3A3A3120D
:1085D0008BCA9002FEE0F512740278121247E7741B
:1085E000FF2512F58274023513F583EAF0A3EBF050
:1085F00074021248458582128583137812124A64E8
:108600007402124845124A7B850E82850F83128BB5
:10861000F01248108A128B13AE12AF139002FEE0D4
:10862000F512751300740278121247E774FE2512D2
:10863000F874023513F988828983A31281C170030B
:1086400002852FE82403080808E93400F9EE4F609A
:10865000030285388882898374FFF0A3F09002FEBC
:10866000E004F09002FEE0600A128BC01256D4794A
:1086700000800B850A82850B83128F33790A028E64
:108680002B74EA12485174FE1247FA8C148D15EAC5
:108690002405F50EEB1298C5129463750A00750B4C
:1086A00000EA2402F512EB3400F513851A82851BCB
:1086B0008385820C85830D780C124A64850E828531
:1086C0000F83A3A3A3A3128859124A64E50E2405BD
:1086D000F50CE50F128F1F780C124A64850E828507
:1086E0000F8312885D12596874061248108A0C8B29
:1086F0000DEA450D70030287FEEA2404F510EB1223
:1087000088431294638A828B83A3A3A3E0F9851222
:1087100082851383128BD460030287FEE4F516F57D
:10872000177816124A647516E77517027816124AFA
:10873000647516E87517027816124A6474061248B2
:1087400045124A7B7913AC0CAD0D851282851383DB
:108750001298E3124810E9F50B60030287FE9002BD
:10876000E7E0F8E50A7009E024029002FFF08014C7
:108770009002FFE0FCE82402FAE43400FBEA6C70AB
:1087800001EB707E850A82AA821289839414128971
:108790007B506B851082851183E0C0E074002A1243
:1087A000883AD0E0F0050A851082851183A3E0C0E5
:1087B000E0850A0C7400250C12883AD0E0F0050A16
:1087C0009002E7128859124A647CE87D02850A0CFF
:1087D0007400250C12884D1248109002E7E0250A1B
:1087E000F50A74FF6E700374FF6F6012EE24010EC1
:1087F000EF3400FFE50AC3941450030286ABE50A88
:108800006013128BDE851282851383128BCA125677
:10881000DA79008014E50B7003750B0A85148285E4
:108820001583EEF0A3EFF0A90B74021248107F0E2F
:10883000024923850A0E7400250EF5827403340064
:10884000F583223400F511851082F58322FA740332
:108850003400FB12620E74022212949922A3A31216
:10886000886322128F2AFDEEFAEFFB2274EE124883
:108870005174FE1247FA8C108D11EA2405F50EEBA7
:1088800012943A750D009002FEE4F0F50CEA240211
:10889000F50AEB3400F50B80449002FEE0FA9002FA
:1088A000E7E0F8128983941712897B400D9002FE4D
:1088B000E0F87416C3989002E7F012898C124A64AB
:1088C0007CE87D0274FF2AFA740212885012481064
:1088D0009002E7E0F89002FEE028F0050CE50E2497
:1088E00016F582E50F12883EE0F8E50CC398507447
:1088F0009002FEE0C39416506BE50CC333F8E433EA
:10890000F9E50E28FEE50F39FF851A82851B83AC39
:1089100082AD838E828F831289957008750D011246
:108920008F2F8050E4F512F5137812124A647512F5
:10893000E77513027812124A647512E8751302780B
:1089400012124A647406124845124A7B7916850A47
:1089500082850B831298E3124810E9F50D7003022B
:10896000889980BB7CFE7D02850A82850B83128BF1
:10897000CA1256ECA90D7402028E2DE99400C3654B
:10898000D03322EA28F8E43400F9E822E0F5127541
:108990001300781222128E228A128B13AC12AD139E
:1089A000EC4D2274EA12485174FC1247FA8A0E8B7D
:1089B0000F8C148D15EA2405F50CEB128F1F750A28
:1089C00000750B00E50C2402F512E50D3400F513DB
:1089D00074021248458582108583117810124A640A
:1089E000850C82850D83A3A3A3A312943F124A642E
:1089F000E50C2405F510E50D3400F5117810124A48
:108A000064851282851383128F25128BC4125968D4
:108A100074061248108A108B11AE10AF11E50E24A7
:108A200002F510E50F3400F51180388882898374CF
:108A3000FFF0050A12883374FFF0050A9002E7E0A0
:108A4000F50E750F00780E124A647CE87D02850AE7
:108A50000E7400250E12884D1248109002E7E02592
:108A60000AF50AEE4F60278E828F83A3A3A3E0F955
:108A7000851082851183128BD4EE2404129437E979
:108A80006027850E82850F83128BB6128F3CE50A14
:108A90007003028B9C128BDE851082851183128BF2
:108AA000CA1256F27900028BB1E4F516F517781662
:108AB000124A647516E77517027816124A6475161D
:108AC000E87517027816124A647408124845124A6B
:108AD0007B7911EEFCEFFD8510828511831298E3FE
:108AE000124810E9F50B709A850A82AA82EA900270
:108AF000E77009E024049002FFF08025E0F890027E
:108B0000FFE0F516E82404FCE43400FDEC65167083
:108B100001ED7081128983941212897B4003028ACD
:108B200095850E82850F83E0C0E074002A12883A92
:108B3000D0E0F0050A850E82850F83A3E0C0E01225
:108B40008833D0E0128BF985820E85830F780E1260
:108B50004A647404124845124A7B85128285138345
:108B6000128BF01248108A0E8B0FAE0EAF0F850AD3
:108B70000E7400250EF874033400F9EE4F700302F2
:108B80008A2B851A82851B83E088828983128BF960
:108B9000A3E0C0E0128833D0E0028A39E50B70030D
:108BA000750B0A850C82850D83128BB6128F3CA93A
:108BB0000B740402882B12975F851482851583221B
:108BC0007CFE7D02850C82850D83128BCE22E0FA1D
:108BD000A3E0FB22128BCE125956E9F50B2290022C
:108BE000FFE0F5F0E50A849002FEF07CFE7D0222B3
:108BF000128863125974740422F0050A851A82855A
:108C00001B832274EC12485174FE1247FA8A0A8BB5
:108C10000B8C108D11EA2405FEEB3400FF128E0C34
:108C2000EE2418129437EA450D7003028CAF128DB2
:108C3000F55029128CD48A128B13EA4513606B7994
:108C400012AC0CAD0D850A82850B83128BCA85127E
:108C50008285138312484FE9F50C7058E4F50CF542
:108C60000D780C124A648E828F83A3A3E0F50C78F2
:108C70000C124A64EE2403128F1C780C124A648E84
:108C8000828F83128CE1125A8E7406124810E9F515
:108C90000C7021850E82850F83E0701F850A828506
:108CA0000B83128BCA1256F88011750C0E80097551
:108CB0000C018004E50C6003128F2F850E82850F56
:108CC00083E0600479008002A90C74021248107FCE
:108CD0000C024923851A82851B83128BCE125A7C83
:108CE00022128F2AFD850A82850B83128BCE227475
:108CF000EE12485174FE1247FA8A0A8B0B8C0E8DC5
:108D00000FEA2405FEEB3400FF751000128E0CEA0A
:108D1000450D7003028DD3128DF5502C128CD48A20
:108D2000108B11EA4511604A7912AC0CAD0D850A21
:108D300082850B83128BCA85108285118312484F5E
:108D4000E9F5106003028DD6850A82850B831290A7
:108D500011AA0CFB128DE770147AFF7BFF128DE7CE
:108D6000606C88828983E50CF0A3E50DF0750C003A
:108D7000800775100E805F050C9002E4E0FAE50CA8
:108D8000C39A504AE50C75F017A4FAABF0888289B3
:108D900083A3A3E02AFAA3E03BFB8A828B83128F92
:108DA00025EC4D70D2750C17750D00780C124A64C5
:108DB000EEFCEFFD12620E7402124810EEFCEFFDA5
:108DC000850A82850B83128BCA1256FE8014751099
:108DD000098003751001129757850E82850F831243
:108DE0008F3CA910028976125A708A128B13A8122E
:108DF000A913E84922E50A2402F50AE50B3400F537
:108E00000B8A828B83A3A3A3E0A2E522851A828525
:108E10001B83AC82AD838E828F83128E228A0C8B51
:108E20000D22E0FAA3E0FB12596E227404124810DE
:108E30007F0A02492374EC1248518C128D13EA24E4
:108E400005F50EEB12943A751100EA2402F50CEBCD
:108E5000128F1F850C82F583128BCA1299697003D9
:108E6000028F117510008071850E82850F83E0647A
:108E700001704F8E828F83A3A3124A7B8E828F83D1
:108E8000A3A3A3A3E0F5147515007814124A64EEA9
:108E90002405F514EF3400F5157814124A64128B8A
:108EA000C4125A8E7406124810E9F5116014850E2A
:108EB00082850F83E4F012975785128285138312FF
:108EC0008F3C7C177D007900EEFAEFFB1262268E54
:108ED000828F83E4F0A3F005109002E4E0F8E5103F
:108EE000C398501EE51075F017A4F8A9F0850A8202
:108EF000850B83A3A31298CF128F25EC4D6003023C
:108F00008E68850A82850B8374FFF0A3F0E51170EB
:108F100006128BC4125704A911028CCFF50CEF3442
:108F200000F50D22A3128F2AFD22E0FCA3E0228E81
:108F3000828F8312975F851082851183E8F0A3E901
:108F4000F022C082C0839002E0E06A7003A3E06B6D
:108F500070067AE07B0280047A007B0002828474CF
:108F6000F71248517F00EF75F003A4F8A9F0EC2840
:108F7000F8ED39F988828983E06A7003A3E06B70A9
:108F800006E8FAE9FB800B0FEFC3940240D87A00A1
:108F90007B007F0102492374F612485112954870F4
:108FA000067A007B008007A3A3A3A3128BCA0296B4
:108FB0000974F2124851E9FE740E124845129011DC
:108FC00074101248451294798C828D83E06402708B
:108FD0003BA312975B88828983E0F50EA3E0F9A892
:108FE0000E74026870037429697021750E02750F82
:108FF00000780E124A64780A124A64780C124A64A5
:10900000EEF9125AB27406124810800279010296E3
:1090100079E0F50CA3E0F50D2274E812485174FBD9
:109020001247FAE9851A82851B83F08A188B198CFE
:10903000108D11741F1248451294797421124845FD
:1090400012901174231248451294637512008C8299
:109050008D83A3A3A3E0A2E4502A741D12484512F5
:109060008CDA8A828B83E5824583700302912579AD
:109070000AAC10AD11AA18AB1912484FE9F51260ED
:1090800003029128851082851183E0640260030247
:1090900093DEA312975B850A82850B83A3858214D6
:1090A000858315E5102406F50EE51112943A8882A1
:1090B0008983E0FAA3E0F9EA2400F516E439F5170C
:1090C0007816124AEE010000280128ED90070002F0
:1090D00028C491032834910029EE920129169302A5
:1090E00029BD920329EE9204297F93DE93EE4F70FF
:1090F0003E850E82850F83129454FAE9FB8A828B97
:1091000083E0850C82850D83129490124A648A82D2
:109110008B83A3128F2AFDAA0AAB0B12620E740274
:10912000124810800375120EA91274050298BD75BD
:10913000120B80F4EE4F70F7850C82850D8374015D
:10914000F0129469850A82850B83F07C007D00858E
:109150001082851183A3A3A3A3E02401FAA3E03422
:1091600000FB12596EEA4B60418A828B83E0240235
:10917000F8850C82850D83E028F0EA2404F8EB34AE
:1091800000F988828983E08514828515831294A270
:10919000129490124A648A828B83128F24E50A24E7
:1091A00003FAE50B3400FB02911B850C82850D83CD
:1091B000E02404F07C047D007900AA14AB1512624F
:1091C00026029128EE4F600302912F129469FEA3AC
:1091D000E0FF850C82850D837404F0EE850A82859C
:1091E0000B83F0EF851482851583F07403124845D4
:1091F000AC82AD83EEFAEFFB129536700302929AC1
:109200008A828B83A3A312945F74011248458582DE
:10921000108583117810124A647405124845124A69
:109220007B7CFF7DFF12597474041248108B11EA85
:1092300045117033850E82850F8312943F124A6464
:10924000850E82850F83A3124A7B7C027D007A2CD7
:109250007B851257A07404124810E9700A74011239
:10926000484574FFF0A3F08E828F83E0640270346F
:10927000750E02750F00780E124A648E828F83126B
:109280008F24E50A2404FAE50B1288501248108551
:109290000C82850D83E0240280097401124845EE9A
:1092A000F0A3EFF07401124845129450F0740112CB
:1092B0004845A3129448A3A3A3F0029128EE4F605F
:1092C0000302912F850E82850F83128F25AA18AB7A
:1092D00019125AA6850C82850D837402F0EA850A5C
:1092E00082850B83F0851482851583EB80CBEE4F4E
:1092F000600302912F129469F8A3E0F9850C82852E
:109300000D837402F0E8850A82850B83F0E98514E9
:109310008285158380A3850E82850F83128BCA12E6
:109320006208EAFC8C82A882C39EE49F404BE86EF0
:109330007001EF70047C00801F851A82851B83E01A
:10934000FAEE2AFAEF3400FBC3EA98EB94005003DC
:10935000E08004EECCC39CFCEC850C82850D83F090
:109360008C0C750D00780C124A64850E82850F8373
:10937000E02EFCA3E03F029116751207029128EE41
:109380004F600302912F850E82850F8312975B85B4
:109390000C82850D837407F08882898312944812A9
:1093A0009430E0851482851583F0E82402FAE934CC
:1093B00000FB8A828B83129448129481129450A3EA
:1093C00012948A129459F0E82405F8E93400F988D7
:1093D000828983129459A31294A2A30292B6741D97
:1093E000124845129541700302912512975B880E31
:1093F000890FE8450F70030291258E128F137812A2
:10940000124A64780C124A64780A124A647406128A
:109410004845E0F9AC10AD11AA18AB19850E82854C
:109420000F8312484F7406124810E9F51202912872
:10943000F088828983A322F50EEF3400F50F22E035
:10944000F510751100781022E0850A82850B8322C1
:109450001294A92212975FE8221294A9A3A322A32F
:10946000A3A3A3E0FEA3E0FF22850E82850F83E085
:10947000F8A3E0F5838882E022E0F50AA3E0F50B8B
:1094800022A3A3F08A828B83A32212813CA3A3226E
:10949000F08A828B8312949922E0F50C750D007886
:1094A0000C221294301294A922E0850A82850B8343
:1094B000A3A32274EE12485174FE1247FA8A0C8B51
:1094C0000DECFAEDFB7414124845E0F512A3E0F53B
:1094D000137416124845E0FE7418124845E0F51062
:1094E000A3E0F511851A82851B83AC82AD831295AA
:1094F00036603E851A82851B83129541602FA3A397
:10950000129479E50A450B60247810124A647812A7
:10951000124A64EEF9AC0EAD0FAA0CAB0D850A82AF
:10952000850B8312484F74041248108006790E8010
:1095300002790102897612596E8A0E8B0FEA450F65
:1095400022128BCE12954822125A3A8A828B83E5D8
:109550008245832274F612485174FE1247FA740C45
:10956000124845129454851A82851B83F0740112A7
:109570004845E9F0E4F50AF50B780A124A64750AE1
:1095800002780A124A64740412484585820A858367
:109590000B780A124A64125A8E740612481074022A
:1095A000124810806474F7124851EAFEEBFF890AF2
:1095B0007C177D03125AA6EA5402600BA90AEEFA40
:1095C000EFFB12596280027901028F9274F6124801
:1095D0005174FF6A700374FF6B701C7B00EB75F0B5
:1095E00003A4F8A9F0EC28F8ED39F912960E0BEB6C
:1095F000C39402501480E6125A768A0A8B0BA80A8A
:10960000A90BE849600312960E7F02024923888263
:10961000898374FF12813AE4F02274F612485112E1
:109620005A768A828B83E58245836006A3A3E0FA9B
:1096300080027A007B0080D174F21248518A0A8B32
:109640000BECFEEDFF740E124845E0F50C12967E11
:10965000701CEEFCEFFD7AFF7BFF12967E700479A2
:1096600011801688828983E50AF0A3E50BF08882D1
:109670008983A3A3E50CF079007F06024923125ADF
:10968000768A0E8B0FA80EA90FE8492274EE1248B5
:1096900051EAFEEBFF8C0A8D0B890E7412124845BD
:1096A00012975B7414124845128F257416124845A0
:1096B000128BCA750F00EC4D600302974F74026560
:1096C0000E600302974A88828983128F2AF9EC245C
:1096D00000F510E439F511EAF4F8EBF4F9EC58F878
:1096E000E51159F9E849705DE50A2406F8E50B34FF
:1096F00000F9880C890D8882F58312885F125AA6BA
:109700008A128B13E51065127004E511651360422F
:109710007810124A64850C82850D8312885F125A74
:10972000AC7402124810E9F50F70277810124A64E1
:10973000850A82850B83A3A312885D125AC4740222
:10974000124810800D750F808008750F0D8003750D
:109750000F0BA90F028E308E828F8312975F22E04B
:10976000F8A3E0F92274E812485174E71247FA8529
:109770001A82851B83EAF0A3EBF08C188D198910EF
:109780007431124845E0F514A3E0F515743312481E
:1097900045E0F516A3E0F5177435124845E0F511DC
:1097A000750A00750B00E50B75F003A4F8A9F085A8
:1097B0001A82851B831298CFE0F47003A3E0F47043
:1097C000030298ADEE2402F50EEF1298C5E0700387
:1097D0000298AD85180C85190D780C124A64AC16E8
:1097E000AD17AA14AB15125A2E74021248108A0C27
:1097F0008B0DEA450D70030298ADE4F512F5137870
:1098000012124A64740612484585821285831378C1
:1098100012124A64740912484585821285831378AE
:1098200012124A64851482851583A3A3A3A3124A46
:109830007B7914AC0CAD0D8E828F831298E31248A5
:1098400010E97069850C82850D83A3A3A3A31297E9
:109850005B7402124845128F3C850E82850F83E0AF
:10986000A2E05018A9107402124845AC82AD838E54
:10987000828F83128BCA125986E9420A850E82852D
:109880000F83E0A2E15026E511F50C780C124A682E
:10989000A9107403124845AC82AD838E828F831267
:1098A0008BCA1259807401124810E9420A050BE56F
:1098B0000BC3940250030297A6A90A741912481008
:1098C0007F100249233400F50F850E82F58322E0D4
:1098D00028FEA3E039FF8E828F83227916850C82C1
:1098E000850D83128BCE125A8874082274F21248A6
:1098F00051EAFEEBFF890D7401650D600E7402657F
:109900000D70637901125C9EE9705BEEFAEFFB1259
:1099100099696047750C00800B7C177D00790012F7
:109920006226050C9002E4E0F8E50CC3985021E5AE
:109930000C75F017A4F8A9F0850A82850B83A3A300
:10994000E028FAA3E039FB8A828B8312828B70C9EC
:10995000850A82850B8374FFF0A3F07C177D03EEEC
:10996000FAEFFB125AA0029679125A708A0A8B0BF0
:10997000EA450B2274F21248518A0A8B0BECFEED79
:10998000FF740E124845129011900A01E0F4603DF8
:109990007A097B00126238EA4B60328A828B8374C8
:1099A000B1F0A3E4129483A3129481A3E50AF0A377
:1099B000E50B1299D0EEF0A3EF1299D0A3A3E50C1A
:1099C000F0A3E50DF0900A01E0F9126244029679E5
:1099D000F08A828B83A3A3A3A3A32274EA12485123
:1099E000907803E06442705E90055EE014F070567B
:1099F000C2AF1299F500782AD0E0F618D0E0F6E56B
:109A00009F5407F9700590848D8003908491780AA3
:109A10001246CAE9C4C0E07829E6550AF50A08E604
:109A2000550BF50B740B780A1247D8D0E0250AF8CD
:109A3000906270E0A2E740F8E8C333906272F09061
:109A40006270E0D2E0F09003EFE0F47003029DFE5C
:109A5000E0F875F004A4C8AAF02AF974F128FE749D
:109A60000339FFEE2402F582EF3401F583E0F8A319
:109A7000E0F9E849601EEE2402F582EF3401F58337
:109A8000E0FAA3E0FBEE2401F582EF3401F583E078
:109A9000F91262688E828F83A3A3A3A3A3A3A3E07A
:109AA000F8A3E0F98E828F83A3A3A3A3A3E8F0A376
:109AB000E9F0906054E09003C8F0906055E09003A6
:109AC000C9F0906056E09003CAF0906057E09003B0
:109AD000CBF0906058E09003CCF0906059E0900398
