:020000040000FA
:0600000002010A0227764E
:03002B00022BBEE7
:03003300022BA0FD
:03004B00022BD7AE
:030053000227EC95
:03006B00022B7AEB
:10008300022667E5C754F84401F5C7790122000049
:100093000080FB120086B900030200F4E4792178A2
:1000A30008B800028004F709D8FCE479297802B87B
:1000B30000028004F709D8FCE4900281783C7908B7
:1000C3008002F0A3D8FCD9FA9009BCAA82AB839032
:1000D300013A785D79058015E493A3AC82AD838AF8
:1000E300828B83F0A3AA82AB838C828D83D8E9D9D8
:1000F300E775827A7583C5740312011C7582917545
:100103008300740012011C75D00075813F7518813E
:10011300751902759F00020096C09FF59FE473D086
:100123009F22D083D082C09FE493C0E0740193C028
:10013300E0740293F59F22FF0000B400002800281A
:1001430000283075A000A000A000A000000800084F
:10015300E001F0001000100010001000100010006B
:1001630050005000500010001000D00700000000A5
:1001730000000F00010005003075070010000100AA
:1001830081FF0000FF9407B2079A07FF02020208EB
:10019300025000A0000000E80302CD93010000B567
:1001A3009302C993010000110A02C393010000B234
:1001B3000202C993010000120A02C193010000C8A0
:1001C3000202C993010000130A02BF93010000CA8F
:1001D3000202C993010000140A02BD93080000CB78
:1001E3000202C993010000150A02BB930100001625
:1001F3000AFF0100FF2002CD93010000AF9302C963
:10020300930100007A0A02CB93000000000002C5AC
:10021300930300001803B80DB80DB80DB80DB80D51
:10022300B80DB80DB80DB80DB80DB80DB80DB80DA3
:100233008810A0108210FFFF110199010F126404AE
:100243000102CD93010000B29302C993010000C2E1
:100253000A02D593010000C30A02C593030000807C
:100263000702E393010000C40A020202020202022F
:100273000202010D000000100102CD93010000AC49
:100283009302C993010000EE0A02DB93010000868A
:100293000702C993010000EF0A02EB93010000B7C4
:1002A3009102C993010000F00A02DF93010000A943
:1002B3009102C993010000F10A02E19301000016C3
:1002C3009102C993010000F20A02E79301000004BE
:1002D3009102C993010000F30A02E993010000F2BD
:1002E3009002C993010000F40A02DD930100002883
:1002F3009102C993010000F50A02EF930100009BEC
:100303009102C993010000F60A02ED93010000F780
:100313000A01E803053F10FF0001307503020106DF
:1003230000000000000000000000000000000000CA
:10033300000000000000000000000000FFFF0600B6
:10034300800CE803640080881301000000000000B3
:100353000001000000000000000C09416D6F5267AE
:10036300624C69676874051206000600020A0002FF
:1003730001060302F0FF0815000014150A43686123
:100383007261637465726973746963203100024337
:1003930068617261637465726973746963203200A2
:1003A3000843686172616374657269737469632079
:1003B30033001043686172616374657269737469B1
:1003C300632034000A54656D7065726174757265DB
:1003D3002055706461746520436F6E666967001A07
:1003E30043757272656E742054656D7065726174C5
:1003F300757265000A446576696365204E616D65B3
:1004030020436F6E666967000A54656D706572619B
:100413007475726520416C65727400024144433007
:10042300204144433120526561642056616C7565F7
:10043300203134426974000A50574D20436F6E6671
:1004430069670002CD93010000B89302C9930100CC
:1004530000010C02F393030000800902C79301001B
:1004630000020C02C993010000130C02F593010072
:1004730000810902C793010000140C02C993010013
:1004830000250C02F793020000820902C7930100C2
:1004930000260C02C993010000370C02F9930000F7
:1004A30000830902C593030000840902C793010076
:1004B30000380C02C993010000490C02FB930300AE
:1004C300008A0902C7930100004A0C02C993010084
:1004D30000640C02FD930300008F0902C59303001F
:1004E30000940902C793010000650C02C99301003F
:1004F30000790C02FF930300009A0902C7930100DD
:10050300007A0C02C9930100008D0C0201940300D0
:1005130000AF0902C7930100008E0C02C9930100CA
:1005230000A00C020394010000B40902C793010068
:1005330000A10C02C993010000BC0C020594030046
:1005430000B70902C793010000BD0C3031323334C8
:10055300353637383941424344454600286E756C79
:100563006C20706F696E74657229003F3F3F000015
:1005730000807F0000803FF9021550B743BA510055
:1005830000204100E7DB2E0000A04010000000081F
:10059300000000120125F8B8031201250FB9031258
:1005A30001253EB90312012577B9031201259FB92D
:1005B30003120125CDB903120125E4B90312012564
:1005C300FBB90312012511BA0312012538BA03122C
:1005D30001254BBA0312012561BA0312012574BA2E
:1005E3000312012599BA031201255CB002120125F9
:1005F3005BB10212012590B102120125B1B10212C1
:100603000125C1B102120125E2B102120125EEB2A8
:1006130002120125BBB3021201252EB402120125D9
:10062300B4B402120125F7B4021201252EB5021249
:100633000125B4B50212012586B602120125E4B6DE
:1006430002120125FCB60212012576B7021201251A
:1006530079B7021201257CB70212012523B80212D1
:1006630001253BB8021201256BB8021201258BB894
:100673000212012579B9021201252FBA02120125AE
:10068300A98903120125D18903120125FF890312C8
:100693000125368A031201259E8A03120125E78A62
:1006A30003120125328B03120125708B03120125DE
:1006B300AD8B03120125DB8B03120125828C031200
:1006C30001258C8C03120125998C03120125CC8CF6
:1006D300031201258E8D031201259A8D0312012524
:1006E300B28D03120125BC8D03120125207F001258
:1006F30001252E7F00120125467F001201255E7F12
:1007030000120125A6C50112012544C601120125C7
:10071300BCC601120125D1C7011201250BC8011264
:100723000125B4C80112012589C901120125EDCAA9
:100733000112012544CB01120125CBCB0112012566
:10074300B2CC01120125FFCC011201258DCD01127E
:100753000125B1CD0112012586CF01120125C7CF95
:1007630001120125E9CF011201256AD001120125E9
:1007730054D1011201251AD20112012530ED0212C2
:10078300012502EE02120125ABEE02120125EEEE67
:10079300021201257BEF0212012507F00212012547
:1007A300E8F00212012517F10212012513F20212D9
:1007B30001255BF2021201255DF302120125A1F36B
:1007C30002120125C7F302120125B4C30312012546
:1007D30022A30312012538A3031201255EA30312EA
:1007E300012586A40312012590A403120125E9A57E
:1007F30003120125E9A6031201253FFA021201257E
:1008030074FB02120125A7FB02120125F1FB021260
:100813000125AFFD02120125C36F001201252670C9
:10082300001201256B71001201257B710012012555
:100833009E7100120125E971001201258E720012CA
:1008430001258473001201254E7400120125C6751B
:1008530000120125087600120125A6760012012553
:10086300F37600120125197700120125077900128A
:1008730001250C7900120125ED7A00120125417B37
:1008830000120125A37B00120125CB7B0012012559
:100893006F7C00120125317D00120125627D00125B
:1008A3000125657D00120125AD7D00120125EF7D37
:1008B30000120125567E001201254BFD0112012570
:1008C3005EFD0112012577FD01120125C2FD011212
:1008D30001259DFE011201252CFF0112012577FF41
:1008E30001120125402E001201254C2E0012012574
:1008F300852E00120125CA2E00120125812F001218
:1009030001250730001201256C30001201259830B3
:1009130000120125D13000120125E5320012012514
:10092300C13400120125AC3600120125E337001251
:100933000125433A001201252F3B00120125753C86
:1009430000120125823D001201259F3D0012012561
:10095300D73D00120125F13D00120125593E001239
:100963000125F34200120125944300120125E543BA
:10097300001201250C44001201255A4400120125DE
:10098300784400120125CC4400120125A54500122C
:1009930001252C4700120125B44700120125518E71
:1009A300031201255B8E03120125268F03120125F5
:1009B300418F03120125678F03120125AB8F0312A9
:1009C3000125E38F031201250C9003120125859065
:1009D300031201259A9003120125AF9003120125FA
:1009E300E69003120125FA90031201252B910312BD
:1009F30001256591031201259191031201250892A6
:100A0300031201255192031201257B920312012542
:100A1300A09203120125529B031201251C9C031271
:100A23000125FF9C03120125759D03120125B79D26
:100A330003120125E49E03120125E68C021201250F
:100A43000F8D02120125288D021201256D8E0212CF
:100A530001254B8F021201256A8F02120125F78FA0
:100A6300021201253A9002120125879102120125F3
:100A7300269202120125A594021201253C95021229
:100A83000125109602120125F296021201255E98A5
:100A930002120125F198021201254ABF0312012512
:100AA300B3BF0312012507C0031201252EC0031291
:100AB3000125C89203120125359303120125809362
:100AC3000312012575940312012571950312012563
:100AD3005B96031201253ECD0212012580CD021241
:100AE30001255ACE0212012533CF021201252ED041
:100AF300021201250DD10212012579D1021201251D
:100B030040D202120125ABD20212012512D30212E6
:100B130001253DD302120125AED30212012541D492
:100B230002120125AAD402120125BFD40212012503
:100B330007D50212012520D50212012585D50212FF
:100B4300012588D50212012541AA0312012569AAAC
:100B530003120125A7AA0312012565AB0312012580
:100B6300D0AB03120125ECAB0312012514AC031225
:100B7300012544AC0312012553AC03120125CDAC6E
:100B830003120125F3AC03120125A8B601120125B6
:100B930045B8011201252BBA01120125F5BA01123C
:100BA30001253CBB0112012583BB0112012595BB25
:100BB30001120125D5BB0112012504BC0112012537
:100BC30050BC0112012588BC01120125B6BC0112DB
:100BD300012507BD0112012596BD0112012584C01F
:100BE300011201255EC2011201259AC201120125DB
:100BF300F4C3011201253BC401120125B0C4011243
:100C03000125FEC4011201253BC40212012558C46B
:100C130002120125F2C902120125F4CA02120125AA
:100C23006ECC021201251CCD02120125FB5B0012C2
:100C33000125445C00120125715C00120125A45CAE
:100C430000120125B15C00120125BD5C00120125D3
:100C5300CF5C00120125A45D00120125025E001283
:100C63000125375E00120125D35F001201252060A4
:100C730000120125446000120125B1600012012514
:100C830056610012012512620012012591620012C1
:100C93000125556300120125646300120125E563F4
:100CA30000120125846400120125B6640012012597
:100CB300516500120125AF6500120125E965001297
:100CC30001256A6600120125336700120125DC67DE
:100CD30000120125636800120125BB68001201257B
:100CE3001C6900120125456900120125FB690012E8
:100CF3000125456B00120125886B00120125A56BA8
:100D030000120125C46B001201250F6C001201258E
:100D1300346C001201255D6C00120125CC6C0012AD
:100D230001250E6D00120125126E00120125AC6E15
:100D330000120125786F00120125916F0012012521
:100D43009ABA02120125EDBA02120125F9BA02126A
:100D53000125CEBB02120125F5BB0212012530BCD1
:100D6300021201259CBC02120125D0BC02120125EE
:100D730009BD0212012521BD021201257ABD02120D
:100D8300012593BD02120125DCBD02120125EFBD31
:100D93000212012509BE021201251FBE02120125FE
:100DA3003BBF021201254CC00212012599C1021258
:100DB30001257EC202120125D19201120125008074
:100DC300021201253480021201259F83021201259C
:100DD300E98402120125B385021201253D8702121F
:100DE30001251888021201255288021201257588EF
:100DF30002120125B78802120125C08802120125BB
:100E03000A8902120125148902120125C0890212DE
:100E13000125948A02120125E88A021201254A8BD0
:100E2300021201259D8B02120125CC8B0212012592
:100E33000B8C02120125099401120125639C0112F6
:100E43000125699C0112012524A2011201250AA68C
:100E530001120125F3A60312012569A70312012537
:100E63007FA703120125BCA703120125F4A70312D0
:100E7300012571A803120125ACA80312012527A996
:100E83000312012563A9031201256CA9031201258D
:100E930078A90312012592A903120125B7A9031208
:100EA3000125CDA90312012511AA03120125E78407
:100EB30003120125FA840312012514850312012567
:100EC3003D8503120125808503120125BF85031289
:100ED3000125FD850312012562860312012577860C
:100EE300031201258286031201258F860312012531
:100EF300A68603120125B48603120125BF860312B9
:100F03000125CB8603120125DE8603120125E9861E
:100F1300031201250C8703120125B587031201254E
:100F2300C58703120125DF8703120125FC870312FE
:100F330001251888031201253D88031201254788DE
:100F4300031201255B88031201257A880312012508
:100F5300DB8803120125E18803120125E7880312C8
:100F63000125ED8803120125F988031201252C8937
:100F730003120125D2E20112012554E301120125D6
:100F8300FDE30112012545E50112012553E7011295
:100F9300012539E8011201256EE80112012590E8C7
:100FA3000112012539E90112012509EB011201257D
:100FB30032EB01120125AAEB01120125DCEB011230
:100FC3000125E9EB0112012534EC0112012558EC4E
:100FD30001120125A9EE01120125B3EF011201252A
:100FE3000FF0011201254FD40112012560D5011222
:100FF300012544D6011201254ED60112012570D6D2
:10100300011201257CD60112012520D801120125E8
:101013004DD80112012563D901120125B8D9011256
:10102300012507DB01120125DCDB0112012538DC78
:1010330001120125A3DC01120125D8DC01120125CF
:101043001BDD01120125E5DF01120125FDDF011280
:1010530001258EE0011201259CE001120125E9E042
:1010630001120125F7E00112012563E101120125B7
:10107300DEE10112012535E2011201253EA502122E
:10108300012560A50212012571A70212012530AACC
:10109300021201255AAB0212012518AC02120125D6
:1010A30004AD021201253FB70312012564B70312F1
:1010B3000125DAB70312012513E6021201251CE606
:1010C3000212012525E602120125FDE60212012581
:1010D300AEE802120125DEE80212012509E9021237
:1010E300012539E90212012564E90212012598E973
:1010F30002120125C4E90212012507EA02120125A1
:1011030032EA0212012579EA02120125CEEA02121D
:10111300012510EB021201256AEB0212012595EB62
:1011230002120125E4EB0212012514EC021201253F
:101133003FEC021201256DEC0212012590EC021224
:1011430001253DC40312012569C40312012596C478
:1011530003120125A0C403120125B0C40312012503
:10116300E2DD02120125ECDD021201252DDE021261
:10117300012576DE02120125B0DE0212012506DF0B
:101183000212012527DF02120125D6E102120125F1
:10119300DFE10212012533E2021201255CE20212B1
:1011A300012566E202120125D4E20212012564E35D
:1011B30002120125BFE302120125EDE3021201250C
:1011C30075E402120125B4E402120125E9E40212D6
:1011D3000125FBE4021201251AE50212012523E58C
:1011E30002120125E5E50212012561C10312012561
:1011F3004EB50312012584B503120125B8B50312B8
:10120300012505B703120125BAC403120125D0C471
:1012130003120125DAC403120125A1FF01120125DE
:101223001D9703120125309703120125F49703122A
:10123300012533980312012550980312012589983B
:1012430003120125D69803120125089903120125DB
:101253003F990312012543BC0312012566BC031207
:10126300012595BC031201252DBD0312012545BDA2
:101273000312012587BD031201253BAD031201258E
:1012830072AD0312012589AD0312012535AE031298
:101293000125CEAE0312012556AF0312012523B05B
:1012A3000312012548B00312012572B00312012570
:1012B30024C5031201251B4800120125F949001218
:1012C3000125984B00120125434C00120125C34C04
:1012D30000120125484D00120125714D0012012510
:1012E3004C5100120125C35100120125DA5200129C
:1012F30001251453001201255553001201259C5456
:1013030000120125F254001201253B55001201255C
:10131300AA55001201251656001201254756001240
:1013230001255F56001201257857001201258857C1
:10133300001201253E5900120125555900120125BD
:10134300875900120125295B00120125BD5B00129C
:10135300012558C20312012569C20312012509C3DD
:1013630003120125CDC5031201250CC60312012565
:10137300E4C60312012565FF0212012575FF02125F
:1013830001258AFF02120125F0FF021201255FC029
:1013930003120125E4C00312012548C103120125EC
:1013A300D0BD03120125F9BD0312012564BE03124A
:1013B3000125B5BE0312012510BF031201253E9F6F
:1013C30003120125639F03120125809F0312012548
:1013D3009D9F03120125C29F03120125E39F031260
:1013E30001250DA003120125CAA00312012548A15E
:1013F300031201256FA10312012579A1031201250F
:101403009EA203120125BFC603120125CFC60312F4
:101413000125FE7F00120125D9C603120125ABBAAF
:1014230003120125FDBA0312012570BB0312012526
:10143300DDBB0312012507B30312012531B30312E8
:10144300012500B403120125DCB403120125ACD538
:101453000212012578D602120125B9D602120125FE
:10146300F3D60212012551D702120125A5D7021284
:10147300012503D80212012599D802120125A1D909
:10148300021201252BDB02120125C9DB0212012501
:1014930030DC0212012543DC0212012537DD021282
:1014A300012580DD021201255CF0011201258EF376
:1014B300011201251FF50112012576F501120125FF
:1014C30093F50112012513F6011201258FF701127D
:1014D30001255EF801120125CBFB01120125B5FCA4
:1014E30001120125008003120125B9810312012590
:1014F300B98203120125689902120125DB990212B0
:1015030001255C9C02120125CF9D021201253B9F00
:1015130002120125BAA002120125BCA40212012560
:101523003CF4021201258CF402120125A9F40212E3
:1015330001259AF502120125A2F6021201259AF756
:1015430002120125FBF9021201254CC603120125E3
:1015530014C3031201253EC30312012516C6031249
:10156300012579C603120125A1C60312012559A637
:101573000112012577AB01E066701008A3E06670E5
:101583000A08A3E066700408A3E06622C008C3E06B
:1015930096F50808A3E096420808A3E096420808D7
:1015A300A3E0964208A2D265D033E5087001D3D0F8
:1015B3000822C3E7960809E7960809E7960809E7AA
:1015C3009622C3E09608A3E09608A3E09608A3E05A
:1015D3009622C008C3E096F50808A3E096420808DF
:1015E300A3E096420808A3E09645087001D3D0080B
:1015F30022080808E630E711121F1812160C080813
:1016030008C64480C618181822181818E9799EC607
:1016130008CAC608CBC608CCC6C370207996CACB05
:10162300CC7019798ECBCC70137986CC700EF9807F
:101633002ACA33CACB33CBCC33CC331930E7F2CC01
:10164300CBCA3350147004EA30E00DE4CA3ACACB73
:101653003BCBCC3CCC500209C3E913C6CC182313B3
:10166300C6CB18C6CA18C6F9221216AC20F014301D
:10167300E72B74FFFCFBFA747F8022E4FCFBFA7413
:1016830080801AB48008BC00F2BB00EF800F50EBDF
:10169300F9E4C39AFAE49BFBE49CFCE499C6CC18F6
:1016A300C6CB18C6CA18C6F922E4C9C608CAC608F2
:1016B300CBC6D3330308CCC63392F0C3947F402EFA
:1016C30094184019C9B90704CACBCC225025C309C1
:1016D300CA33CACB33CBCC33CC33D9F422F4600D29
:1016E300C9CCC313CB13CBCA13CAD9F6CC22E4FC9F
:1016F300FBFA2214FCFBFA22E6C3331846184618F9
:101703004622E7C33319471947194722181818E621
:10171300084608700AE608C3337005E633F4220866
:1017230022191919E7094709700AE709C333700534
:10173300E733F4220922E6084608C3134608336058
:1017430002E633F422E7094709C31347093360026A
:10175300E733F42212173960251217486020121656
:10176300FB7003021705080808E76670101819E7ED
:1017730066700A1819E76670041819E76622F422DE
:10178300121739601C12174860171216FB700712E4
:1017930017057001D322C0D01217057006D0D0B33D
:1017A30022C32233D0D0501430E0F6C3E7960809A1
:1017B300E7960809E7960809E796B32220E0D5E6FD
:1017C300970809E6970809E6970809E697B32212EE
:1017D3001739601B12174860161216FB7007121791
:1017E30005600CB322C0D01217057005D0D022C3F8
:1017F3002233D0D0501330E0EBC3E7960809E796C5
:101803000809E7960809E7962220E0E4E697080925
:10181300E6970809E6970809E69722001217396048
:101823004F1217486012E7548066F612170F7011B3
:10183300121705703B090909F4F618F618F618F69D
:101843002212172470151216FB08080860EAE644F2
:101853007FF618768018E4F618F6221216FB601647
:101863001217057012E4F608F608F608E65480F637
:1018730009090918181822EAC0E0EBC0E0ECC0E03F
:10188300EDC0E0E687F0A4FBACF008E687F0A42CFB
:10189300FCE435F0FA1809E687F0A42C4B600274D7
:1018A30001CA35F0FCE433FB09E687F0D2F7A42C38
:1018B300CB35F0FC1908E687F0A42BCC35F0FBE41C
:1018C30033FD0819E687F0D2E7A42C4ACB35F0CDD7
:1018D3003400FC09E687F0D2E7A42DCC35F0FDE413
:1018E30033FA0918E687F0D2F7A42CCD35F0CA34C1
:1018F30000FC08E687F0D2E7D2F7A42ACC35F07AC9
:101903007E20E70B0ACB33CBCD33CDCC33CC33CBDB
:101913003350147004ED30E00ED2F1E4CD3DCDCC64
:101923003CCC3B5005DA05C2F1EB547FC63308E6E5
:101933003392F0FBE73309E733C39A502D2B701929
:101943000C0D4C4D70151806E608C333700D20F1CD
:101953000AA2F013F6E418800B4024E4F630F002F8
:10196300768018F618F618F68024D33B14501074BA
:10197300FFA2F013F6187680E418F618F6800FA28B
:10198300F013F618E63303F618ECF618EDF6D0E08C
:10199300FDD0E0FCD0E0FBD0E0FA2212174860460D
:1019A300121739603DE9687008F618F618F618F64C
:1019B30022748067F71219D2090909748067F72224
:1019C300121739601D1217487005191919801A1258
:1019D300170F701F121724C37003E6673319191901
:1019E30040071818182208080874FFF618F618F6A6
:1019F30018F6221217246017121705702192F0129D
:101A030016FB7019501720F014080808090909E794
:101A1300F61819E7F61819E7F61819E7F622121659
:101A2300FB60E6E869701F0808E62480F608E436E0
:101A3300F618547FB47F0CE654806007F6E418F67A
:101A430018F622181822E9C6CC08C6CD08C6CE0857
:101A5300C6CFC0E0E8C0E0EAC0E0EBC0E009E9F8C7
:101A630009E7FA09E7FBE6F918E6F8C3EC98ED99FC
:101A7300EE9AEBC2E7F5F0EFC2E795F0500E600C7B
:101A8300EBCFFBEACEFAE9CDF9E8CCF8EAA2E7D24C
:101A9300E7FAEB33FB13F5F0EEA2E7D2E7FEEF3301
:101AA300FFC5F013A2E730E601B313C5F0C3C0E0EE
:101AB300C0F07F00C39BFB605B9418600C401AD09E
:101AC300E023F9D0E0F8021BA18AF0E9486003D2D1
:101AD300F0E4AFF0FAF9F8803BEB30E40D89F0EA7B
:101AE3006003D2F0E4AFF0F9CAF8EB30E30D88F00D
:101AF300EF6002D2F0AFF0E4CAC9F8EB5407601408
:101B0300FBC3EA13FAE913F9E813F8EF135002D20F
:101B1300E0FFDBEDD0E0C0E030E739C3E49FFFF541
:101B2300F0EC98FC42F0ED99FD42F0EE9AFE42F0A3
:101B3300D0E0F9D0E0F8E5F0607AE923F9EE20E7A8
:101B430042D8028067C3EF33FFEC33FCED33FDEE85
:101B530033FE80EAEC28FCED39FDEE3AFED0E023BB
:101B6300F9D0E0F84002801BC3EE13FEED13FDEC49
:101B730013FCEF135002D2E0FF08B800067F7F7416
:101B8300FF802EEF3350178CF020F00260100CBC56
:101B9300000C0DBD00080EBE000408E860DFE93349
:101BA300E813FFEE2313FE4F4D4C8008E95480FFEA
:101BB300E4FEFDFCEE33EF33F47004FCFD7E80D0D5
:101BC300E0FBD0E0FAD0E0F8D0E0CFC618CEC618DC
:101BD300CDC618CCC6F9221217397004181818226A
:101BE300121748700D74FFF61819F61819F618191C
:101BF300F622E7548066F61216FB700F1217057073
:101C0300F014F608F608F608F680D1121705700CE2
:101C1300F608F608768008E6447F80EC12172770F2
:101C23000C12171260BFE65480F6E480BB12171241
:101C3300700519191980A5E869700C763F1876802C
:101C430018F618F6E8F922E6CDC0E018ECC0E0E695
:101C530033CD33CDD313F6E719FCE7191933CC335E
:101C6300C3947F400ECD9D502408E65480F6E418BB
:101C7300F6800FF4043D14501408E6447FF61876FA
:101C830080E418F618F6D0E0FCD0E0FD22CCD313A4
:101C9300CCFD18E4C6CBC0E018E4C6CAC0E008080F
:101CA300ED08C633E613F618E433C675F003C3CA6A
:101CB30097CA09CB97CB199C40047D08802EBD00A1
:101CC30003021D8316B6FF050606081618C3CA339A
:101CD300CACB33CB33CA27CA09CB37CB193CC37D15
:101CE30008803E187D0820E75CC633C6CA33CACBDA
:101CF30033CB33DDF1D5F0EB30E77BCA97CA09CBA1
:101D0300974ACB199C406F4B7025E620E0218066F3
:101D1300187D08C3CA97CA09CB97CB199CD3C6337E
:101D2300C6CA33CACB33CB3350C9DDE7D5F0E1D3D1
:101D3300E4C636C608C636C608C636C608C636C69C
:101D43001818188031C3CA97CA09CB97CB199CB30B
:101D53004097C633C6CA33CACB33CB33DD34D5F051
:101D63002EC6A2E0C640C8CA27CA09CB37194A7093
:101D7300BECB3CB480B90808E63308E633601F18CD
:101D83001818D0E0FAD0E0FBD0E0FCD0E0FD221838
:101D93007D08CA27CA09CB37CB193CD3808013F6F9
:101DA30018E4B67F11F618B6FF0EF618C60470D203
:101DB3000808768080CAF618F618F680C508080861
:101DC300EAC0E0EBC0E086F0E7A4FA180986F0E782
:101DD300A42AFA180986F0E7A42AFA180986F0E774
:101DE300A42AFA1986F0E7A4FBE5F02AFA19088673
:101DF300F0E7A42BFBE5F03AFA190886F0E7A42BE9
:101E0300FBE5F03AFA18180986F0E7A4C5F02BFBB6
:101E1300E43AFA1908E7C5F0C6A426F6E5F03BFB59
:101E2300E43AFA1886F0E7A4F6E5F00826F6E43B70
:101E330008F6E43A08F6D0E0FBD0E0FA22E4CFC09B
:101E4300E0E4CEC0E0E4CDC0E0E4CCC0E075F02037
:101E5300C3E633F608E633F608E633F608E633F668
:101E6300181818EC33FCED33FDEE33FEEF33FFC3EC
:101E7300EC9709ED9709EE9709EF97191919400F98
:101E8300FFEC97FC09ED97FD09EE97FE191906D5AE
:101E9300F0BEECF709EDF709EEF709EFF719191999
:101EA300D0E0FCD0E0FDD0E0FED0E0FF22121F1B0B
:101EB300181818121E40121F0719191922121F078A
:101EC300191919080808E618181820E7E0121E4027
:101ED300121F1B18181822090909E719191920E7F5
:101EE300DC080808E618181820E703021E40121F32
:101EF3001B181818121E40121F1B181818121F0740
:101F030019191922E4C397F709E497F709E497F736
:101F130009E497F722181818E4C396F608E496F62E
:101F230008E496F608E496F6226016080808C6C385
:101F330013C618C613C618C613C618C613C6D5E0EB
:101F4300EA227009080808226016181818C6C33355
:101F5300C608C633C608C633C608C633C6D5E0EAC4
:101F630022E627F60809E637F60809E637F60809F0
:101F7300E637F622E026F608A3E036F608A3E036B5
:101F8300F608A3E036F622E026F008A3E036F008D0
:101F9300A3E036F008A3E036F022C3E697F608097B
:101FA300E697F60809E697F60809E697F622C3E0EE
:101FB30096F008A3E096F008A3E096F008A3E09655
:101FC300F022E056F608A3E056F608A3E056F6081A
:101FD300A3E056F622E056F008A3E056F008A3E08B
:101FE30056F008A3E056F022E647F60809E647F65E
:101FF3000809E647F60809E647F622E0F608A3E0F3
:10200300F608A3E0F608A3E0F622E6F008A3E6F05C
:1020130008A3E6F008A3E6F022E0FAA3E0FBA3E0BE
:10202300FCA3E0FD22EAF0A3EBF0A3ECF0A3EDF0B8
:1020330022CAC0E0E6F0A308DAFAD0E0FA22CAC066
:10204300E0E0A3C582CCC582C583CDC583F0A3C51B
:1020530082CCC582C583CDC583DAE6D0E0CA22C36C
:10206300E498F8E499F91220A38026C3E49AFAE4E9
:102073009BFBE920E7E91220A3E498F8E499F9220D
:10208300C3E498F8E499F91220A3E498F8E499F9E1
:10209300C3E49AFAE49BFB22EB20E7CFE920E7E0D5
:1020A300B90010BB0008E88AF084F8AAF022E4FB28
:1020B300C8FA22EB70227B10C833C8C933C9335026
:1020C30007C39AC3DBF280069A50012ADBEAC833BE
:1020D300F4C8C933F4C9FA2275F008E4C833C8C98F
:1020E30033C933C99AC99B5004C92AC93BD5F0ECFB
:1020F300FBC833F4C8E4C9FA22600D08C6A2E7138B
:10210300C618C613C6D5E0F322600C08C6C313C6AF
:1021130018C613C6D5E0F422700422600D18C6C396
:1021230033C608C633C6D5E0F41822251810AF0805
:10213300F518400215198008F51840021519D2AF99
:1021430022C0D0251810AF08F518500205198008D1
:10215300F51850020519D2AFD0D0222518F58210F8
:10216300AF08F518400215198008F5184002151933
:10217300D2AF851983222518F582E43519F5832218
:10218300E4732518C582C0E0E51934FFC583C0E0B8
:10219300E518C3958224F810AF0885831985821842
:1021A3008008858319858218D2AFCEF0A3E520F08D
:1021B300A37808E608F0A3DEFAEFF0A3E58124FA9A
:1021C300F8E608F0A3E608F0A3E608F0A30808E69B
:1021D30008F0A3E608F0A315811581D0E0FED0E056
:1021E300F8158115811581E8C0E0EEC0E0222518BD
:1021F300C582C0E0E51934FFC583C0E0E518C39587
:102203008224F910AF088583198582188008858395
:1022130019858218D2AFCEF0A3E520F0A37808E6A3
:1022230008F0A3DEFAEFF0A3E58124FBF8E608F05B
:10223300A3E608F0A30808E608F0A3E608F0A31550
:10224300811581D0E0FED0E0F815811581E8C0E06A
:10225300EEC0E022851983851882E0A3FEE0A3F592
:10226300207808E0A3F608DFFAE0A3FFE0A3C0E0CC
:10227300E0A3C0E0E0A3C0E0E0A3C0E0E0A3C0E0CF
:1022830010AF088582188583198008858218858395
:1022930019D2AFD083D08202012285198385188297
:1022A300E0A3FEE0A3F5207808E0A3F608DFFAE058
:1022B300A3FFE0A3C0E0E0A3C0E0E0A3C0E0E0A38D
:1022C300C0E010AF088582188583198008858218BD
:1022D300858319D2AFD083D08222C0D02518C5827E
:1022E300C0E0E51934FFC583C0E0E518C395822437
:1022F300F310AF08858319858218800885831985B3
:102303008218D2AFC8F0A3E9F0A3EAF0A3EBF0A3DD
:102313007908E709F0A3D8FAECF0A3EDF0A3EEF007
:10232300A3EFF0A3D0E0F0A3D0E0F0A3D0E0F0A3BC
:10233300E520F0A3E5F0F0A322851983851882E058
:10234300C0E0A3E0F9A3E0FAA3E0FBA37808E0F67A
:1023530008A3DFFAE0FCA3E0FDA3E0FEA3E0FFA3F4
:10236300E0C0E0A3E0C0E0A3E0F5D0A3E0F520A344
:10237300E0A3F5F010AF08858319858218800885DE
:102383008319858218D2AFD082D083D0E0F8D0E011
:102393003274048006740280027401C0E0F40412F3
:1023A300215ED0E012203422740480047402800081
:1023B300CCC0E0EDC0E0E518C39CCCAD1950011DC5
:1023C30010AF068C188D1980068C188D19D2AF1298
:1023D3002041D0E0FDD0E0FC22D083D082E9C0E0F0
:1023E300E493A3C386F0C5F095F0F908E493A386BC
:1023F300F0C5F095F0700BE493A3C3994005E9048D
:102403008002A3E475F002A42582F582E5F035830A
:10241300F583D0E0F9E493A3C0E0E493C0E022D0D5
:1024230083D082ECC0E0EDC0E0E493A3FCE493A38B
:10243300FDED4C600D12246EEC24FFFCED34FFFD2A
:1024430080EFE493A3FCE493A3FDED4C600D122411
:10245300ADEC24FFFCED34FFFD80EFD0E0FDD0E0D8
:10246300FCE493A3C0E0E493C0E022C0E0C3E493A0
:1024730096087401939618400FE4936670080874E5
:102483000193661870007019A3A3C3E493960874AC
:1024930001939618A3A3400DD0E0D0E0D0E002242E
:1024A3005EA3A3A3A3A3A3D0E022C0E0C0F088F05F
:1024B300E4936670080874019366187000A8F0A38B
:1024C300A3700BD0F0D0E0D0E0D0E002245EA3A351
:1024D300D0F0D0E02274F51221F1EAFEEBFFEE24F6
:1024E30034F8EF3400F988088909EE2435122610F0
:1024F300F8EE2437122610F50AEC850AF0A4FCAA9C
:10250300F0850AF0EDA42AFDE82CF8E43DF97A25DC
:102513007B001220A3EA850882850983F05407F81B
:102523007401B800028004C333D8FCC0E0E0131385
:1025330013541FF8EE28F8EF3400F9E8245DF58210
:10254300E93400F583D0E0F8E05860088508828517
:102553000983801DEE2436122610F5F0EA84A8F0D4
:10256300EE28F8EF3400F9E82438F582E93400F571
:1025730083E0F97F0402229D74F51221F1EAFEEB58
:10258300FFEE2434122610C0E0EE2435F582EF343A
:1025930000F583D0E0F08E828F83A3A3A3A3A3E0EF
:1025A300FAA3E0FB8E828F83A3A3A3A3A3A3A3E039
:1025B300FCA3E0FDECC39AF50AED9BF50BEE24803A
:1025C300F508EF3400F509850882F583E0640170AE
:1025D3002BEE2481F582EF3400F5831223AF12260C
:1025E300197402122144E960137CFD7D04EEFAEFB5
:1025F300FB120CE6850882850983E4F0AC0AAD0B77
:10260300EEFAEFFB1224D8122B6C022576F582EF3B
:102613003400F583E022C082C08385188285198344
:10262300E0F8A3E0F9C3EA9CEB9D5012C3EC98EDEC
:10263300994019C3EA98EB99501279018010C3EAC3
:1026430098EB9940F5C3EC98ED9950EE7900D0835F
:10265300D08222EAC39CFAEB9DFB220000852187EE
:102663008522C622C0E074EF1222DD759B009061C3
:1026730082E0A2E64003022728E591A2E640030296
:1026830027287591BF9003C2E064057008120E8479
:10269300120E908003120E8A752100120EF6E99035
:1026A30003C3F07900120EEA120C507A017B0090FA
:1026B30003C1E0F91211C0907803E06442600302A1
:1026C300277190055FE014F06003022771C2AF1217
:1026D30026D500782AD0E0F618D0E0F6E59F540717
:1026E300F9700590935480039093587808121FFE55
:1026F300E9C4C0E07829E65508F50808E65509F568
:1027030009740B780812210CD0E02508F890627048
:10271300E0A2E740F8E8C333906272F0906270E0A1
:10272300D2E0F08049E0A2E55024E591A2E5501EF5
:102733007591DF9003C2E0640D70139003E4E0042D
:10274300F064287002E4F07A00E0F9120F689061F7
:1027530081E0A2E35009E5E9A2E3500375E9F7A399
:10276300E0A2E75009E591A2E7500375917F7F044A
:1027730002233CC0E0C0D0C082C083906183E0A24A
:10278300E05009E5BFA2E0500375BFFEE0A2E150AF
:1027930009E5BFA2E1500375BFFDE0A2E25009E5E0
:1027A300BFA2E2500375BFFBE0A2E35009E5BFA25D
:1027B300E3500375BFF7E0A2E45009E5BFA2E4507C
:1027C3000375BFEFE0A2E55009E5BFA2E55003752D
:1027D300BFDFE0A2E65009E5BFA2E6500375BFBF25
:1027E300D083D082D0D0D0E032C0E074F21222DDA8
:1027F300E5A7A2E4500FE5A1A2E4500953A7EF75A2
:10280300A1EF122840E5A7A2E5500CE5A1A2E550EF
:102813000653A7DF75A1DFE5A7A2E15009E5A1A251
:10282300E1500375A1FDE5A7A2E2500CE5A1A2E2E8
:10283300500653A7FB75A1FB7F0102233C74F812DA
:1028430021F17521019003C2E0640670077A007BD1
:1028530000120E6CA2AFE433FED2AF9003C8E06463
:102863000170187A207B009003C1E0F91212447AB8
:10287300207B009003C1E0F91211C6906182E0D27F
:10288300E6F090055EE0602185C62280169003C7BE
:10289300E064017008E5C654F84405F5C653BEFC70
:1028A3001226607401652160E4EEA2E092AF7F011D
:1028B30002229D00008E238F24858228858327850D
:1028C3001882851983E0CEA3E0CF852882852783EC
:1028D300EBC9EAC8EDCBECCA75F010C3E833C8E91D
:1028E30033C9EA33CAEB33CBC3EA9EF526EB9FF534
:1028F30025B35004AB25AA26EC33CCED33CDD5F06C
:10290300DAAE23AF242274F11221F18A088B098CE9
:102913000A8D0B740F122179780C121FFE909338D5
:102923007808121FC5909338780C121FC578087960
:102933000C1215B550157808790C121F9D909378D9
:1029430078081215D5401579018013780C7908128F
:102953001F9D909378780C1215D540EB79007F0872
:1029630002229D74ED1221F18A088B098C0A8D0BCA
:102973007413122179780C121FFE90933878081281
:102983001FC5909338780C121FC5780C790812155F
:10299300B540117808790C121F9DAA08AB09AC0A3F
:1029A300AD0B8022751000751100751200751301AF
:1029B3007810790C121F9D78107908121F64AA10E1
:1029C300AB11AC12AD137F0C02229D9093387808A3
:1029D300121FFE8A828B837808121FD87F0402227B
:1029E3009D74F51221F18C828D837808121FFE8A63
:1029F300828B837808121FB1122A38C3E098F0A3A0
:102A0300E099122A2A401E90934C7808121FFE8ADE
:102A1300828B837808121F8A8E828F83E02420F0B2
:102A2300A3E0344EF080A4F08E828F83C3E0942021
:102A3300A3E0944E22EA2404F8EB3400F9E8FEE91B
:102A4300FF8C828D83A3A3A3A3E0F8A3E0F98E8276
:102A53008F832274F51221F1E9FE900514E0FAA3A5
:102A6300E0FBEEC333F8E433F9747C28F582749108
:102A730039F583E02AF508A3E03BF509780812232A
:102A83009890938012201C1228B874021221448A51
:102A9300088B098C0A8D0B74107808121F2CAA0856
:102AA300AB097F0402229D74F11221F18A0C8B0D74
:102AB3008C0E8D0F740F122179E0FAA3E0FB7411D1
:102AC300122179E0F508A3E0F5097413122179E0E6
:102AD300FEA3E0FF7808122398EA2401F508EB34FB
:102AE30000F509E4F50AF50B780C7908121DC0907E
:102AF300937C7808121FFE780C7908121DC0AA0C6B
:102B0300AB0DAC0EAD0F1228B874021221448B0921
:102B1300EA450960047A0180027A00EC2AFCED346C
:102B230000FDECF8EDF97A717B021220A388088985
:102B330009E4F50AF50B8E828F83780812200DECD9
:102B4300F8EDF97A717B021220A38A088B097405C8
:102B5300780812211B8E828F83A3A3A3A3E508F019
:102B6300A3E509F07F0802229DC082C083E990603B
:102B730000F0D083D08222C0E074F21222DDA2AF33
:102B8300E433FED2AFE589A2E150031213B875898D
:102B930000C2C5EEA2E092AF7F0102233CC0E07405
:102BA300F21222DDA2AFE433FED2AFE58BA2E050F6
:102BB300031213B8758B00C2E880D8C0E0C0D0E818
:102BC300C0E0E5A8D2AFC2C7A2E792AFD0E0F8D089
:102BD300D0D0E032C0E074EA1222DDE5AFF509900F
:102BE3000933E02401F0A3E03400F0750800800409
:102BF300E5087009E509A2E1402D022E0D74016577
:102C0300087006E509A2E280EF740265087006E524
:102C130009A2E380E3740365086003022E0DE5094E
:102C2300A2E44003022E0DE508C333F8E433F9743C
:102C33001B28FA740939FB8A828B83E0F50AA3E027
:102C4300F50B742328F582740939F583E0FCA3E0BE
:102C5300FDE50A6C7003E50B6D7003022CFF742B0A
:102C630028FE740939FF8E828F83E0F50EA3E0F509
:102C73000FE50E2401F50CE50F3400F50D8E828F60
:102C830083E50CF0A3E50DF074D628F582740B39B7
:102C9300F583E0F50CA3E0F50DC3E50E950CE50F08
:102CA300950D40588E828F83E4F0A3F074CE28F5FF
:102CB30082740B39F583122E32EC28FEED39FFC3F3
:102CC300EE950AEF950B8A828B83501FC3E098F031
:102CD300A3E099F08A828B83C3E09CA3E09D501C00
:102CE3008A828B83ECF0A3EDF08011E028F0A3E05F
:102CF30039F0122E2EC3EC98ED9940E4122E2E904B
:102D03000BCCE0687003A3E0697039E508700853E1
:102D1300F4FDC291022E0D74016508700853F4FE90
:102D2300C290022E0D74026508700853F37FC287A8
:102D3300022E0D740365086003022E0D53F3BFC208
:102D430086022E0DE8497039E508700853F4FDD268
:102D530091022E0D74016508700853F4FED290029F
:102D63002E0D74026508700853F37FD287022E0D6F
:102D7300740365086003022E0D53F3BFD286022E3F
:102D83000DE5087014122E231220A3E8F5DD122E90
:102D9300231220A3EAF5DC80717401650870269084
:102DA300091DE0FCA3E0FDECF8EDF97AFF7B0012CE
:102DB30020A3E8F5DFECF8EDF97AFF7B001220A3FE
:102DC300EAF5DE804574026508701D90091F122E16
:102DD300261220A3E89062ADF090091F122E26124E
:102DE30020A3EA9062AC802174036508701C9009EB
:102DF30021122E261220A3E89062AFF0900921122F
:102E03002E261220A3EA9062AEF00508E508C394CB
:102E1300045003022BF3E509F4F5AF7F0902233CC9
:102E230090091B122E327AFF7B00228A828B83E069
:102E3300F8A3E0F922FFFFFFFFFFFFFFFFC082C0FF
:102E430083E9900A79F00230C474F7122185E9907E
:102E530002E0F07C187D037AFF7BFF120974900275
:102E6300E174FFF0A3F0A3E4F0A3F079051208FCEA
:102E73009002E0E0F91208247A927B09120B4E02C9
:102E83003DD274F41221858A088B09EB548060309B
:102E93009002E0E0F91211A88A0A8B0BAE0AAF0B7D
:102EA300EE4F60138E828F83E064B07003120914B7
:102EB300EEFAEFFB121196AA08E5096480FB800481
:102EC3007A007B0002309374F212218574FC122184
:102ED3002EEAFEEBFF74121221791242B9EE4F7003
:102EE30003022F6D7402122179EEF0A3EF1232CE9A
:102EF300ECF0A3ED1232CEAA82AB8312081EE9F5E1
:102F03000A706AE508450960648E828F8312429FC6
:102F1300EE4F60567A067B001211FC8A0C8B0DA8CB
:102F23000CA90DE8497005750A13804188828983CD
:102F3300E4122F7AEEF0A3EF1242CAE508F0A3E5FC
:102F430009F09002E61230019002E67005123D7C12
:102F5300801B123D6A8003EAFCEBFD8C828D831299
:102F6300300170F38C828D8380E3750A02A90A74A1
:102F7300041221440244B9F0A3124270A32274F252
:102F8300122185890AE975F017A4FEAFF09002E5D6
:102F9300E4F09002E3123001600A1212029002E39D
:102FA300E4F0A3F0EEFAEFFB1211FC8A088B09EAB6
:102FB3004509602FEEFCEFFD790012117E9002E3CC
:102FC300E508F0A3E509F07B008008122FEBE4F09D
:102FD300A3F00BEBC3950A40F2E50A9002E5F07902
:102FE30000800279130244B9EB75F017A4F8A9F035
:102FF3009002E3E028FAA3E0398A82F58322123AA9
:103003000EEA4B2274F4122185740C1221791242B8
:1030130094FEE9FF750800750900800CE50824019A
:10302300F508E5093400F509C3E5089CE5099D5059
:103033003285080A85090B7403780A12211BEA25D5
:103043000AF8EB350BF988828983A3A3A3A3A3A36F
:10305300123E51EE650A7003EF650B70BFE8FAE9A3
:10306300FB80047A007B00802774F41221857900A9
:10307300EAA2E0501B750808750993780812239893
:103083007C047D007A7B7B0A1208F67402122144C9
:103093007F04022257C082C0839002E61230CB60C5
:1030A3001C88828983A3A3E06A7003A3E06B8882F0
:1030B300898370E8A3A3A3A3123A0A80047A007B4E
:1030C30000D083D08202012212459FE8492274EE88
:1030D30012218574FC12212EEAFEEBFF85188285EE
:1030E3001983E4F0A3F0EE2402123D5CEE240512F2
:1030F3004277EE2404F50EEF123683E024FE6039A6
:1031030024FC604624FE605224FE605E24FE7003AD
:103113000231E424FE700302324824FE70030232BB
:103123005724FE700302326624FC700302327524B6
:10313300FE70030232840232C19002FF7417F0A3BF
:10314300E41232D612059C0232C185188285198396
:10315300AC82AD8312091A023291851882851983D4
:10316300AC82AD83120920023291850C08850D09CA
:103173007402122179AC82AD83850882850983129A
:103183003A0A1208428A0C8B0DAC0CAD0DEC4D6063
:103193003BE4F50CF50D780C122398750CFF750DB7
:1031A30002780C122398750C00750D03780C12230A
:1031B3009874081221791223AF12471B122144E994
:1031C300F50C700B123A001205B4800F750C0185D3
:1031D30008828509831232C4123D7C850C080232B1
:1031E300947402122179AC82AD83850C82850D83A0
:1031F3001237D5603C850C82850D83A3A31223AFC0
:103203007510FF751102781012239875100075114F
:1032130003781012239874081221791223AF1247EE
:103223001B122144E9F509700B123A001205BA800A
:103233000F750901850C82850D831232C4123D7C02
:10324300850908804C851882851983AC82AD831269
:103253000926803A851882851983AC82AD831209C9
:103263002C802B851882851983AC82AD8312093299
:10327300801C851882851983AC82AD83120938803E
:103283000D851882851983AC82AD8312093EE9F559
:1032930008E50860298E828F83A3E06414601F858C
:1032A3000E82850F83E09002FF1232CE12459B906F
:1032B3000300123D7CE508A31232D6120596023CA8
:1032C3006B12459F85188285198322F085188285A4
:1032D300198322F07CFF7D02850A82850B83123AD3
:1032E3000E2274EE12218574FC12212E8A0A8B0B96
:1032F3008C0E8D0FEA2405F508EB3400F5097C15D7
:103303007D0079007AFF7B0212117EE5082402F525
:103313000CE50912427A8518828519838582108506
:1033230083117810122398850882850983A3A3A3A8
:10333300A31237CC122398E5082405F510E50934C8
:1033430000F5117810122398850C82850D83123BAA
:103353002112083C74061221448A108B11AE10AF5F
:1033630011E50A2402F50AE50B123D5FEE4F7003E7
:103373000234A380177402122179123A0A888289CF
:1033830083EAF0A3EBF09002FFE004F09002FFE089
:10339300C3940540030234A3E4F510F51178101229
:1033A30023987510E875110278101223987510E9A7
:1033B300751102781012239874061221791223AF23
:1033C3007910EEFCEFFD12471D122144E9705E8572
:1033D3000882850983A3A3A3A3A3A3A3E0F8900270
:1033E300E8E06870481237CC1223987CE97D02E547
:1033F300082408FAE5093400FB121178740212213B
:1034030044E960298E828F83A3A3A3A3123A0A906F
:1034130002FFE0F5107402781012211B74002510CE
:10342300F58274033511F583EAF0A3EBF07402120D
:1034330021798582108583117810122398740212E2
:1034430021791223AF850C82850D83123A30122124
:10345300448A108B11AE10AF119002FFE0F5107586
:1034630011007402781012211B74FF2510F87402E6
:103473003511F988828983A3123001700302336FF7
:10348300E82403080808E93400F9EE4F6003023327
:10349300788882898374FFF0A3F09002FFE004F040
:1034A3009002FFE0600A123A001205A87900800B2F
:1034B300850882850983123D73790A023C6B74EA9D
:1034C30012218574FE12212E8C128D13EA2405F528
:1034D3000CEB1247051242A3750800750900EA2494
:1034E30002F510EB3400F511851882851983858266
:1034F3000A85830B780A122398850C82850D83A392
:10350300A3A3A3123699122398E50C2405F50AE523
:103513000D123D5F780A122398850C82850D831264
:10352300369D12083C74061221448A0A8B0BEA4525
:103533000B700302363EEA2404F50EEB12368312B7
:1035430042A38A828B83A3A3A3E0F985108285110A
:1035530083123A14600302363EE4F514F515781429
:103563001223987514E875150278141223987514AC
:10357300E97515027814122398740612217912231F
:10358300AF7913AC0AAD0B851082851183124723E3
:10359300122144E9F509600302363E9002E8E0F89F
:1035A300E5087009E02402900300F0801490030002
:1035B300E0FCE82402FAE43400FBEA6C7001EB70EF
:1035C3007E850882AA821237C394141237BB506BCC
:1035D300850E82850F83E0C0E074012A12367AD00B
:1035E300E0F00508850E82850F83A3E0C0E085081F
:1035F3000A7401250A12367AD0E0F005089002E831
:103603001236991223987CE97D0285080A740125F4
:103613000A12368D1221449002E8E02508F5087459
:10362300FF6E700374FF6F6012EE24010EEF34001F
:10363300FFE508C3941450030234EBE5086013124A
:103643003A1E851082851183123A0A1205AE79005B
:103653008014E509700375090A851282851383EEC8
:10366300F0A3EFF0A90974021221447F0E0222573E
:1036730085080C7401250CF58274033400F583224C
:103683003400F50F850E82F58322FA74033400FBB0
:103693001211667402221242D922A3A31236A32264
:1036A300123D6AFDEEFAEFFB2274EE12218574FEE1
:1036B30012212E8C0E8D0FEA2405F50CEB12427AA3
:1036C300750B009002FFE4F0F50AEA2402F508EB1B
:1036D3003400F50980449002FFE0FA9002E8E0F834
:1036E3001237C394171237BB400D9002FFE0F874F2
:1036F30016C3989002E8F01237CC1223987CE97D28
:103703000274002AFA74031236901221449002E8DC
:10371300E0F89002FFE028F0050AE50C2416F58294
:10372300E50D12367EE0F8E50AC39850749002FF67
:10373300E0C39416506BE50AC333F8E433F9E50CA0
:1037430028FEE50D39FF851882851983AC82AD8388
:103753008E828F831237D57008750B01123D6F80EF
:1037630050E4F510F51178101223987510E87511CF
:103773000278101223987510E9751102781012233C
:103783009874061221791223AF7916850882850968
:1037930083124723122144E9F50B70030236D980C3
:1037A300BB7CFF7D02850882850983123A0A1205D4
:1037B300C0A90B7402023C6DE99400C365D03322A7
:1037C300EA28F8E43400F9E822E0F51075110078EE
:1037D3001022123C628A108B11AC10AD11EC4D22F9
:1037E30074EA12218574FC12212E8A0C8B0D8C1223
:1037F3008D13EA2405F50AEB123D5F750800750980
:1038030000E50A2402F510E50B3400F511740212E9
:10381300217985820E85830F780E122398850A827B
:10382300850B83A3A3A3A312427F122398E50A2443
:1038330005F50EE50B3400F50F780E12239885106D
:1038430082851183123D65123A0412083C740612F4
:1038530021448A0E8B0FAE0EAF0FE50C2402F50E3A
:10386300E50D3400F50F80388882898374FFF005F5
:103873000812367374FFF005089002E8E0F50C7542
:103883000D00780C1223987CE97D0285080C7401E5
:10389300250C12368D1221449002E8E02508F50824
:1038A300EE4F60278E828F83A3A3A3E0F9850E8258
:1038B300850F83123A14EE2404124277E9602785B8
:1038C3000C82850D831239F6123D7CE508700302E4
:1038D30039DC123A1E850E82850F83123A0A1205CD
:1038E300C679000239F1E4F514F51578141223981A
:1038F3007514E875150278141223987514E9751573
:1039030002781412239874081221791223AF7911C3
:10391300EEFCEFFD850E82850F83124723122144AF
:10392300E9F509709A850882AA82EA9002E870098B
:10393300E02404900300F08025E0F8900300E0F514
:1039430014E82404FCE43400FDEC65147001ED700C
:10395300811237C394121237BB40030238D5850C4A
:1039630082850D83E0C0E074012A12367AD0E0F03C
:103973000508850C82850D83A3E0C0E0123673D061
:10398300E0123A3985820C85830D780C12239874E2
:10399300041221791223AF851082851183123A30E4
:1039A3001221448A0C8B0DAE0CAF0D85080C7401EB
:1039B300250CF874033400F9EE4F700302386B855D
:1039C3001882851983E088828983123A39A3E0C07B
:1039D300E0123673D0E0023879E509700375090AFD
:1039E300850A82850B831239F6123D7CA90974047A
:1039F30002366B12459F851282851383227CFF7DDD
:103A030002850A82850B83123A0E22E0FAA3E0FBB9
:103A130022123A0E12082AE9F50922900300E0F572
:103A2300F0E508849002FFF07CFF7D02221236A3AA
:103A3300120848740422F005088518828519832228
:103A430074EC12218574FE12212E8A088B098C0EC8
:103A53008D0FEA2405FEEB3400FF123C4CEE2418D4
:103A6300124277EA450B7003023AEF123C355029B4
:103A7300123B148A108B11EA4511606B7912AC0A60
:103A8300AD0B850882850983123A0A851082851158
:103A930083122183E9F50A7058E4F50AF50B780AD5
:103AA3001223988E828F83A3A3E0F50A780A122348
:103AB30098EE2403123D5C780A1223988E828F833A
:103AC300123B211209627406122144E9F50A70219E
:103AD300850C82850D83E0701F850882850983121A
:103AE3003A0A1205CC8011750A0E8009750A018005
:103AF30004E50A6003123D6F850C82850D83E06047
:103B03000479008002A90A74021221447F0C022264
:103B130057851882851983123A0E12095022123DD5
:103B23006AFD850882850983123A0E2274EE1221FA
:103B33008574FE12212E8A088B098C0C8D0DEA24C4
:103B430005FEEB3400FF750E00123C4CEA450B708A
:103B530003023C13123C35502C123B148A0E8B0F7C
:103B6300EA450F604A7912AC0AAD0B8508828509D4
:103B730083123A0A850E82850F83122183E9F50E9B
:103B83006003023C16850882850983123E51AA0A06
:103B9300FB123C2770147AFF7BFF123C27606C8872
:103BA300828983E50AF0A3E50BF0750A00800775A7
:103BB3000E0E805F050A9002E5E0FAE50AC39A500B
:103BC3004AE50A75F017A4FAABF088828983A3A3A8
:103BD300E02AFAA3E03BFB8A828B83123D65EC4D1E
:103BE30070D2750A17750B00780A122398EEFCEF52
:103BF300FD1211667402122144EEFCEFFD8508826A
:103C0300850983123A0A1205D28014750E098003BE
:103C1300750E01124597850C82850D83123D7CA993
:103C23000E0237B61209448A108B11A810A911E8A5
:103C33004922E5082402F508E5093400F5098A82DA
:103C43008B83A3A3A3E0A2E522851882851983AC05
:103C530082AD838E828F83123C628A0A8B0B22E0B1
:103C6300FAA3E0FB1208422274041221447F0A02E1
:103C7300225774EC1221858C108D11EA2405F50C62
:103C8300EB12427A750F00EA2402F50AEB123D5F4C
:103C9300850A82F583123A0A1247A97003023D513D
:103CA300750E008071850C82850D83E06401704F71
:103CB3008E828F83A3A31223AF8E828F83A3A3A3AA
:103CC300A3E0F5127513007812122398EE2405F57C
:103CD30012EF3400F5137812122398123A041209E2
:103CE300627406122144E9F50F6014850C82850D78
:103CF30083E4F0124597851082851183123D7C7C05
:103D0300177D007900EEFAEFFB12117E8E828F830E
:103D1300E4F0A3F0050E9002E5E0F8E50EC3985039
:103D23001EE50E75F017A4F8A9F0850882850983AE
:103D3300A3A312470F123D65EC4D6003023CA88517
:103D4300088285098374FFF0A3F0E50F7006123A29
:103D5300041205D8A90F023B0FF50AEF3400F50B47
:103D630022A3123D6AFD22E0FCA3E0228E828F8310
:103D730012459F850E82850F83E8F0A3E9F022C0E8
:103D830082C0839002E1E06A7003A3E06B70067A5D
:103D9300E17B0280047A007B000230C474F71221B5
:103DA300857F00EF75F003A4F8A9F0EC28F8ED394E
:103DB300F988828983E06A7003A3E06B7006E8FAEE
:103DC300E9FB800B0FEFC3940240D87A007B007F9E
:103DD3000102225774F612218512438870067A0075
:103DE3007B008007A3A3A3A3123A0A02444974F2F7
:103DF300122185E9FE740E122179123E51741012BC
:103E030021791242B98C828D83E06402703BA31244
:103E1300459B88828983E0F50CA3E0F9A80C740222
:103E23006870037429697021750C02750D00780C94
:103E33001223987808122398780A122398EEF9121D
:103E430009867406122144800279010244B9E0F51F
:103E53000AA3E0F50B2274E812218574FB12212ECC
:103E6300E9851882851983F08A168B178C0E8D0FBE
:103E7300741F1221791242B97421122179123E5111
:103E830074231221791242A37510008C828D83A3AF
:103E9300A3A3E0A2E4502A741D122179123B1A8ACB
:103EA300828B83E58245837003023F65790AAC0EFA
:103EB300AD0FAA16AB17122183E9F5106003023F79
:103EC30068850E82850F83E06402600302421EA3AD
:103ED30012459B850882850983A3858212858313F6
:103EE300E50E2406F50CE50F12427A88828983E0F9
:103EF300FAA3E0F9EA2400F514E439F5157814126D
:103F030024220100002801282D3F07000228044035
:103F13000328743F00292E41012956410229FD40FF
:103F230003292E410429BF411E42EE4F703E850CEA
:103F330082850D83124294FAE9FB8A828B83E085A2
:103F43000A82850B831242D01223988A828B83A321
:103F5300123D6AFDAA08AB091211667402122144CC
:103F6300800375100EA91074050246FD75100B80B1
:103F7300F4EE4F70F7850A82850B837401F01242C9
:103F8300A9850882850983F07C007D00850E8285E2
:103F93000F83A3A3A3A3E02401FAA3E03400FB123D
:103FA3000842EA4B60418A828B83E02402F8850A47
:103FB30082850B83E028F0EA2404F8EB3400F988C7
:103FC300828983E08512828513831242E21242D0F2
:103FD3001223988A828B83123D64E5082403FAE551
:103FE300093400FB023F5B850A82850B83E02404CE
:103FF300F07C047D007900AA12AB1312117E023FFC
:1040030068EE4F6003023F6F1242A9FEA3E0FF85F3
:104013000A82850B837404F0EE850882850983F098
:10402300EF851282851383F07403122179AC82AD7C
:1040330083EEFAEFFB12437670030240DA8A828B37
:1040430083A3A312429F740112217985820E858373
:104053000F780E12239874051221791223AF7CFF77
:104063007DFF12084874041221448B0FEA450F7038
:1040730033850C82850D8312427F122398850C822F
:10408300850D83A31223AF7C027D007AE57B931217
:1040930006747404122144E9700A740112217974BC
:1040A300FFF0A3F08E828F83E064027034750C02FC
:1040B300750D00780C1223988E828F83123D64E570
:1040C300082404FAE509123690122144850A8285F0
:1040D3000B83E0240280097401122179EEF0A3EF2F
:1040E300F07401122179124290F07401122179A324
:1040F300124288A3A3A3F0023F68EE4F6003023F7E
:104103006F850C82850D83123D65AA16AB171209C4
:104113007A850A82850B837402F0EA850882850911
:1041230083F0851282851383EB80CBEE4F6003020D
:104133003F6F1242A9F8A3E0F9850A82850B8374C5
:1041430002F0E8850882850983F0E98512828513E8
:104153008380A3850C82850D83123A0A121160EACB
:10416300FC8C82A882C39EE49F404BE86E7001EFF3
:1041730070047C00801F851882851983E0FAEE2A7B
:10418300FAEF3400FBC3EA98EB94005003E0800499
:10419300EECCC39CFCEC850A82850B83F08C0A75FC
:1041A3000B00780A122398850C82850D83E02EFC80
:1041B300A3E03F023F56751007023F68EE4F6003CE
:1041C300023F6F850C82850D8312459B850A82858C
:1041D3000B837407F088828983124288124270E04D
:1041E300851282851383F0E82402FAE93400FB8AFE
:1041F300828B831242881242C1124290A31242CA96
:10420300124299F0E82405F8E93400F98882898399
:10421300124299A31242E2A30240F6741D122179BD
:104223001243817003023F6512459B880C890DE898
:10423300450D7003023F658E108F1178101223987D
:10424300780A12239878081223987406122179E0C9
:10425300F9AC0EAD0FAA16AB17850C82850D831230
:1042630021837406122144E9F510023F68F0888225
:104273008983A322F50CEF3400F50D22E0F50E75CA
:104283000F00780E22E0850882850983221242E915
:104293002212459FE8221242E9A3A322A3A3A3A3C8
:1042A300E0FEA3E0FF22850C82850D83E0F8A3E006
:1042B300F5838882E022E0F508A3E0F50922A3A3B1
:1042C300F08A828B83A322122F7CA3A322F08A82FB
:1042D3008B831242D922E0F50A750B00780A221269
:1042E30042701242E922E0850882850983A3A32252
:1042F30074EE12218574FE12212E8A0A8B0BECFABE
:10430300EDFB7414122179E0F510A3E0F511741696
:10431300122179E0FE7418122179E0F50EA3E0F57D
:104323000F851882851983AC82AD83124376603E74
:10433300851882851983124381602FA3A31242B982
:10434300E50845096024780E122398781012239803
:10435300EEF9AC0CAD0DAA0AAB0B85088285098377
:1043630012218374041221448006790E800279019C
:104373000237B61208428A0C8B0DEA450D22123A17
:104383000E1243882212090E8A828B83E5824583AB
:104393002274F612218574FE12212E740C122179D7
:1043A300124294851882851983F07401122179E9E8
:1043B300F0E4F508F50978081223987508027808DF
:1043C3001223987404122179858208858309780859
:1043D30012239812096274061221447402122144B2
:1043E300806474F7122185EAFEEBFF89087C187D4F
:1043F3000312097AEA5402600BA908EEFAEFFB12E2
:10440300083680027901023DD274F612218574FFC9
:104413006A700374FF6B701C7B00EB75F003A4F8E8
:10442300A9F0EC28F8ED39F912444E0BEBC39402D2
:10443300501480E612094A8A088B09A808A909E8DA
:1044430049600312444E7F02022257888289837493
:10445300FF122F7AE4F02274F612218512094A8A98
:10446300828B83E58245836006A3A3E0FA80027A08
:10447300007B0080D174F21221858A088B09ECFE3F
:10448300EDFF740E122179E0F50A1244BE701CEEA2
:10449300FCEFFD7AFF7BFF1244BE70047911801696
:1044A30088828983E508F0A3E509F088828983A3DC
:1044B300A3E50AF079007F0602225712094A8A0C03
:1044C3008B0DA80CA90DE8492274EE122185EAFE92
:1044D300EBFF8C088D09890C741212217912459B0C
:1044E3007414122179123D657416122179123A0A55
:1044F300750D00EC4D600302458F7402650C60037B
:1045030002458A88828983123D6AF9EC2400F50EFC
:10451300E439F50FEAF4F8EBF4F9EC58F8E50F5940
:10452300F9E849705DE5082406F8E5093400F988DF
:104533000A890B8882F58312369F12097A8A108BB7
:1045430011E50E65107004E50F65116042780E12D7
:104553002398850A82850B8312369F120980740281
:10456300122144E9F50D7027780E122398850882ED
:10457300850983A3A312369D12099874021221445C
:10458300800D750D808008750D0D8003750D0BA9C9
:104593000D023C708E828F8312459F22E0F8A3E0C8
:1045A300F92274E812218574E712212E8518828579
:1045B3001983EAF0A3EBF08C168D17890E74311270
:1045C3002179E0F512A3E0F5137433122179E0F5B4
:1045D30014A3E0F5157435122179E0F50F75080081
:1045E300750900E50975F003A4F8A9F0851882851B
:1045F300198312470FE0F47003A3E0F4700302463B
:10460300EDEE2402F50CEF124705E070030246EDD0
:1046130085160A85170B780A122398AC14AD15AAD0
:1046230012AB1312090274021221448A0A8B0BEA99
:10463300450B70030246EDE4F510F51178101223D3
:1046430098740612217985821085831178101223BC
:1046530098740912217985821085831178101223A9
:1046630098851282851383A3A3A3A31223AF79147E
:10467300AC0AAD0B8E828F83124723122144E9705B
:1046830069850A82850B83A3A3A3A312459B7402A6
:10469300122179123D7C850C82850D83E0A2E050C6
:1046A30018A90E7402122179AC82AD838E828F8396
:1046B300123A0A12085AE94208850C82850D83E0F2
:1046C300A2E15026E50FF50A780A12239CA90E747D
:1046D30003122179AC82AD838E828F83123A0A1240
:1046E30008547401122144E942080509E509C394F9
:1046F3000250030245E6A90874191221447F1002EF
:1047030022573400F50D850C82F58322E028FEA3A1
:10471300E039FF8E828F83227916850A82850B8387
:10472300123A0E12095C74082274F2122185EAFE11
:10473300EBFF890B7401650B600E7402650B7063EC
:104743007901120B6CE9705BEEFAEFFB1247A9607B
:1047530047750A00800B7C177D00790012117E05D6
:104763000A9002E5E0F8E50AC3985021E50A75F0DE
:1047730017A4F8A9F0850882850983A3A3E028FA82
:10478300A3E039FB8A828B831230CB70C985088200
:1047930085098374FFF0A3F07C187D03EEFAEFFB29
:1047A3001209740244B91209448A088B09EA4509BB
:1047B3002274F21221858A088B09ECFEEDFF740E38
:1047C300122179123E51900A79E0F4603D7A097B17
:1047D30000121190EA4B60328A828B8374B1F0A38A
:1047E300E41242C3A31242C1A3E508F0A3E50912F0
:1047F3004810EEF0A3EF124810A3A3E50AF0A3E5D7
:104803000BF0900A79E0F912119C0244B9F08A8204
:104813008B83A3A3A3A3A32274F4122185E9FF7EB0
:10482300008A088B0978081223DC00040DCC494E5A
:10483300486A487F489448A948BE48DA48F348057F
:10484300493349554971498D49AB4974016F701218
:104853008C828D83E0C394035008E0900B96F002A2
:1048630049EA7E180249EA74026F70F68C828D83DE
:10487300125128900B97E8F0A3E980E274016F705E
:10488300E18C828D83E0C3940250D7E090078F8040
:10489300CD74016F70CC8C828D83E0C3940550C2BC
:1048A300E090079080B874016F70B78C828D83E0BD
:1048B300C3940250ADE090079180A374106F70A26F
:1048C3007508108E0978081223987A927B07125480
:1048D300EC1221440249EA74016F70868C828D8345
:1048E300E0C394024003024865E09007A2024861D6
:1048F30074016F60030248658C828D83E0900B9A8C
:10490300808D74046F600302486590938078081269
:104913001FFE8D838C8278081215C54003024865FB
:104923008C828D8312201C9007A41220280249EA4E
:10493300EF60030248651207E2E9700E12131C7957
:10494300501214A21213100249EA9008377401029C
:10495300486174016F60030248658C828D83E0C3F4
:1049630094024003024865E09007A3024861740182
:104973006F60030248658C828D83E0C3940A400311
:10498300024865E0900B9902486174016F6003026D
:1049930048658C828D83E024F9C3940A400302485E
:1049A30065E0900B9B02486174016F6003024865E8
:1049B300900836E0F88C828D83E0900836F0E8703A
:1049C30026E064017021024947C3EA9426EB940070
:1049D300501374026F700E8C828D83125122120653
:1049E30080E9FE80020E0EEEF90249F4740E1221E4
:1049F300447F0402225774F012218574CC12212EB5
:104A03008C0A8D0B7444122179E0FE7420122179F3
:104A1300AC82AD8375839375820274061220417450
:104A230020122179AC82AD831212C2E9F508C39436
:104A33000A4003024B5D75F006E9A4F509742612DA
:104A43002179AC82AD837A0E742025091255A470A6
:104A5300097432122179E0FF80027F00900B96E007
:104A63006402700474018001E4F50D780D12239C37
:104A7300EEFDEFFCA908AA0AAB0B12134674011250
:104A830021447C147D007900740C122179AA82AB35
:104A93008312117E740C122179AC82AD837A107467
:104AA3002425091255A470377C1079FF740C122148
:104AB300791252D17029741C122179AC82AD837A98
:104AC3000474252509F912149C740C122179AC8203
:104AD300AD83EFA2E0E433F9AA0AAB0B12070A8510
:104AE3001882851983AC82AD837A0C747025081201
:104AF30055A47055851882851983AA82AB83121237
:104B0300F2750800E50875F003A4F8A9F08518828A
:104B1300851983E58228F8E58312530D125122EC9F
:104B23004D601D88828983A3A3E0F50E750F00787D
:104B33000E122398AA0AAB0B1209687402122144BD
:104B43000508E508C3940440BBEFA2E1500C9007AD
:104B53008EE0F9AA0AAB0B12096E74046E702A90E8
:104B63000B96E0640270229007A2E060047A018051
:104B7300027A0090078FE06004780480027800E8EE
:104B83004AF9AA0AAB0B1207CA79007434122144FA
:104B93007F0802225774F0122185EAFEEBFF8C088E
:104BA3008D09750A0AE9600C14600914602E1460FB
:104BB3007F024C3E121304E9F50AC3940A507CE5C4
:104BC3000845096076750E06750F00780E12239856
:104BD300EEFCEFFD1254E8122144805F750B007563
:104BE3000E06750F00780E122398EEFCEFFDE50B11
:104BF30075F00EA4F8A9F074B028FA740739FB1203
:104C030011787402122144E9601B850B0AE50AC37B
:104C1300940A5027E50845096021AA08AB09A90AA7
:104C23001212FE8016050BE50BC3940A500D80AFDC
:104C330012130AE9F50AC3940A40D9A90A024B934D
:104C430074F4122185890875091574FF6A70037459
:104C5300FF6B70277E00AC087A027B00EEF912121C
:104C6300E0E960037509000EEEC3940A40E8E50825
:104C730060497A347B13120B7E8040120B608A0AE0
:104C83008B0BAE0AAF0BEE4F602E7C007D00EE2443
:104C930005FAEF3400FB8E828F83124D3A500CAC31
:104CA300087A027B001212E0750900E508600CEE39
:104CB300FAEFFB1213348003750914A9090249F4AE
:104CC30074F2122185ECFEEDFF740E12217912515C
:104CD3001575081574FF6A700374FF6B70217509ED
:104CE30000AC0AAD0BEEFAEFFBA9091212E6E9607C
:104CF300037508000509E509C3940A503580E212DB
:104D03000B608A828B83E582458360237C007D0070
:104D1300E5822405FAE5833400FB124D3A5013ACC7
:104D23000AAD0BEEFAEFFB1212E67508008003756D
:104D33000814A908025B13A3A3A3A3E0F91212C2E8
:104D4300E9C3940A22C082C0839007A8EAF0A3EBC8
:104D5300F090078EE0FC7D007A257B0012068090A0
:104D6300078EE0F91208E4D083D08202012274EAAC
:104D730012218574EC12212EEAFEEBFFEE240CF5D2
:104D830014EF3400F515EE240AF510EF3400F51195
:104D9300EE2405F50EEF3400F50FEE2409F50AEFC6
:104DA3003400F50BEE2403F508EF3400F5098E8289
:104DB3008F83A3A3E024FA70030250DE24FD700363
:104DC30002500D147003024E5C14601024FD700336
:104DD300024FDE1470030250420250FC1251416034
:104DE3004AE0F5838882125128880C890DE8450D25
:104DF3006039851482851583E0F50E780E12239CA5
:104E0300EE240BF582EF3400F583E0F9850A828501
:104E13000B831251220A0A0AAB09850C82850D8382
:104E230012218374011221440250FC850A82850BEE
:104E3300831223AF9007A412201C12071C740212C2
:104E43002144E970030250FC7901850A82850B83B2
:104E53001259381207160250FC8E828F83A3858263
:104E630012858313E06003024FB7850E82850F839B
:104E7300E0A2E04003024FB77C0E7D007900851865
:104E830082851983AA82AB8312117EEE2408F50A68
:104E9300EF3400F50B850A82F583125144601975CE
:104EA3000C06750D00780C122398850A82850B83F6
:104EB300E02410FCA3E0801A125106EA4B700302AF
:104EC30050FC750C06750D00780C122398EA240526
:104ED300FCEB3400FD7402122179AA82AB831254D5
:104EE300EC122144850E82850F83E0A2E25004D2A6
:104EF300F08002C2F0A2F0E433F8740C122179E0DE
:104F030048F0851082851183125144601585108203
:104F1300851183E02410F8A3E03400F988828983A3
:104F2300800390934C780C121FFE851082851183A9
:104F3300125144600F851082851183E0F510A3E0C0
:104F4300F5118006751000751100850A82850B83A3
:104F5300125144600B850A82850B8312511580061A
:104F6300750A00750B00780C12239478101223989D
:104F7300780A1223988514828515831223AF8E82B3
:104F83008F83A312511D740A122179AA82AB831253
:104F930012F8740A12214485088285098312512864
:104FA300900838E8F0A3E9F07A017B0090078EE0DF
:104FB300F91211C012514170030250FC12512E70AC
:104FC300030250FC851282851383E0FC7901125998
:104FD300328E828F831221830250FC12514170035F
:104FE3000250FCE0F5838882A3A3125128890BE8C1
:104FF300450B70030250FC8E828F83A3E0FC790281
:105003001259328882850B8380CB7C007D00EE248D
:1050130004FAEF3400FB850882850983E0F9121254
:10502300C2E9F8C3940A40030250FCAC10AD117AF4
:105033000475F006E8A42425F91214960250FC9096
:1050430007A3E0600E900B99E0F985088285098338
:10505300024E53900B96E07004790580ED125106D1
:105063008A0C8B0DA80CA90DE82404F50CE9340077
:10507300F50D8E828F83A3A3A3A3A3A3A3E0A2E032
:105083005036E8496073850C82850D83E0FE602805
:10509300850A82850B83E05410701D740E122179EA
:1050A300AC82AD83E82405FAE93400FBEEF9121271
:1050B300C2E9700479038092AC0EAD0F850C828532
:1050C3000D83E0F9125932121340125141602A1232
:1050D300512E60257C007900024FD11207E2E9705E
:1050E30018900837E06401700812131C900837E425
:1050F300F079501214A212131074141221447F0E6B
:10510300022257850882850983E0FAA3E0FB120B8C
:105113006022E0F50AA3E0F50B22A3A3A3A3A3E077
:10512300FCA3E0FD22E0F8A3E0F922E0F583888206
:10513300A3A3E0F8A3E0F9E8FEE9FFEE4F2290070E
:10514300A8E0F8A3E0F9E8492274F412218574F287
:1051530012212EEAFE8C0B75F006E9A42420F50833
:10516300851882851983AC82AD837A0E1255A4709B
:105173004A7C061252C97043740C122179125128C9
:10518300E8F509E50B6005EE42098004EEF45209E7
:10519300850982AA82E86A7001E9601B740C1221F6
:1051A30079EAF0A3E4F0851882851983AC82AD8394
:1051B3007A0EA9081214967901800279000249EF48
:1051C30074F212218574E612212E890A8A088B094A
:1051D300ECFEEDFF740C1221791255976003025215
:1051E3007D7C0679FF740C1221791252D16003027F
:1051F300527D7470250AF50B851882851983AC825C
:10520300AD837A0C1255A460030252C285188285BD
:105213001983AA82AB831212F2E508450970217C37
:105223000C79001252CB60030252C27C0C7D0079D0
:1052330000851882851983AA82AB8312117E80614F
:10524300851882851983AC82AD83AA08AB09121233
:10525300EC8A0C8B0DA80CA90DE849702CEE4F605D
:1052630019851882851983AC82AD837A007B00127D
:1052730012ECEAF8EBF9EA4B700479008043888278
:105283008983E508F0A3E509F0125349FAEE6A7041
:1052930001EF602BEEF04F700888828983E4F0A35E
:1052A300F0851882851983AA82AB831212F28518BE
:1052B30082851983AC82AD837A0CA90B121496797B
:1052C30001741A025B1079FF851882851983AA82FB
:1052D300AB831211E4E92274F71221857F00EF7585
:1052E300F003A4F8A9F0EC28F8ED12530DE06A706E
:1052F30003A3E06B7006E8FAE9FB800B0FEFC3949E
:105303000440DB7A007B0002564239F988828983A4
:105313002274F71221857E00EE75F003A4F8A9F03C
:10532300EA28F8EB12530DE0F4FCA3E0F4FD8882C5
:105333008983ECF0A3EDF0125349F4F00EEEC3941D
:105343000440D5025642E82402F582E93400F5838D
:10535300E02274EE12218574F412212EEAFEEBFF93
:105363008C0A8D0B741E122179E0F50CA3E0F50D68
:105373007420122179E0F508A3E0F50974221221C3
:1053830079E0F510A3E0F511EE4F7005790A0254A8
:105393007A121304E9F50EC3940A4023750F007CB7
:1053A3000679FFE50F75F00EA4FAABF074AA2AFA9A
:1053B30074073BFB1252D57003025484850F0EE52C
:1053C3000EC3940A400302547875F006E50EA4F563
:1053D3000FEEFCEFFD7A0E7420125495E50A450B8F
:1053E300600BAC0AAD0B7A1B7421125495E50C4586
:1053F3000D600BAC0CAD0D7A1B7422125495E508AD
:105403004509600BAC08AD097A107423125495E575
:10541300104511601BAC10AD117A10742412549511
:105423007424122179AC82AD837A047425125495C5
:105433007C0C7D0079FF125BA17A0C7470250EF948
:1054430012149675080E7509007808122398EEFC5D
:10545300EFFDE50E75F00EA4F8A9F074AA28FA740E
:105463000739FB1254EC122144900836E060031212
:10547300134C12133AA90E740C1221447F0A022210
:1054830057050FE50FC3940A50030253A2750E0A82
:1054930080E3250FF91214962274F412218574F215
:1054A30012212EEAFEEBFFE9C3940A5004EE4F707B
:1054B300047902802D851882851983125597F50882
:1054C300701E750A06750B00780A1223987402126F
:1054D3002179AC82AD83EEFAEFFB1254EC12214436
:1054E300A9080249EFAA08AB0912116674022274D3
:1054F300F4122185EAFEEBFF750800750A06750BA9
:1055030000780A122398EEFCEFFDE50875F00EA46F
:10551300F8A9F074AA28FA740739FB1211787402F7
:10552300122144E96004A908800B0508E508C39427
:105533000A40C8790A0249F474F712218574F012FB
:10554300212EEAFEEBFF750800851882851983ACCE
:1055530082AD837A1075F006E508A424231255A4BE
:10556300701F7C101252C97018EEFCEFFD85188273
:10557300851983AA82AB831206ECE97004A908801B
:105583000B0508E508C3940A40BF790A7410122179
:1055930044025642AC82AD837A0E75F006E9A42428
:1055A30020F912149CE92274F7122185750800E58D
:1055B3000875F00EA4F8A9F074AA28FE740739FF41
:1055C300EEFCEFFD7A0E75F006E5081255A1602C8E
:1055D3007C067D0079FFEEFAEFFB12117E7C067DDF
:1055E3000079FFEE2406FAEF3400FB12117EEE245D
:1055F3000CF582EF3400F583E4F0A3F00508E50829
:10560300C3940A40AA900836E0600312134C1213A5
:105613003A802C74F71221857E007F007C0679FF87
:10562300EF75F00EA4FAABF074AA2AFA74073BFBE9
:105633001252D570010E0FEFC3940A40DFEEF97FCB
:105643000102225774F71221857E00EEF91213220C
:105653000EEEC3940A5003E960F180E374F3122160
:105663008574CB12212EE9FF75F006A4F50874208A
:105673002508FE7427122179AC82AD837A0EEE12CF
:1056830055A460030257617C0679FF7427122179C0
:105693001252D160030257617C0E7D0079FF74279B
:1056A300122179AA82AB8312117E7C1B7D0079FFC4
:1056B300740C122179AA82AB8312117E7C0C7D00BB
:1056C30079FF851882851983AA82AB8312117E74B0
:1056D30027122179AC82AD837A0EEEF9121496E982
:1056E300F509740C122179AC82AD837A1B742112F3
:1056F3005770FE740C122179AC82AD837A1B74222D
:10570300125770F50A740C122179AC82AD837A10AA
:105713007423125770F50B740C122179AC82AD838C
:105723007A107424125770F50C740C122179AC8220
:10573300AD837A047425125770F50885188285198C
:1057430083AC82AD837A0C74702FF9121496E9F846
:10575300EE450A450B450C45084842098003750987
:1057630000A90974351221447F050222572508F93F
:10577300121496E92274F7122185E990078EF0122C
:10578300131002564274F212218574FB12212E8AE1
:10579300088B09EB5480700302582C90078EE0F9B4
:1057A3001211A88A0A8B0BA80AA90BE8FEE9FFE8E5
:1057B30049606CEE2404F8EF3400F98E828F83E0A5
:1057C3002450603814600624E1604A804B88828943
:1057D30083E070448E828F83A3A3A3A3A3A3A31206
:1057E30023AF8E828F8312511D8E828F83A3A312C8
:1057F30059381212CE7402122144801C8882898384
:10580300E0641E701379008E828F83A3A31259382C
:105813001212C880031212DAEEFAEFFB121196AAE3
:1058230008E5096480FB02592DEAA2E0400302590E
:1058330029900838125115740312217985820C8539
:10584300830D780C122398750C02750D00780C12D9
:105853002398750CC5750D93780C1223987CFF7DE6
:10586300FF7A017B0012083C74061221440259118D
:10587300E4F50CF50D780C12239874041221798544
:10588300820C85830D780C12239874041221798578
:10589300820C85830D780C122398740912217912D6
:1058A30023AF7902EEFCEFFDAA0AAB0B12095C747D
:1058B30008122144E97035851882851983E0FA744A
:1058C30001122179E0F9EA2400F50CE439F50DEA37
:1058D300450D6018780C1223988E828F8312511E07
:1058E300AA0AAB0B1212CE7402122144E4F50CF592
:1058F3000D780C12239874051221791223AF7CFFC3
:105903007DFFEEFAEFFB12084874041221448A0C5F
:105913008B0DAE0CAF0DEE4F6003025873E50864B8
:1059230001FAAB0980047A007B007405025B1085E1
:105933000882850983E0FAA3E0FB22C082C083903A
:10594300078EE0F98A828B83A312593812096E02FB
:105953004D6AC082C08374FF12212E121316E9C34D
:105963009402851882851983400474028002740AA4
:10597300F0AC82AD837A0179051207FA7401122122
:1059830044024D6A74F212218574E812212EEAFE54
:10599300EBFF890A8C088D097C187D007900125B66
:1059A300A9EEF0A3EFF0900790E0C0E0740212219B
:1059B30079D0E0F0900791E0C0E07403122179D030
:1059C300E0F0900B9BE0C0E07417122179D0E0F077
:1059D3007415122179E054FEF8A3E0F9900B9AE0D4
:1059E300A2E0E433FAE84AF87415122179125B1F36
:1059F300A2E15004D2F08002C2F0E854FDFAA2F012
:105A0300E43333F8EA48F87415122179125B1FA2C4
:105A1300E35004D2F08002C2F0E854F7FAA2F0E4B3
:105A230033F50C750D007403780C12211B125B18EF
:105A3300122179125B1FA2E45004D2F08002C2F05B
:105A4300E854EFFAA2F0E433F50C7404780C122155
:105A53001B125B18122179125B1FA2E55004D2F0CE
:105A63008002C2F0E854DFFAA2F0E433F50C7405C7
:105A7300780C12211B125B18122179125B1FA2E210
:105A83005004D2F08002C2F0E854FBFAA2F0E433EF
:105A9300F50C7402780C12211B125B18122179E8A1
:105AA300F0A3E9F0900791E0601B750C10780C12DD
:105AB30023987C927D077406122179AA82AB831204
:105AC30054EC1221449007A2E06011E50A600974C6
:105AD30015122179E04402F07801800278007414F1
:105AE300122179E048F090078FE060047804800287
:105AF30078007414122179E048F0AC08AD098518D8
:105B030082851983AA82AB83120710741812214469
:105B13007F06022257EA450CF8741522E8F0A3E940
:105B2300F0900B9AE02274F312218574E512212E72
