:020000040000FA
:0600000002010A0227EFD5
:03002B00022C4A5A
:03003300022C2C70
:03004B00022C6321
:030053000228621E
:03006B00022C065E
:100083000226A3E5C754F84401F5C779012200000D
:100093000080FB120086B900030200F4E4792178A2
:1000A30008B800028004F709D8FCE479297802B87B
:1000B30000028004F709D8FCE4900281783C7908B7
:1000C3008002F0A3D8FCD9FA9009BCAA82AB839032
:1000D300013A785D79058015E493A3AC82AD838AF8
:1000E300828B83F0A3AA82AB838C828D83D8E9D9D8
:1000F300E77582E67583CC740312011C75829175D2
:100103008300740012011C75D00075813F7518813E
:10011300751902759F00020096C09FF59FE473D086
:100123009F22D083D082C09FE493C0E0740193C028
:10013300E0740293F59F22FF0000B400002800281A
:1001430000283075A000A000A000A000000800084F
:10015300E001F0001000100010001000100010006B
:1001630050005000500010001000D00700000000A5
:1001730000000F00010005003075070010000100AA
:1001830081FF0000FF9407B2079A07FF02020208EB
:10019300025000A0000000E80302EB85010000AF5D
:1001A3008502CB85010000110A02C585010000B25A
:1001B3000202CB85010000120A02C385010000C8B8
:1001C3000202CB85010000130A02C185010000CAA7
:1001D3000202CB85010000140A02BF85080000CB90
:1001E3000202CB85010000150A02BD85010000163D
:1001F3000AFF0100FF2002EB85010000B28502CB5C
:10020300850100007A0A02BB85000000000002C7D6
:10021300850300001803640D640D640D640D640D03
:10022300640D640D640D640D640D640D640D640D43
:10023300E00FF80FDA0FFFFF110199010F126404A9
:100243000102EB85010000B58502CB85010000C2E8
:100253000A02D385010000C30A02C7850300008098
:100263000702E385010000C40A020202020202023D
:100273000202010D000000100102EB85010000B82D
:100283008502CB85010000EE0A02D98501000086B4
:100293000702CB85010000EF0A02DB85010000C6DF
:1002A3008302CB85010000F00A02DD850100009D79
:1002B3008302CB85010000F10A02DF850100002AD9
:1002C3008302CB85010000F20A02E185010000F4FC
:1002D3008202CB85010000F30A02E78501000006D4
:1002E3008302CB85010000F40A02E98501000018AE
:1002F3008302CB85010000F50A02EF85010000AB04
:100303008302CB85010000F60A02ED85010000F7A8
:100313000A01E803053F10FF0001307503020106DF
:1003230000000000000000000000000000000000CA
:10033300000000000000000000000000FFFF0600B6
:10034300800CE803640080881301000000000000B3
:100353000001000000000000000C09416D6F5267AE
:10036300624C69676874051206000600020A0002FF
:1003730001060302F0FF601400006C140A43686175
:100383007261637465726973746963203100024337
:1003930068617261637465726973746963203200A2
:1003A3000843686172616374657269737469632079
:1003B30033001043686172616374657269737469B1
:1003C300632034000A54656D7065726174757265DB
:1003D3002055706461746520436F6E666967001A07
:1003E30043757272656E742054656D7065726174C5
:1003F300757265000A446576696365204E616D65B3
:1004030020436F6E666967000A54656D706572619B
:100413007475726520416C65727400024144433007
:10042300204144433120526561642056616C7565F7
:10043300203134426974000A50574D20436F6E6671
:1004430069670002EB85010000AC8502CB850100E2
:1004530000010C02F385030000800902C985010035
:1004630000020C02CB85010000130C02F58501008C
:1004730000810902C985010000140C02CB8501002B
:1004830000250C02F785020000820902C9850100DC
:1004930000260C02CB85010000370C02F985000011
:1004A30000830902C785030000840902C98501008E
:1004B30000380C02CB85010000490C02FB850300C8
:1004C300008A0902C9850100004A0C02CB8501009C
:1004D30000640C02FD850300008F0902C785030039
:1004E30000940902C985010000650C02CB85010057
:1004F30000790C02FF850300009A0902C9850100F7
:10050300007A0C02CB850100008D0C0201860300EA
:1005130000AF0902C9850100008E0C02CB850100E2
:1005230000A00C020386010000B40902C985010082
:1005330000A10C02CB85010000BC0C02CF85030097
:1005430000B70902C985010000BD0C3031323334D4
:10055300353637383941424344454600286E756C79
:100563006C20706F696E74657229003F3F3F000015
:1005730000807F0000803FF9021550B743BA510055
:1005830000204100E7DB2E0000A04010000000081F
:10059300000000120125C6BF03120125DDBF0312AF
:1005A30001250CC00312012545C0031201256DC0AE
:1005B300031201259BC003120125B2C003120125BA
:1005C300C9C003120125DFC00312012506C10312AE
:1005D300012519C1031201252FC10312012542C1AF
:1005E3000312012567C10312012534D80212012524
:1005F30033D90212012568D90212012589D90212C1
:10060300012599D902120125BAD902120125C6DAA8
:100613000212012593DB0212012506DC02120125D9
:100623008CDC02120125CFDC0212012506DD021249
:1006330001258CDD021201255EDE02120125BCDEDE
:1006430002120125D4DE021201254EDF021201251A
:1006530051DF0212012554DF02120125FBDF0212D2
:10066300012513E00212012543E00212012563E094
:100673000212012551E10212012507E202120125AE
:100683000D8A03120125358A03120125638A031299
:1006930001259A8A03120125028B031201254B8B34
:1006A30003120125968B03120125D48B0312012516
:1006B300118C031201253F8C03120125E68C0312D2
:1006C3000125F08C03120125FD8C03120125308DC9
:1006D30003120125F28D03120125FE8D031201255C
:1006E300168E03120125208E0312012526C903123B
:1006F300012534C9031201254CC90312012564C91C
:100703000312012546CD01120125E4CD0112012575
:100713005CCE0112012571CF01120125ABCF01126D
:10072300012554D00112012529D1011201258DD2B1
:1007330001120125E4D2011201256BD30112012517
:1007430052D4011201259FD4011201252DD5011286
:10075300012551D50112012526D70112012567D79D
:100763000112012589D7011201250AD80112012599
:10077300F4D801120125BAD901120125D9F20212C6
:100783000125ABF30212012554F40212012597F45B
:100793000212012524F502120125B0F502120125EA
:1007A30091F602120125C0F602120125BCF70212CE
:1007B300012504F80212012506F9021201254AF95E
:1007C3000212012570F9021201252BCB0312012518
:1007D300D2A703120125E8A7031201250EA80312CD
:1007E300012536A90312012540A90312012599AA5F
:1007F3000312012599AB0312012500800312012581
:10080300358103120125688103120125B281031288
:100813000125708303120125E9BD011201254CBE98
:100823000112012591BF01120125A1BF011201256A
:10083300C4BF011201250FC001120125B4C001126A
:100843000125AAC10112012574C201120125ECC3BD
:10085300011201252EC401120125CCC40112012568
:1008630019C5011201253FC5011201252DC701122A
:10087300012532C70112012513C90112012567C9D8
:1008830001120125C9C901120125F1C9011201256E
:1008930095CA0112012557CB0112012588CB0112FC
:1008A30001258BCB01120125D3CB0112012515CCD8
:1008B300011201257CCC011201257FB7031201250A
:1008C30092B703120125ABB703120125F6B7031242
:1008D3000125D1B80312012560B903120125ABB973
:1008E30003120125CC2E00120125D82E001201255A
:1008F300112F00120125562F001201250D30001271
:100903000125933000120125F8300012012524310E
:10091300001201255D3100120125713300120125FA
:100923004D35001201253837001201256F380012AA
:100933000125CF3A00120125BB3B00120125013DE1
:10094300001201250E3E001201252B3E0012012547
:10095300633E001201257D3E00120125E53E001293
:1009630001257F4300120125204400120125714413
:1009730000120125984400120125E64400120125C6
:100983000445001201255845001201253146001285
:100993000125B84700120125404800120125B58EF4
:1009A30003120125BF8E031201258A8F031201252D
:1009B300A58F03120125CB8F031201250F9003127C
:1009C3000125479003120125709003120125E99038
:1009D30003120125FE900312012513910312012531
:1009E3004A91031201255E91031201258F9103128F
:1009F3000125C99103120125F591031201256C927A
:100A030003120125B59203120125DF92031201257A
:100A130004930312012502A003120125CCA00312A3
:100A23000125AFA10312012525A20312012567A207
:100A33000312012594A3031201254DA802120125D7
:100A430076A8021201258FA802120125D4A9021249
:100A53000125B2AA02120125D1AA021201255EAB19
:100A630002120125A1AB02120125EEAC02120125EF
:100A73008DAD021201250CB002120125A3B00212A2
:100A8300012577B10212012559B202120125C5B31E
:100A93000212012558B40212012518C603120125BA
:100AA30081C603120125D5C603120125FCC6031214
:100AB30001252C9303120125999303120125E49335
:100AC30003120125D99403120125D595031201259B
:100AD300BF9603120125D67600120125187700125E
:100AE3000125F27700120125CB7800120125C67982
:100AF30000120125A57A00120125117B00120125A0
:100B0300D87B00120125437C00120125AA7C001228
:100B13000125D57C00120125467D00120125D97DD2
:100B230000120125427E00120125577E0012012585
:100B33009F7E00120125B87E001201251D7F001241
:100B43000125207F00120125B9AE03120125E1AE74
:100B5300031201251FAF03120125DDAF0312012587
:100B630048B00312012564B0031201258CB00312AF
:100B73000125BCB003120125CBB00312012545B1F9
:100B8300031201256BB1031201256DEA0112012540
:100B93004AEC0112012545EE0112012518EF01125D
:100BA300012563EF01120125AEEF01120125C0EF0C
:100BB3000112012500F00112012535F00112012572
:100BC30081F001120125B0F001120125D3F00112C9
:100BD300012520F101120125A9F101120125B6F326
:100BE30001120125A1F501120125E4F501120125E8
:100BF30049F7011201258AF701120125FDF70112B8
:100C0300012549F801120125CFB402120125FAB4D6
:100C130002120125E1BB0212012505BE02120125C4
:100C2300C0BF021201251DC102120125A7480012EF
:100C330001253E4900120125844900120125C34ABA
:100C4300001201255A4C00120125D44C0012012533
:100C5300EF4C00120125644D00120125934E001242
:100C63000125EE4F00120125F050001201254D52CF
:100C730000120125665200120125C35200120125FC
:100C8300A55300120125D853001201254854001220
:100C93000125C25400120125115500120125DD550D
:100CA30000120125E25600120125C1570012012549
:100CB3004C5800120125BA58001201252E59001272
:100CC3000125575900120125165A00120125905B80
:100CD30000120125AD5B00120125CC5B001201253A
:100CE3005D5C00120125825C00120125AA5C0012E2
:100CF3000125255D001201257F5D00120125D35ECC
:100D030000120125905F0012012563600012012586
:100D13000080021201255080021201255C8002121C
:100D23000125398102120125698102120125A18160
:100D33000212012520820212012558820212012586
:100D4300AA8202120125E782021201250C850212F2
:100D530001253887021201253389021201250E8BE2
:100D630002120125FBFF01120125E9990112012558
:100D7300339A0112012512A00112012593A1011238
:100D83000125F2A701120125EDA8011201252AA9C7
:100D9300011201254DA9011201258FA90112012577
:100DA30098A901120125A2A9011201258EAA0112F7
:100DB300012582AB01120125916000120125096B07
:100DC300001201250F6B001201251B720012012571
:100DD300A3AB03120125A1AC03120125F7AC031247
:100DE300012535AD0312012592AD031201250FAE86
:100DF3000312012518AE0312012524AE03120125A7
:100E030037AE0312012573AE0312012589AE031217
:100E130001258197031201258E9703120125A897B7
:100E230003120125E79703120125259803120125D3
:100E33008A98031201259F9803120125AA98031289
:100E43000125B79803120125CE9803120125DC98DA
:100E530003120125E79803120125F39803120125D4
:100E63000299031201250D990312012530990312EA
:100E73000125D99903120125E99903120125039A42
:100E830003120125209A031201253C9A031201251E
:100E9300619A031201256B9A031201257F9A0312AB
:100EA30001259E9A03120125FF9A03120125059B32
:100EB300031201250B9B03120125119B031201252C
:100EC3001D9B03120125509B03120125D48D021291
:100ED3000125568E02120125FF8E0212012547902D
:100EE300021201255592021201253B93021201259C
:100EF3007093021201259293021201253B94021270
:100F030001250B9602120125349602120125AC9697
:100F130002120125DE9602120125EB96021201252B
:100F23003697021201255A9702120125AB99021234
:100F33000125B59A02120125119B02120125EFDB4F
:100F43000112012500DD01120125E4DD0112012555
:100F5300EEDD0112012510DE011201251CDE011256
:100F63000125C0DF01120125EDDF0112012503E197
:100F73000112012558E101120125A7E20112012501
:100F83007CE301120125D8E30112012543E4011298
:100F9300012578E401120125BBE40112012585E74F
:100FA300011201259DE7011201252EE801120125F9
:100FB3003CE80112012589E80112012597E8011295
:100FC300012503E9011201257EE901120125D5E975
:100FD3000112012516CD0212012538CD0212012579
:100FE30049CF0212012508D20212012532D302127F
:100FF3000125F0D302120125DCD4021201250DBE16
:101003000312012532BE03120125A8BE03120125D6
:1010130074F8011201257DF80112012586F80112E9
:1010230001255EF9011201250FFB011201253FFB8A
:10103300011201256AFB011201259AFB0112012508
:10104300C5FB01120125F9FB0112012525FC011243
:10105300012568FC0112012593FC01120125DAFC2C
:10106300011201252FFD0112012571FD0112012538
:10107300CBFD01120125F6FD0112012545FE0112EA
:10108300012575FE01120125A0FE01120125CEFEE8
:1010930001120125F1FE01120125B4CB0312012532
:1010A300E0CB031201250DCC0312012517CC03124B
:1010B300012527CC03120125A8EA02120125B2EA71
:1010C30002120125F3EA021201253CEB021201256B
:1010D30076EB02120125CCEB02120125EDEB021295
:1010E30001259CEE02120125A5EE02120125F9EE5F
:1010F3000212012522EF021201252CEF0212012513
:101103009AEF021201252AF00212012585F002123C
:101113000125B3F0021201253BF1021201257AF1F8
:1011230002120125AFF102120125C1F102120125BC
:10113300E0F102120125E9F102120125ABF20212DC
:1011430001252FC8031201251CBC0312012552BC23
:101153000312012586BC03120125D3BD0312012509
:1011630091FF01120125A7FF01120125B1FF011211
:10117300012531CC03120125CD9B03120125E09BF0
:1011830003120125A49C03120125E39C03120125EC
:10119300009D03120125399D03120125869D03122B
:1011A3000125B89D03120125EF9D0312012511C3EB
:1011B3000312012534C30312012563C3031201255E
:1011C300FBC30312012513C40312012555C40312E3
:1011D3000125B3B103120125EAB10312012501B2BE
:1011E30003120125ADB20312012546B303120125F3
:1011F300CEB3031201259BB403120125C0B403121D
:101203000125EAB40312012590CC031201250986B6
:1012130001120125E78701120125868901120125A3
:10122300318A01120125B18A01120125368B01127F
:1012330001255F8B011201253A8F01120125B18F20
:1012430001120125C8900112012502910112012505
:101253004391011201258A9201120125E0920112A4
:101263000125299301120125989301120125049464
:10127300011201253594011201254D940112012516
:101283006695011201257695011201252C9701120D
:10129300012543970112012575970112012517991D
:1012A30001120125AB9901120125447F001201258A
:1012B300557F00120125F57F0012012539CD031258
:1012C300012578CD031201253DCE031201259DCAC8
:1012D30003120125ADCA03120125C2CA0312012557
:1012E30028CB031201252DC703120125B2C7031210
:1012F300012516C8031201259EC403120125C7C484
:101303000312012532C50312012583C503120125EA
:10131300DEC503120125EEA30312012513A4031254
:10132300012530A4031201254DA40312012572A443
:101333000312012593A403120125BDA40312012561
:101343007AA503120125F8A5031201251FA603128E
:10135300012529A6031201254EA703120125E8FF43
:1013630002120125F8FF0212012555CE03120125B1
:1013730032CE0312012579C103120125CBC1031219
:1013830001253EC203120125ABC203120125D5B9C3
:1013930003120125FFB903120125CEBA0312012559
:1013A300AABB0312012572E2021201253EE30212D7
:1013B30001257FE302120125B9E30212012517E497
:1013C300021201256BE402120125C9E40212012570
:1013D3005FE50212012567E602120125F1E7021219
:1013E30001258FE802120125F6E80212012509E919
:1013F30002120125FDE90212012546EA0212012526
:101403005E9B02120125909E0212012521A0021269
:10141300012578A00212012595A00212012515A12C
:101423000212012591A20212012560A302120125D5
:10143300CDA602120125B7A70212012526850312A4
:101443000125DF8603120125DF870312012540C131
:1014530002120125B3C10212012534C4021201256F
:10146300A7C50212012513C70212012592C8021251
:10147300012594CC02120125E5F90212012535FA62
:101483000212012552FA0212012543FB0212012521
:101493004BFC0212012543FD02120125A4FF021297
:1014A3000125B8CD03120125FDC90312012527CA61
:1014B3000312012582CD03120125E5CD0312012577
:1014C3000DCE031201259AAD01120125B8B201E038
:1014D30066701008A3E066700A08A3E0667004084B
:1014E300A3E06622C008C3E096F50808A3E096428D
:1014F3000808A3E096420808A3E0964208A2D26532
:10150300D033E5087001D3D00822C3E7960809E772
:10151300960809E7960809E79622C3E09608A3E030
:101523009608A3E09608A3E09622C008C3E096F5C8
:101533000808A3E096420808A3E096420808A3E03F
:101543009645087001D3D00822080808E630E71151
:10155300121E70121564080808C64480C6181818AD
:1015630022181818E9799EC608CAC608CBC608CC43
:10157300C6C370207996CACBCC7019798ECBCC7048
:10158300137986CC700EF9802ACA33CACB33CBCCFD
:1015930033CC331930E7F2CCCBCA3350147004EA9E
:1015A30030E00DE4CA3ACACB3BCBCC3CCC50020969
:1015B300C3E913C6CC182313C6CB18C6CA18C6F979
:1015C3002212160420F01430E72B74FFFCFBFA748C
:1015D3007F8022E4FCFBFA7480801AB48008BC008C
:1015E300F2BB00EF800F50EBF9E4C39AFAE49BFBE4
:1015F300E49CFCE499C6CC18C6CB18C6CA18C6F935
:1016030022E4C9C608CAC608CBC6D3330308CCC66E
:101613003392F0C3947F402E94184019C9B907043C
:10162300CACBCC225025C309CA33CACB33CBCC3364
:10163300CC33D9F422F4600DC9CCC313CB13CBCA7A
:1016430013CAD9F6CC22E4FCFBFA2214FCFBFA22DF
:10165300E6C33318461846184622E7C33319471919
:1016630047194722181818E6084608700AE608C3FF
:10167300337005E633F4220822191919E7094709DB
:10168300700AE709C3337005E733F4220922E60839
:101693004608C3134608336002E633F422E70947DA
:1016A30009C3134709336002E733F422121691602A
:1016B300251216A06020121653700302165D080847
:1016C30008E76670101819E766700A1819E766705C
:1016D300041819E76622F422121691601C1216A050
:1016E3006017121653700712165D7001D322C0D013
:1016F30012165D7006D0D0B322C32233D0D050145B
:1017030030E0F6C3E7960809E7960809E796080963
:10171300E796B32220E0D5E6970809E6970809E69D
:10172300970809E697B322121691601B1216A06060
:1017330016121653700712165D600CB322C0D01236
:10174300165D7005D0D022C32233D0D0501330E0C1
:10175300EBC3E7960809E7960809E7960809E796B1
:101763002220E0E4E6970809E6970809E6970809C6
:10177300E6972200121691604F1216A06012E754EA
:101783008066F6121667701112165D703B0909091F
:10179300F4F618F618F618F62212167C70151216BF
:1017A3005308080860EAE6447FF618768018E4F6E2
:1017B30018F622121653601612165D7012E4F6081C
:1017C300F608F608E65480F609090918181822EAFB
:1017D300C0E0EBC0E0ECC0E0EDC0E0E687F0A4FBC6
:1017E300ACF008E687F0A42CFCE435F0FA1809E61F
:1017F30087F0A42C4B60027401CA35F0FCE433FB80
:1018030009E687F0D2F7A42CCB35F0FC1908E6875C
:10181300F0A42BCC35F0FBE433FD0819E687F0D2B6
:10182300E7A42C4ACB35F0CD3400FC09E687F0D28F
:10183300E7A42DCC35F0FDE433FA0918E687F0D29E
:10184300F7A42CCD35F0CA3400FC08E687F0D2E7C4
:10185300D2F7A42ACC35F07A7E20E70B0ACB33CB20
:10186300CD33CDCC33CC33CB3350147004ED30E0D7
:101873000ED2F1E4CD3DCDCC3CCC3B5005DA05C2D4
:10188300F1EB547FC63308E63392F0FBE73309E705
:1018930033C39A502D2B70190C0D4C4D701518062F
:1018A300E608C333700D20F10AA2F013F6E41880A2
:1018B3000B4024E4F630F002768018F618F618F69A
:1018C3008024D33B14501074FFA2F013F6187680D3
:1018D300E418F618F6800FA2F013F618E63303F6B1
:1018E30018ECF618EDF6D0E0FDD0E0FCD0E0FBD02C
:1018F300E0FA221216A06046121691603DE9687064
:1019030008F618F618F618F622748067F712192AE3
:10191300090909748067F722121691601D1216A037
:101923007005191919801A121667701F12167CC3D5
:101933007003E667331919194007181818220808A5
:101943000874FFF618F618F618F62212167C6017BC
:1019530012165D702192F01216537019501720F071
:1019630014080808090909E7F61819E7F61819E72A
:10197300F61819E7F62212165360E6E869701F0895
:1019830008E62480F608E436F618547FB47F0CE6A4
:1019930054806007F6E418F618F622181822E9C6F0
:1019A300CC08C6CD08C6CE08C6CFC0E0E8C0E0EA82
:1019B300C0E0EBC0E009E9F809E7FA09E7FBE6F95B
:1019C30018E6F8C3EC98ED99EE9AEBC2E7F5F0EF61
:1019D300C2E795F0500E600CEBCFFBEACEFAE9CDEF
:1019E300F9E8CCF8EAA2E7D2E7FAEB33FB13F5F018
:1019F300EEA2E7D2E7FEEF33FFC5F013A2E730E62E
:101A030001B313C5F0C3C0E0C0F07F00C39BFB600C
:101A13005B9418600C401AD0E023F9D0E0F8021A66
:101A2300F98AF0E9486003D2F0E4AFF0FAF9F880FC
:101A33003BEB30E40D89F0EA6003D2F0E4AFF0F958
:101A4300CAF8EB30E30D88F0EF6002D2F0AFF0E4B8
:101A5300CAC9F8EB54076014FBC3EA13FAE913F994
:101A6300E813F8EF135002D2E0FFDBEDD0E0C0E063
:101A730030E739C3E49FFFF5F0EC98FC42F0ED99B1
:101A8300FD42F0EE9AFE42F0D0E0F9D0E0F8E5F046
:101A9300607AE923F9EE20E742D8028067C3EF3387
:101AA300FFEC33FCED33FDEE33FE80EAEC28FCED76
:101AB30039FDEE3AFED0E023F9D0E0F84002801B76
:101AC300C3EE13FEED13FDEC13FCEF135002D2E053
:101AD300FF08B800067F7F74FF802EEF3350178C0A
:101AE300F020F00260100CBC000C0DBD00080EBE0F
:101AF300000408E860DFE933E813FFEE2313FE4F29
:101B03004D4C8008E95480FFE4FEFDFCEE33EF33D7
:101B1300F47004FCFD7E80D0E0FBD0E0FAD0E0F866
:101B2300D0E0CFC618CEC618CDC618CCC6F922123F
:101B330016917004181818221216A0700D74FFF66F
:101B43001819F61819F61819F622E7548066F612D2
:101B53001653700F12165D70F014F608F608F608A7
:101B6300F680D112165D700CF608F608768008E64A
:101B7300447F80EC12167F700C12166A60BFE65425
:101B830080F6E480BB12166A700519191980A5E85E
:101B930069700C763F18768018F618F6E8F922E695
:101BA300CDC0E018ECC0E0E633CD33CDD313F6E778
:101BB30019FCE7191933CC33C3947F400ECD9D50E4
:101BC3002408E65480F6E418F6800FF4043D14501C
:101BD3001408E6447FF6187680E418F618F6D0E089
:101BE300FCD0E0FD22CCD313CCFD18E4C6CBC0E07F
:101BF30018E4C6CAC0E00808ED08C633E613F618B1
:101C0300E433C675F003C3CA97CA09CB97CB199CB3
:101C130040047D08802EBD0003021CDB16B6FF05C1
:101C23000606081618C3CA33CACB33CB33CA27CA2E
:101C330009CB37CB193CC37D08803E187D0820E7CC
:101C43005CC633C6CA33CACB33CB33DDF1D5F0EB35
:101C530030E77BCA97CA09CB974ACB199C406F4B95
:101C63007025E620E0218066187D08C3CA97CA095B
:101C7300CB97CB199CD3C633C6CA33CACB33CB332A
:101C830050C9DDE7D5F0E1D3E4C636C608C636C68B
:101C930008C636C608C636C61818188031C3CA9790
:101CA300CA09CB97CB199CB34097C633C6CA33CA6C
:101CB300CB33CB33DD34D5F02EC6A2E0C640C8CA41
:101CC30027CA09CB37194A70BECB3CB480B9080880
:101CD300E63308E633601F181818D0E0FAD0E0FBAB
:101CE300D0E0FCD0E0FD22187D08CA27CA09CB3713
:101CF300CB193CD3808013F618E4B67F11F618B6DF
:101D0300FF0EF618C60470D20808768080CAF6184B
:101D1300F618F680C5080808EAC0E0EBC0E086F0D4
:101D2300E7A4FA180986F0E7A42AFA180986F0E767
:101D3300A42AFA180986F0E7A42AFA1986F0E7A478
:101D4300FBE5F02AFA190886F0E7A42BFBE5F03A45
:101D5300FA190886F0E7A42BFBE5F03AFA181809FC
:101D630086F0E7A4C5F02BFBE43AFA1908E7C5F0BF
:101D7300C6A426F6E5F03BFBE43AFA1886F0E7A49E
:101D8300F6E5F00826F6E43B08F6E43A08F6D0E078
:101D9300FBD0E0FA22E4CFC0E0E4CEC0E0E4CDC063
:101DA300E0E4CCC0E075F020C3E633F608E633F692
:101DB30008E633F608E633F6181818EC33FCED336F
:101DC300FDEE33FEEF33FFC3EC9709ED9709EE9772
:101DD30009EF97191919400FFFEC97FC09ED97FDCF
:101DE30009EE97FE191906D5F0BEECF709EDF709D0
:101DF300EEF709EFF7191919D0E0FCD0E0FDD0E0B8
:101E0300FED0E0FF22121E73181818121D98121E1E
:101E13005F19191922121E5F191919080808E61803
:101E2300181820E7E0121D98121E731818182209BB
:101E33000909E719191920E7DC080808E618181832
:101E430020E703021D98121E73181818121D98120A
:101E53001E73181818121E5F19191922E4C397F775
:101E630009E497F709E497F709E497F72218181894
:101E7300E4C396F608E496F608E496F608E496F6C4
:101E8300226016080808C6C313C618C613C618C6A8
:101E930013C618C613C6D5E0EA227009080808223B
:101EA3006016181818C6C333C608C633C608C63327
:101EB300C608C633C6D5E0EA22E627F60809E637A0
:101EC300F60809E637F60809E637F622E026F608AB
:101ED300A3E036F608A3E036F608A3E036F622E0E0
:101EE30026F008A3E036F008A3E036F008A3E036B6
:101EF300F022C3E697F60809E697F60809E697F68F
:101F03000809E697F622C3E096F008A3E096F008E6
:101F1300A3E096F008A3E096F022E056F608A3E0CB
:101F230056F608A3E056F608A3E056F622E056F06C
:101F330008A3E056F008A3E056F008A3E056F02209
:101F4300E647F60809E647F60809E647F60809E60C
:101F530047F622E0F608A3E0F608A3E0F608A3E0BC
:101F6300F622E6F008A3E6F008A3E6F008A3E6F0FD
:101F730022E0FAA3E0FBA3E0FCA3E0FD22EAF0A346
:101F8300EBF0A3ECF0A3EDF022CAC0E0E6F0A30867
:101F9300DAFAD0E0FA22CAC0E0E0A3C582CCC58257
:101FA300C583CDC583F0A3C582CCC582C583CDC50A
:101FB30083DAE6D0E0CA22C3E498F8E499F9121F61
:101FC300FB8026C3E49AFAE49BFBE920E7E9121FAE
:101FD300FBE498F8E499F922C3E498F8E499F91238
:101FE3001FFBE498F8E499F9C3E49AFAE49BFB2213
:101FF300EB20E7CFE920E7E0B90010BB0008E88A4F
:10200300F084F8AAF022E4FBC8FA22EB70227B10DA
:10201300C833C8C933C9335007C39AC3DBF2800638
:102023009A50012ADBEAC833F4C8C933F4C9FA2247
:1020330075F008E4C833C8C933C933C99AC99B507A
:1020430004C92AC93BD5F0ECFBC833F4C8E4C9FA88
:1020530022600D08C6A2E713C618C613C6D5E0F35F
:1020630022600C08C6C313C618C613C6D5E0F422F3
:10207300700422600D18C6C333C608C633C6D5E044
:10208300F41822251810AF08F51840021519800816
:10209300F51840021519D2AF22C0D0251810AF0889
:1020A300F518500205198008F51850020519D2AF2A
:1020B300D0D0222518F58210AF08F5184002151963
:1020C3008008F51840021519D2AF85198322251807
:1020D300F582E43519F58322E4732518C582C0E03F
:1020E300E51934FFC583C0E0E518C3958224F810D1
:1020F300AF0885831985821880088583198582181E
:10210300D2AFCEF0A3E520F0A37808E608F0A3DE73
:10211300FAEFF0A3E58124FAF8E608F0A3E608F065
:10212300A3E608F0A30808E608F0A3E608F0A31561
:10213300811581D0E0FED0E0F8158115811581E885
:10214300C0E0EEC0E0222518C582C0E0E51934FFE7
:10215300C583C0E0E518C3958224F910AF088583D1
:10216300198582188008858319858218D2AFCEF02D
:10217300A3E520F0A37808E608F0A3DEFAEFF0A3C6
:10218300E58124FBF8E608F0A3E608F0A30808E6D7
:1021930008F0A3E608F0A315811581D0E0FED0E096
:1021A300F815811581E8C0E0EEC0E022851983852A
:1021B3001882E0A3FEE0A3F5207808E0A3F608DF89
:1021C300FAE0A3FFE0A3C0E0E0A3C0E0E0A3C0E027
:1021D300E0A3C0E0E0A3C0E010AF088582188583C8
:1021E300198008858218858319D2AFD083D08202E3
:1021F3000122851983851882E0A3FEE0A3F52078E8
:1022030008E0A3F608DFFAE0A3FFE0A3C0E0E0A341
:10221300C0E0E0A3C0E0E0A3C0E010AF08858218EF
:102223008583198008858218858319D2AFD083D01E
:102233008222C0D02518C582C0E0E51934FFC583CA
:10224300C0E0E518C3958224F310AF088583198590
:1022530082188008858319858218D2AFC8F0A3E954
:10226300F0A3EAF0A3EBF0A37908E709F0A3D8FA07
:10227300ECF0A3EDF0A3EEF0A3EFF0A3D0E0F0A316
:10228300D0E0F0A3D0E0F0A3E520F0A3E5F0F0A3C5
:1022930022851983851882E0C0E0A3E0F9A3E0FA60
:1022A300A3E0FBA37808E0F608A3DFFAE0FCA3E0D1
:1022B300FDA3E0FEA3E0FFA3E0C0E0A3E0C0E0A332
:1022C300E0F5D0A3E0F520A3E0A3F5F010AF088577
:1022D30083198582188008858319858218D2AFD027
:1022E30082D083D0E0F8D0E0327404800674028098
:1022F300027401C0E0F4041220B6D0E0121F8C2255
:102303007404800474028000CCC0E0EDC0E0E518E2
:10231300C39CCCAD1950011D10AF068C188D1980CC
:10232300068C188D19D2AF121F99D0E0FDD0E0FCB6
:1023330022D083D082E9C0E0E493A3C386F0C5F042
:1023430095F0F908E493A386F0C5F095F0700BE4DB
:1023530093A3C3994005E9048002A3E475F002A4A2
:102363002582F582E5F03583F583D0E0F9E493A384
:10237300C0E0E493C0E022D083D082ECC0E0EDC0A3
:10238300E0E493A3FCE493A3FDED4C600D1223C69C
:10239300EC24FFFCED34FFFD80EFE493A3FCE49316
:1023A300A3FDED4C600D122405EC24FFFCED34FF7E
:1023B300FD80EFD0E0FDD0E0FCE493A3C0E0E49324
:1023C300C0E022C0E0C3E4939608740193961840DA
:1023D3000FE493667008087401936618700070190F
:1023E300A3A3C3E49396087401939618A3A3400D83
:1023F300D0E0D0E0D0E00223B6A3A3A3A3A3A3D04D
:10240300E022C0E0C0F088F0E4936670080874012D
:102413009366187000A8F0A3A3700BD0F0D0E0D09F
:10242300E0D0E00223B6A3A3D0F0D0E02274F512EB
:102433002149EAFEEBFFEE2434F8EF3400F9880873
:102443008909EE2435F582EF3400F583E0F8EE24B4
:1024530037F582EF3400F583E0F50AEC850AF0A442
:10246300FCAAF0850AF0EDA42AFDE82CF8E43DF976
:102473007A257B00121FFBEA850882850983F054C5
:1024830007F87401B800028004C333D8FCC0E0E04D
:10249300131313541FF8EE28F8EF3400F9E8245D02
:1024A300F582E93400F583D0E0F8E0586008EE24C3
:1024B30034F582EF801EEE2436F582EF3400F58387
:1024C300E0F5F0EA84A8F0EE28F8EF3400F9E82408
:1024D30038F582E93400F583E0F97F040221F574CD
:1024E300F5122149EAFEEBFFEE2434F582EF3400C6
:1024F300F583E0C0E0EE2435F582EF3400F583D0B8
:10250300E0F08E828F83A3A3A3A3A3A3A3C082C05F
:10251300838E828F83A3A3A3A3A3E0F8A3E0F9D0C0
:1025230083D082E0C398F508A3E099F509EE2480EF
:10253300F582EF3400F583E064017069EE2481F5E0
:1025430082EF3400F583E0F8A3E0F98E828F83A352
:10255300A3A3A3A3A3A3E0FCA3E0FD8E828F83A385
:10256300A3A3A3A3E0FAA3E0FBC3EA9CEB9D50273C
:10257300C3EC98ED99402EC3EA98EB9950277CFD64
:102583007D04EEFAEFFB120CC2EE2480F582EF34E9
:1025930000F583E4F0800EC3EA98EB9940E0C3ECC6
:1025A30098ED9950D9EE2434F8EF3400F9E8FCE9BA
:1025B300FDEE2435F582EF3400F583E0F8EE2437A1
:1025C300F582EF3400F583E0F50AE508850AF0A407
:1025D300F508AAF0850AF0E509A42AF509E8250813
:1025E300F8E43509F97A257B00121FFBEA8C828D0A
:1025F30083F05407F87401B800028004C333D8FC95
:10260300C0E0E0131313541FF8EE28F8EF3400F979
:10261300E8245DF582E93400F583D0E0F8E0586002
:1026230008EE2434F582EF801EEE2436F582EF3473
:1026330000F583E0F5F0EA84A8F0EE28F8EF340023
:10264300F9E82438F582E93400F583E0F9122BF830
:102653000224DDC082C083851882851983E0F8A334
:10266300E0F9C3EA9CEB9D5012C3EC98ED99401935
:10267300C3EA98EB99501279018010C3EA98EB9959
:1026830040F5C3EC98ED9950EE7900D083D08222C7
:10269300EAC39CFAEB9DFB22008521878522C62293
:1026A300C0E0C0D0E8C0E0E9C0E0EAC0E0EBC0E0D1
:1026B300ECC0E0EDC0E0C008C009C00AC00BC08296
:1026C300C083C0F0759B00906182E0A2E6400302E4
:1026D3002781E591A2E640030227817591BF90030C
:1026E300C2E064057008120DEE120DFA8003120D9C
:1026F300F4752100120E4EE99003C3F07900120E17
:1027030042120C387A017B009003C1E0F9121118D0
:10271300907803E0644260030227CA90055FE014E7
:10272300F060030227CAC2AF12272E00782AD0E036
:10273300F618D0E0F6E59F5407F9700590855480AC
:10274300039085587808121F56E9C4C0E07829E63B
:102753005508F50808E65509F509740B78081220A1
:1027630064D0E02508F8906270E0A2E740F8E8C37F
:1027730033906272F0906270E0D2E0F08049E0A2A0
:10278300E55024E591A2E5501E7591DF9003C2E068
:10279300640D70139003E4E004F064287002E4F025
:1027A3007A00E0F9120EC0906181E0A2E35009E5DE
:1027B300E9A2E3500375E9F7A3E0A2E75009E59125
:1027C300A2E7500375917FD0F0D083D082D00BD095
:1027D3000AD009D008D0E0FDD0E0FCD0E0FBD0E087
:1027E300FAD0E0F9D0E0F8D0D0D0E032C0E0C0D0E9
:1027F300C082C083906183E0A2E05009E5BFA2E0FC
:10280300500375BFFEE0A2E15009E5BFA2E150030A
:1028130075BFFDE0A2E25009E5BFA2E2500375BF18
:10282300FBE0A2E35009E5BFA2E3500375BFF7E065
:10283300A2E45009E5BFA2E4500375BFEFE0A2E5AF
:102843005009E5BFA2E5500375BFDFE0A2E65009DA
:10285300E5BFA2E6500375BFBFD083D0828088C096
:10286300E0C0D0E8C0E0E9C0E0EAC0E0EBC0E0ECE3
:10287300C0E0EDC0E0C0F0E5A7A2E6500FE5A1A2DD
:10288300E6500953A7BF75A1BF1228C7E5A7A2E564
:10289300500CE5A1A2E5500653A7DF75A1DFE5A71C
:1028A300A2E15009E5A1A2E1500375A1FDE5A7A2AC
:1028B300E2500CE5A1A2E2500653A7FB75A1FBD0A1
:1028C300F00227D874F81221497521019003C2E060
:1028D30064067015120D8E8A828B83A3A3A3A3A310
:1028E300A3E0FAA3E0FB120DDCA2AFE433FED2AF08
:1028F3009003C8E0640170187A207B009003C1E064
:10290300F912119C7A207B009003C1E0F912111E89
:10291300906182E0D2E6F090055EE0602185C622F8
:1029230080169003C7E064017008E5C654F84405B7
:10293300F5C653BEFC12269C7401652160E4EEA229
:10294300E092AF7F010221F5008E238F2485822838
:10295300858327851882851983E0CEA3E0CF852858
:1029630082852783EBC9EAC8EDCBECCA75F010C3A7
:10297300E833C8E933C9EA33CAEB33CBC3EA9EF57C
:1029830026EB9FF525B35004AB25AA26EC33CCEDFB
:1029930033CDD5F0DAAE23AF242274F11221498A64
:1029A300088B098C0A8D0B740F1220D1780C121F1F
:1029B300569085347808121F1D908534780C121FA9
:1029C3001D7808790C12150D50157808790C121E14
:1029D300F5908574780812152D40157901801378C8
:1029E3000C7908121EF5908574780C12152D40EBA6
:1029F30079007F080221F574ED1221498A088B09B9
:102A03008C0A8D0B74131220D1780C121F569085EB
:102A1300347808121F1D908534780C121F1D780C12
:102A2300790812150D40117808790C121EF5AA08C1
:102A3300AB09AC0AAD0B802275100075110075123D
:102A4300007513017810790C121EF57810790812AD
:102A53001EBCAA10AB11AC12AD137F0C0221F59072
:102A630085347808121F568A828B837808121F30A8
:102A73007F040221F574F51221498C828D83780835
:102A8300121F568A828B837808121F09EA2404F8DE
:102A9300EB3400F98C828D83A3A3A3A3E0FCA3E012
:102AA300FD88828983C3E09CF0A3E09DF08882893E
:102AB30083C3E09420A3E0944E4022908548780895
:102AC300121F568A828B837808121EE28A828B83B6
:102AD300A3A3A3A3E02420F0A3E0344EF0808074EA
:102AE300F5122149E9FE900514E0FAA3E0FBEEC3D9
:102AF30033F8E433F9747E28F582748339F583E07F
:102B03002AF508A3E03BF50978081222F0908544E2
:102B1300121F7412294C740212209C8A088B098C90
:102B23000A8D0B74107808121E84AA08AB097F045F
:102B33000221F574F11221498A0C8B0D8C0E8D0F35
:102B4300740F1220D1E0FAA3E0FB74111220D1E03C
:102B5300F508A3E0F50974131220D1E0FEA3E0FF0A
:102B630078081222F0EA2401F508EB3400F509E4B1
:102B7300F50AF50B780C7908121D189085787808FA
:102B8300121F56780C7908121D18AA0CAB0DAC0E47
:102B9300AD0F12294C740212209C8B09EA4509607F
:102BA300047A0180027A00EC2AFCED3400FDECF893
:102BB300EDF97A717B02121FFB88088909E4F50A93
:102BC300F50B8E828F837808121F65ECF8EDF97A86
:102BD300717B02121FFB8A088B0974057808122087
:102BE300738E828F83A3A3A3A3E508F0A3E509F063
:102BF3007F080221F5C082C083E9906000F0D08392
:102C0300D08222C0E074F2122235A2AFE433FED2A6
:102C1300AFE589A2E15003121310758900C2C5EE16
:102C2300A2E092AF7F01022294C0E074F212223537
:102C3300A2AFE433FED2AFE58BA2E0500312131030
:102C4300758B00C2E880D8C0E0C0D0E8C0E0E5A83A
:102C5300D2AFC2C7A2E792AFD0E0F8D0D0D0E03273
:102C6300C0E074EA122235E5AFF509900933E02498
:102C730001F0A3E03400F07508008004E508700952
:102C8300E509A2E1402D022E99740165087006E55D
:102C930009A2E280EF740265087006E509A2E380E9
:102CA300E3740365086003022E99E509A2E4400377
:102CB300022E99E508C333F8E433F9741B28FA7438
:102CC3000939FB8A828B83E0F50AA3E0F50B7423B1
:102CD30028F582740939F583E0FCA3E0FDE50A6C6D
:102CE3007003E50B6D7003022D8B742B28FE7409A2
:102CF30039FF8E828F83E0F50EA3E0F50FE50E24F6
:102D030001F50CE50F3400F50D8E828F83E50CF091
:102D1300A3E50DF074D628F582740B39F583E0F53D
:102D23000CA3E0F50DC3E50E950CE50F950D40588A
:102D33008E828F83E4F0A3F074CE28F582740B396E
:102D4300F583122EBEEC28FEED39FFC3EE950AEF94
:102D5300950B8A828B83501FC3E098F0A3E099F010
:102D63008A828B83C3E09CA3E09D501C8A828B8361
:102D7300ECF0A3EDF08011E028F0A3E039F0122E7F
:102D8300BAC3EC98ED9940E4122EBA900BCCE068EC
:102D93007003A3E0697039E508700853F4FDC2912C
:102DA300022E9974016508700853F4FEC290022E36
:102DB3009974026508700853F37FC287022E9974D1
:102DC3000365086003022E9953F3BFC286022E994E
:102DD300E8497039E508700853F4FDD291022E9941
:102DE30074016508700853F4FED290022E997402A0
:102DF3006508700853F37FD287022E997403650820
:102E03006003022E9953F3BFD286022E99E5087010
:102E130014122EAF121FFBE8F5DD122EAF121FFBAB
:102E2300EAF5DC807174016508702690091DE0FCE9
:102E3300A3E0FDECF8EDF97AFF7B00121FFBE8F548
:102E4300DFECF8EDF97AFF7B00121FFBEAF5DE8079
:102E53004574026508701D90091F122EB2121FFBE4
:102E6300E89062ADF090091F122EB2121FFBEA9098
:102E730062AC802174036508701C900921122EB284
:102E8300121FFBE89062AFF0900921122EB2121FBD
:102E9300FBEA9062AEF00508E508C3940450030210
:102EA3002C7FE509F4F5AF7F0902229490091B12E8
:102EB3002EBE7AFF7B00228A828B83E0F8A3E0F99F
:102EC30022FFFFFFFFFFFFFFFFC082C083E9900ADD
:102ED30079F002315074F71220DDE99002E0F07CC2
:102EE300187D037AFF7BFF1209749002E174FFF0EF
:102EF300A3F0A3E4F0A3F079051208FC9002E0E04C
:102F0300F91208247A927B09120B4E023E5E74F486
:102F13001220DD8A088B09EB548060309002E0E0D8
:102F2300F91211008A0A8B0BAE0AAF0BEE4F601336
:102F33008E828F83E064B07003120914EEFAEFFB04
:102F43001210EEAA08E5096480FB80047A007B0076
:102F530002311F74F21220DD74FC122086EAFEEBAC
:102F6300FF74121220D1124345EE4F7003022FF962
:102F730074021220D1EEF0A3EF12335AECF0A3ED5A
:102F830012335AAA82AB8312081EE9F50A706AE566
:102F930008450960648E828F8312432BEE4F60567F
:102FA3007A067B001211548A0C8B0DA80CA90DE82C
:102FB300497005750A13804188828983E4123006BB
:102FC300EEF0A3EF124356E508F0A3E509F09002F3
:102FD300E612308D9002E67005123E08801B123D0A
:102FE300F68003EAFCEBFD8C828D8312308D70F347
:102FF3008C828D8380E3750A02A90A740412209CD3
:10300300024545F0A31242FCA32274F21220DD898B
:103013000AE975F017A4FEAFF09002E5E4F0900220
:10302300E312308D600A12115A9002E3E4F0A3F028
:10303300EEFAEFFB1211548A088B09EA4509602F57
:10304300EEFCEFFD79001210D69002E3E508F0A341
:10305300E509F07B008008123077E4F0A3F00BEB76
:10306300C3950A40F2E50A9002E5F07900800279FF
:1030730013024545EB75F017A4F8A9F09002E3E0BD
:1030830028FAA3E0398A82F58322123A9AEA4B227C
:1030930074F41220DD740C1220D1124320FEE9FFD8
:1030A300750800750900800CE5082401F508E50999
:1030B3003400F509C3E5089CE5099D503285080AEB
:1030C30085090B7403780A122073EA250AF8EB3595
:1030D3000BF988828983A3A3A3A3A3A3123EDDEEE6
:1030E300650A7003EF650B70BFE8FAE9FB80047AA9
:1030F300007B00802774F41220DD7900EAA2E050FF
:103103001B7508EA75098478081222F07C047D0097
:103113007A7B7B0A1208F6740212209C7F04022138
:10312300AFC082C0839002E6123157601C88828947
:1031330083A3A3E06A7003A3E06B8882898370E8AA
:10314300A3A3A3A3123A9680047A007B00D083D072
:103153008202012212462BE8492274EE1220DD740A
:10316300FC122086EAFEEBFF851882851983E4F0C2
:10317300A3F0EE2402123DE8EE2405124303EE24ED
:1031830004F50EEF12370FE024FE603924FC60468D
:1031930024FE605224FE605E24FE7003023270241B
:1031A300FE70030232D424FE70030232E324FE7065
:1031B300030232F224FC700302330124FE70030283
:1031C300331002334D9002FF7417F0A3E4123362FD
:1031D30012059C02334D851882851983AC82AD8319
:1031E30012091A02331D851882851983AC82AD83B7
:1031F30012092002331D850C08850D097402122063
:10320300D1AC82AD83850882850983123A96120870
:10321300428A0C8B0DAC0CAD0DEC4D603BE4F50C10
:10322300F50D780C1222F0750CFF750D02780C1257
:1032330022F0750C00750D03780C1222F07408123D
:1032430020D11223071247A712209CE9F50C700B1B
:10325300123A8C1205B4800F750C0185088285091A
:1032630083123350123E08850C0802332074021275
:1032730020D1AC82AD83850C82850D8312386160C9
:103283003C850C82850D83A3A31223077510FF755C
:10329300110278101222F0751000751103781012C4
:1032A30022F074081220D11223071247A712209C80
:1032B300E9F509700B123A8C1205BA800F750901F2
:1032C300850C82850D83123350123E0885090880D0
:1032D3004C851882851983AC82AD83120926803A06
:1032E300851882851983AC82AD8312092C802B85C6
:1032F3001882851983AC82AD83120932801C85182C
:1033030082851983AC82AD83120938800D851882BA
:10331300851983AC82AD8312093EE9F508E508609F
:10332300298E828F83A3E06414601F850E82850F2C
:1033330083E09002FF12335A124627900300123E95
:1033430008E508A3123362120596023CF712462BD6
:1033530085188285198322F085188285198322F0C6
:103363007CFF7D02850A82850B83123A9A2274EED2
:103373001220DD74FC1220868A0A8B0B8C0E8D0FB3
:10338300EA2405F508EB3400F5097C157D00790086
:103393007AFF7B021210D6E5082402F50CE5091228
:1033A30043068518828519838582108583117810D9
:1033B3001222F0850882850983A3A3A3A312385898
:1033C3001222F0E5082405F510E5093400F511781B
:1033D300101222F0850C82850D83123BAD12083C3E
:1033E300740612209C8A108B11AE10AF11E50A24CB
:1033F30002F50AE50B123DEBEE4F700302352F8009
:103403001774021220D1123A9688828983EAF0A3B4
:10341300EBF09002FFE004F09002FFE0C39405405C
:103423000302352FE4F510F51178101222F0751010
:10343300E875110278101222F07510E975110278FF
:10344300101222F074061220D11223077910EEFC19
:10345300EFFD1247A912209CE9705E850882850959
:1034630083A3A3A3A3A3A3A3E0F89002E8E0687057
:10347300481238581222F07CE97D02E5082408FA44
:10348300E5093400FB1210D0740212209CE9602974
:103493008E828F83A3A3A3A3123A969002FFE0F533
:1034A300107402781012207374002510F5827403CF
:1034B3003511F583EAF0A3EBF074021220D1858273
:1034C3001085831178101222F074021220D1122376
:1034D30007850C82850D83123ABC12209C8A108BBF
:1034E30011AE10AF119002FFE0F5107511007402D8
:1034F300781012207374FF2510F874023511F988BF
:10350300828983A312308D70030233FBE8240308FE
:103513000808E93400F9EE4F600302340488828915
:103523008374FFF0A3F09002FFE004F09002FFE049
:10353300600A123A8C1205A87900800B85088285EF
:103543000983123DFF790A023CF774EA1220DD7405
:10355300FE1220868C128D13EA2405F50CEB12471C
:103563009112432F750800750900EA2402F510EB48
:103573003400F51185188285198385820A85830BAA
:10358300780A1222F0850C82850D83A3A3A3A312CC
:1035930037251222F0E50C2405F50AE50D123DEB63
:1035A300780A1222F0850C82850D831237291208BE
:1035B3003C740612209C8A0A8B0BEA450B700302AB
:1035C30036CAEA2404F50EEB12370F12432F8A8210
:1035D3008B83A3A3A3E0F9851082851183123AA0FC
:1035E30060030236CAE4F514F51578141222F07557
:1035F30014E875150278141222F07514E975150292
:1036030078141222F074061220D11223077913AC16
:103613000AAD0B8510828511831247AF12209CE9F6
:10362300F50960030236CA9002E8E0F8E50870097C
:10363300E02402900300F08014900300E0FCE824EF
:1036430002FAE43400FBEA6C7001EB707E850882B9
:10365300AA8212384F9414123847506B850E828514
:103663000F83E0C0E074012A123706D0E0F00508AA
:10367300850E82850F83A3E0C0E085080A740125C7
:103683000A123706D0E0F005089002E81237251237
:1036930022F07CE97D0285080A7401250A12371994
:1036A30012209C9002E8E02508F50874FF6E700371
:1036B30074FF6F6012EE24010EEF3400FFE508C3C0
:1036C30094145003023577E5086013123AAA851063
:1036D30082851183123A961205AE79008014E509AA
:1036E300700375090A851282851383EEF0A3EFF048
:1036F300A909740212209C7F0E0221AF85080C7465
:1037030001250CF58274033400F583223400F50F90
:10371300850E82F58322FA74033400FB1210BE7403
:10372300022212436522A3A312372F22123DF6FD74
:10373300EEFAEFFB2274EE1220DD74FE1220868C6B
:103743000E8D0FEA2405F50CEB124306750B009062
:1037530002FFE4F0F50AEA2402F508EB3400F50968
:1037630080449002FFE0FA9002E8E0F812384F94A8
:1037730017123847400D9002FFE0F87416C3989073
:1037830002E8F01238581222F07CE97D0274002A14
:10379300FA740312371C12209C9002E8E0F890029E
:1037A300FFE028F0050AE50C2416F582E50D123733
:1037B3000AE0F8E50AC39850749002FFE0C3941638
:1037C300506BE50AC333F8E433F9E50C28FEE50D45
:1037D30039FF851882851983AC82AD838E828F83EE
:1037E3001238617008750B01123DFB8050E4F5102F
:1037F300F51178101222F07510E875110278101285
:1038030022F07510E975110278101222F074061275
:1038130020D112230779168508828509831247AFC1
:1038230012209CE9F50B700302376580BB7CFF7D9A
:1038330002850882850983123A961205C0A90B7482
:1038430002023CF9E99400C365D03322EA28F8E484
:103853003400F9E822E0F510751100781022123CCB
:10386300EE8A108B11AC10AD11EC4D2274EA1220CC
:10387300DD74FC1220868A0C8B0D8C128D13EA24C6
:1038830005F50AEB123DEB750800750900E50A24FE
:1038930002F510E50B3400F51174021220D1858274
:1038A3000E85830F780E1222F0850A82850B83A37F
:1038B300A3A3A312430B1222F0E50A2405F50EE598
:1038C3000B3400F50F780E1222F0851082851183D8
:1038D300123DF1123A9012083C740612209C8A0E93
:1038E3008B0FAE0EAF0FE50C2402F50EE50D340081
:1038F300F50F80388882898374FFF005081236FF3C
:1039030074FFF005089002E8E0F50C750D00780CE3
:103913001222F07CE97D0285080C7401250C123714
:103923001912209C9002E8E02508F508EE4F602765
:103933008E828F83A3A3A3E0F9850E82850F831262
:103943003AA0EE2404124303E96027850C82850D17
:1039530083123A82123E08E5087003023A68123A6B
:10396300AA850E82850F83123A961205C679000244
:103973003A7DE4F514F51578141222F07514E87500
:10398300150278141222F07514E9751502781412D1
:1039930022F074081220D11223077911EEFCEFFDF7
:1039A300850E82850F831247AF12209CE9F50970BB
:1039B3009A850882AA82EA9002E87009E0240490BA
:1039C3000300F08025E0F8900300E0F514E82404F8
:1039D300FCE43400FDEC65147001ED708112384F86
:1039E30094121238474003023961850C82850D8396
:1039F300E0C0E074012A123706D0E0F00508850C18
:103A030082850D83A3E0C0E01236FFD0E0123AC5F1
:103A130085820C85830D780C1222F074041220D158
:103A2300122307851082851183123ABC12209C8AC7
:103A33000C8B0DAE0CAF0D85080C7401250CF874BE
:103A4300033400F9EE4F70030238F78518828519A5
:103A530083E088828983123AC5A3E0C0E01236FF6F
:103A6300D0E0023905E509700375090A850A8285E4
:103A73000B83123A82123E08A90974040236F71224
:103A8300462B851282851383227CFF7D02850A8261
:103A9300850B83123A9A22E0FAA3E0FB22123A9AA8
:103AA30012082AE9F50922900300E0F5F0E50884FD
:103AB3009002FFF07CFF7D022212372F1208487418
:103AC3000422F005088518828519832274EC1220DC
:103AD300DD74FE1220868A088B098C0E8D0FEA2472
:103AE30005FEEB3400FF123CD8EE2418124303EA20
:103AF300450B7003023B7B123CC15029123BA08A49
:103B0300108B11EA4511606B7912AC0AAD0B850875
:103B130082850983123A968510828511831220DBF0
:103B2300E9F50A7058E4F50AF50B780A1222F08ECB
:103B3300828F83A3A3E0F50A780A1222F0EE24030E
:103B4300123DE8780A1222F08E828F83123BAD1267
:103B53000962740612209CE9F50A7021850C82859E
:103B63000D83E0701F850882850983123A9612053A
:103B7300CC8011750A0E8009750A018004E50A607C
:103B830003123DFB850C82850D83E0600479008080
:103B930002A90A740212209C7F0C0221AF851882AD
:103BA300851983123A9A12095022123DF6FD8508AF
:103BB30082850983123A9A2274EE1220DD74FE1272
:103BC30020868A088B098C0C8D0DEA2405FEEB34C4
:103BD30000FF750E00123CD8EA450B7003023C9FB0
:103BE300123CC1502C123BA08A0E8B0FEA450F608A
:103BF3004A7912AC0AAD0B850882850983123A967D
:103C0300850E82850F831220DBE9F50E6003023CEB
:103C1300A2850882850983123EDDAA0AFB123CB302
:103C230070147AFF7BFF123CB3606C88828983E552
:103C33000AF0A3E50BF0750A008007750E0E805F8E
:103C4300050A9002E5E0FAE50AC39A504AE50A75C7
:103C5300F017A4FAABF088828983A3A3E02AFAA31E
:103C6300E03BFB8A828B83123DF1EC4D70D2750AE7
:103C730017750B00780A1222F0EEFCEFFD1210BE4E
:103C8300740212209CEEFCEFFD85088285098312E5
:103C93003A961205D28014750E098003750E01122F
:103CA3004623850C82850D83123E08A90E023842F5
:103CB3001209448A108B11A810A911E84922E508BA
:103CC3002402F508E5093400F5098A828B83A3A34E
:103CD300A3E0A2E522851882851983AC82AD838E89
:103CE300828F83123CEE8A0A8B0B22E0FAA3E0FB5D
:103CF30012084222740412209C7F0A0221AF74EC42
:103D03001220DD8C108D11EA2405F50CEB1243060D
:103D1300750F00EA2402F50AEB123DEB850A82F5E2
:103D230083123A961248357003023DDD750E00800A
:103D330071850C82850D83E06401704F8E828F83C1
:103D4300A3A31223078E828F83A3A3A3A3E0F51259
:103D530075130078121222F0EE2405F512EF3400E9
:103D6300F51378121222F0123A90120962740612B5
:103D7300209CE9F50F6014850C82850D83E4F01215
:103D83004623851082851183123E087C177D0079B6
:103D930000EEFAEFFB1210D68E828F83E4F0A3F0CD
:103DA300050E9002E5E0F8E50EC398501EE50E758A
:103DB300F017A4F8A9F0850882850983A3A3124705
:103DC3009B123DF1EC4D6003023D34850882850969
:103DD3008374FFF0A3F0E50F7006123A901205D832
:103DE300A90F023B9BF50AEF3400F50B22A3123D0A
:103DF300F6FD22E0FCA3E0228E828F8312462B8500
:103E03000E82850F83E8F0A3E9F022C082C083907D
:103E130002E1E06A7003A3E06B70067AE17B028043
:103E2300047A007B0002315074F71220DD7F00EF2B
:103E330075F003A4F8A9F0EC28F8ED39F988828924
:103E430083E06A7003A3E06B7006E8FAE9FB800B7A
:103E53000FEFC3940240D87A007B007F010221AFA9
:103E630074F61220DD12441470067A007B0080077A
:103E7300A3A3A3A3123A960244D574F21220DDE958
:103E8300FE740E1220D1123EDD74101220D11243A3
:103E9300458C828D83E06402703BA312462788829F
:103EA3008983E0F50CA3E0F9A80C7402687003742D
:103EB30029697021750C02750D00780C1222F078B7
:103EC300081222F0780A1222F0EEF912098674061B
:103ED30012209C80027901024545E0F50AA3E0F532
:103EE3000B2274E81220DD74FB122086E985188208
:103EF300851983F08A168B178C0E8D0F741F122071
:103F0300D112434574211220D1123EDD74231220B5
:103F1300D112432F7510008C828D83A3A3A3E0A23B
:103F2300E4502A741D1220D1123BA68A828B83E5AA
:103F33008245837003023FF1790AAC0EAD0FAA16D6
:103F4300AB171220DBE9F5106003023FF4850E8204
:103F5300850F83E0640260030242AAA31246278509
:103F63000882850983A3858212858313E50E2406BF
:103F7300F50CE50F12430688828983E0FAA3E0F982
:103F8300EA2400F514E439F515781412237A0100B4
:103F930000280128B93F0700022890400328004069
:103FA3000029BA410129E241022989410329BA4181
:103FB30004294B42AA42EE4F703E850C82850D8345
:103FC300124320FAE9FB8A828B83E0850A82850B00
:103FD3008312435C1222F08A828B83A3123DF6FD87
:103FE300AA08AB091210BE740212209C800375103C
:103FF3000EA910740502478975100B80F4EE4F70FB
:10400300F7850A82850B837401F012433585088294
:10401300850983F07C007D00850E82850F83A3A331
:10402300A3A3E02401FAA3E03400FB120842EA4B05
:1040330060418A828B83E02402F8850A82850B83A0
:10404300E028F0EA2404F8EB3400F988828983E05D
:1040530085128285138312436E12435C1222F08A07
:10406300828B83123DF0E5082403FAE5093400FB53
:10407300023FE7850A82850B83E02404F07C047DFC
:10408300007900AA12AB131210D6023FF4EE4F6070
:1040930003023FFB124335FEA3E0FF850A82850B33
:1040A300837404F0EE850882850983F0EF8512821C
:1040B300851383F074031220D1AC82AD83EEFAEF43
:1040C300FB12440270030241668A828B83A3A3120C
:1040D300432B74011220D185820E85830F780E1233
:1040E30022F074051220D11223077CFF7DFF1208F2
:1040F30048740412209C8B0FEA450F7033850C82A1
:10410300850D8312430B1222F0850C82850D83A348
:104113001223077C027D007ACD7B8512067474041A
:1041230012209CE9700A74011220D174FFF0A3F0ED
:104133008E828F83E064027034750C02750D0078F3
:104143000C1222F08E828F83123DF0E5082404FACC
:10415300E50912371C12209C850A82850B83E02413
:1041630002800974011220D1EEF0A3EFF074011262
:1041730020D112431CF074011220D1A3124314A3C3
:10418300A3A3F0023FF4EE4F6003023FFB850C82D2
:10419300850D83123DF1AA16AB1712097A850A829F
:1041A300850B837402F0EA850882850983F0851202
:1041B30082851383EB80CBEE4F6003023FFB1243F8
:1041C30035F8A3E0F9850A82850B837402F0E8854C
:1041D3000882850983F0E985128285138380A3858C
:1041E3000C82850D83123A961210B8EAFC8C82A8D1
:1041F30082C39EE49F404BE86E7001EF70047C0025
:10420300801F851882851983E0FAEE2AFAEF3400BD
:10421300FBC3EA98EB94005003E08004EECCC39C0C
:10422300FCEC850A82850B83F08C0A750B00780AF7
:104233001222F0850C82850D83E02EFCA3E03F0261
:104243003FE2751007023FF4EE4F6003023FFB8528
:104253000C82850D83124627850A82850B8374079A
:10426300F0888289831243141242FCE0851282850E
:104273001383F0E82402FAE93400FB8A828B831269
:10428300431412434D12431CA3124356124325F009
:10429300E82405F8E93400F988828983124325A3C9
:1042A30012436EA3024182741D1220D112440D7079
:1042B30003023FF1124627880C890DE8450D700370
:1042C300023FF18E108F1178101222F0780A122219
:1042D300F078081222F074061220D1E0F9AC0EAD8A
:1042E3000FAA16AB17850C82850D831220DB74068B
:1042F30012209CE9F510023FF4F088828983A322FF
:10430300F50CEF3400F50D22E0F50E750F00780E75
:1043130022E0850882850983221243752212462BE7
:10432300E822124375A3A322A3A3A3A3E0FEA3E061
:10433300FF22850C82850D83E0F8A3E0F583888254
:10434300E022E0F508A3E0F50922A3A3F08A828B1B
:1043530083A322123008A3A322F08A828B83124301
:104363006522E0F50A750B00780A221242FC12431B
:104373007522E0850882850983A3A32274EE1220A7
:10438300DD74FE1220868A0A8B0BECFAEDFB7414A3
:104393001220D1E0F510A3E0F51174161220D1E03C
:1043A300FE74181220D1E0F50EA3E0F50F851882F4
:1043B300851983AC82AD83124402603E85188285E1
:1043C300198312440D602FA3A3124345E508450941
:1043D3006024780E1222F078101222F0EEF9AC0C61
:1043E300AD0DAA0AAB0B8508828509831220DB7405
:1043F3000412209C8006790E800279010238421251
:1044030008428A0C8B0DEA450D22123A9A12441483
:104413002212090E8A828B83E58245832274F61267
:1044230020DD74FE122086740C1220D112432085E5
:104433001882851983F074011220D1E9F0E4F5089C
:10444300F50978081222F075080278081222F07430
:10445300041220D185820885830978081222F0127C
:104463000962740612209C740212209C806474F703
:104473001220DDEAFEEBFF89087C187D0312097A1E
:10448300EA5402600BA908EEFAEFFB120836800229
:104493007901023E5E74F61220DD74FF6A700374C4
:1044A300FF6B701C7B00EB75F003A4F8A9F0EC28FC
:1044B300F8ED39F91244DA0BEBC39402501480E699
:1044C30012094A8A088B09A808A909E84960031256
:1044D30044DA7F020221AF8882898374FF12300697
:1044E300E4F02274F61220DD12094A8A828B83E5F6
:1044F3008245836006A3A3E0FA80027A007B0080F2
:10450300D174F21220DD8A088B09ECFEEDFF740EE4
:104513001220D1E0F50A12454A701CEEFCEFFD7A39
:10452300FF7BFF12454A70047911801688828983C4
:10453300E508F0A3E509F088828983A3A3E50AF0DF
:1045430079007F060221AF12094A8A0C8B0DA80C51
:10455300A90DE8492274EE1220DDEAFEEBFF8C0878
:104563008D09890C74121220D1124627741412205B
:10457300D1123DF174161220D1123A96750D00EC4A
:104583004D600302461B7402650C600302461688E5
:10459300828983123DF6F9EC2400F50EE439F50F18
:1045A300EAF4F8EBF4F9EC58F8E50F59F9E8497037
:1045B3005DE5082406F8E5093400F9880A890B88C3
:1045C30082F58312372B12097A8A108B11E50E6557
:1045D300107004E50F65116042780E1222F0850A0F
:1045E30082850B8312372B120980740212209CE9F7
:1045F300F50D7027780E1222F0850882850983A3B2
:10460300A3123729120998740212209C800D750D8C
:10461300808008750D0D8003750D0BA90D023CFC00
:104623008E828F8312462B22E0F8A3E0F92274E8EE
:104633001220DD74E7122086851882851983EAF03B
:10464300A3EBF08C168D17890E74311220D1E0F58F
:1046530012A3E0F51374331220D1E0F514A3E0F5AF
:104663001574351220D1E0F50F750800750900E5C2
:104673000975F003A4F8A9F08518828519831247F8
:104683009BE0F47003A3E0F47003024779EE240285
:10469300F50CEF124791E0700302477985160A85FE
:1046A300170B780A1222F0AC14AD15AA12AB131231
:1046B3000902740212209C8A0A8B0BEA450B7003D1
:1046C300024779E4F510F51178101222F0740612FE
:1046D30020D185821085831178101222F07409127B
:1046E30020D185821085831178101222F0851282E1
:1046F300851383A3A3A3A31223077914AC0AAD0BD9
:104703008E828F831247AF12209CE97069850A82DB
:10471300850B83A3A3A3A312462774021220D112ED
:104723003E08850C82850D83E0A2E05018A90E7423
:10473300021220D1AC82AD838E828F83123A9612FD
:10474300085AE94208850C82850D83E0A2E15026D0
:10475300E50FF50A780A1222F4A90E74031220D188
:10476300AC82AD838E828F83123A96120854740101
:1047730012209CE942080509E509C394025003028B
:104783004672A908741912209C7F100221AF3400CD
:10479300F50D850C82F58322E028FEA3E039FF8E18
:1047A300828F83227916850A82850B83123A9A12A5
:1047B300095C74082274F21220DDEAFEEBFF890B18
:1047C3007401650B600E7402650B70637901120B43
:1047D3006CE9705BEEFAEFFB1248356047750A002F
:1047E300800B7C177D0079001210D6050A9002E534
:1047F300E0F8E50AC3985021E50A75F017A4F8A973
:10480300F0850882850983A3A3E028FAA3E039FB96
:104813008A828B8312315770C98508828509837414
:10482300FFF0A3F07C187D03EEFAEFFB120974028C
:1048330045451209448A088B09EA45092274F21294
:1048430020DD8A088B09ECFEEDFF740E1220D112D5
:104853003EDD900A79E0F4603D7A097B001210E8AE
:10486300EA4B60328A828B8374B1F0A3E412434F24
:10487300A312434DA3E508F0A3E50912489CEEF00B
:10488300A3EF12489CA3A3E50AF0A3E50BF0900A5B
:1048930079E0F91210F4024545F08A828B83A3A3D1
:1048A300A3A3A322C082C0839061907404F0A37475
:1048B30048F0A37402F09061807440F09061BC747E
:1048C30003F09061877419F0906265741BF0906136
:1048D3009C740DF090619A7433F0A37455F0906159
:1048E300A0743AF090055CE064017009C2919003F2
:1048F300C6746780059003C67461F0902ECAE49372
:10490300906186F0902EC4E493F46027E493540FEF
:10491300F8906185E0686012E5C654804449F5C6A5
:10492300E59E547F644970F8E8F053C680E59E54D1
:104933007F70FA7905120EA2024ABCC082C083E5D9
:10494300A8F853A87E906181E4F0A3F0A3F0C2BA63
:10495300539AFEC289759B00C2C275E90075910026
:1049630075BF0075A91175B905906181F0A374C075
:10497300F0A3E4F0D2BA439A0174805842A8024AE1
:10498300BCC082C08374F81220869003C4E0F8A3ED
:10499300E0F9E8497003024AB29003C4E05440606E
:1049A300237908851882851983AA82AB83120D1C8B
:1049B300851882851983AA82AB831209FE9003C4EA
:1049C300E054BFF0E054806010790C7A807B0512CC
:1049D3000D1C9003C4E0547FF0E0A2E050319061DD
:1049E3009A7433F0A37455F09061A0743AF0900573
:1049F3005CE064017009C2919003C67467800590FE
:104A030003C67461F0120A049003C4E054FEF0E09C
:104A13005402603190619A743FF0A3745AF090612C
:104A2300A0747FF090055CE064017009D29190035B
:104A3300C6747180059003C6746AF0120A04900369
:104A4300C4E054FDF0E054046013902EC8E4939046
:104A53006186F0120A0A9003C4E054FBF0E05408A4
:104A63006013902EC9E493906186F0120A0A9003B2
:104A7300C4E054F7F0E054106013902ECAE493900E
:104A83006186F0120A0A9003C4E054EFF0E0542068
:104A9300600A120A0A9003C4E054DFF0A3E0540151
:104AA300600D120C44120A109003C5E054FEF0741A
:104AB3000812209C8003F0A3F0D083D0820201224D
:104AC30074EC1220DD74F412208685188285198314
:104AD300AC82AD8375838575823C7404121F9990F3
:104AE3002EC893F46003024C50907808E0C39402FC
:104AF3005003024C3074041220D1AC82AD83758311
:104B0300847582DB7408121F998518828519838541
:104B1300821285831374041220D1AC82AD83750E87
:104B2300FF750FFF7FFF7E00750C48750D788015AC
:104B330074086E7003024BC374096E7003024BC397
:104B4300740A6E607B850C82850D837808121F566C
:104B53008C828D83A909E50AC9F88810741878082E
:104B6300121E84E5104508F8C3E098A3E099850C6C
:104B730082850D837808121F5640188C828D8374AA
:104B8300187808121E84E5104508F8E0C398F8A3C6
:104B9300E0801C74187808121E84E5104508FAE9B1
:104BA300FB8C828D83E0F8A3E0F9EAC398F8EB99D4
:104BB300F9C3E8950EE9950F5006880E890FEEFFAD
:104BC3000EE50C2404F50CE50D3400F50DEEC3944D
:104BD300135003024B3374FF650E700474FF650FAB
:104BE30060238F087402780812207374482508F52F
:104BF3008274783509F5837808121F5685128285E9
:104C03001383E508F0EC24020C0CED3400FD85124F
:104C130082851383A3858212858313740C1220D19A
:104C2300E5826C7003E5836D6003024B2175080117
:104C330075090078081222F074021220D1AC82ADFB
:104C4300837AB27B0B1212EC740212209C740C1246
:104C5300209C7F0C0221AFC082C0839061AE746838
:104C6300F0A3746AF090624574FBF0A304F053F46C
:104C7300FD43FE0290055C7401F09061A0E0643A8C
:104C830090619A70237433F0A37455F09061A0740B
:104C93003AF0740164017009C2919003C67467808D
:104CA300289003C674618021743FF0A3745AF09076
:104CB30061A0747FF0740164017009D2919003C6FE
:104CC300747180059003C6746A024ABB7F04022193
:104CD300AFC082C08390050EE06401700A90051393
:104CE300E06004790C80027900024ABCC082C08370
:104CF30075E1F1900511E0605514600814605914D2
:104D030060518059120C56900507E0F97A087B052B
:104D1300120E24908540121F74120E5A90852C1285
:104D23001F74120E30900512E0F9120E3C79011235
:104D33000E96900505E02416F8A3E03400F9888266
:104D43008983746EF0A3740CF07900024ABC120CD0
:104D53005C80B4120C6280AF120C6880AA79128056
:104D6300EA74F41220DD75D90D9004F6E0A2E0E4B4
:104D7300331313F8900507E0C4333354C048440198
:104D8300F5D97805790588828983A3A3A3E0F5D9AA
:104D930088828983A3A882A983E8640B7003E964EA
:104DA3000570E378F6790488828983A3E0F5D988CE
:104DB300828983A3A882A983E864FC7003E964045D
:104DC30070E575E1959004F6E0F97AF77B04120E2D
:104DD3002A900A9B7408F0A3740CF0A37464F0A3E4
:104DE300740DF0A37464F0A3740DF0A37464F0A3C2
:104DF300740DF0A3740EF0A3740CF0A37464F0A309
:104E0300740DF0A37426F0A3740CF0900AA97464D3
:104E1300F0A3740DF0A37464F0A3740DF0A3746491
:104E2300F0A3740DF0A37464F0A3740DF0A3746481
:104E3300F0A3740DF0A37464F0A3740DF090050552
:104E4300E0F8A3E0F5838882A3A37808121F5690A5
:104E5300854C7808121ECF9085347808121F1D9058
:104E63000505E0240EF8A3E03400F98882898378ED
:104E730008121F65900505E02414F8A3E03400F937
:104E8300888289837413F09003C27402F0024CCFBA
:104E9300C082C083900517E02407F5D9900507E089
:104EA300C4333354C0F5D97805790588828983A33F
:104EB300A3A3E0F5D988828983A3A882A983E864A0
:104EC3000B7003E9640570E3900517E0601F780534
:104ED3007905FAE82413F582E93400F583E0F5D97E
:104EE30088828983A3A882A9831AEA70E69005378A
:104EF300E02407F5D9900507E0C4333354C04404D4
:104F0300F5D97805790588828983A3A3A3E0F5D928
:104F130088828983A3A882A983E8640B7003E96468
:104F23000570E3900537E0601F78057905FAE824FA
:104F330033F582E93400F583E0F5D988828983A3C8
:104F4300A882A9831AEA70E675E195900A9B741406
:104F5300F0A3740CF0A37464F0A3740DF0A3746451
:104F6300F0A3740DF0A37464F0A3740DF0A3740E96
:104F7300F0A3740CF0A37464F0A3740DF0A374266F
:104F8300F0A3740CF0900AA97464F0A3740DF0A359
:104F93007464F0A3740DF0A37464F0A3740DF0A310
:104FA3007464F0A3740DF0A37464F0A3740DF0A300
:104FB3007464F0A3740DF0908548121F7490050576
:104FC300E0240EF8A3E03400F988828983121F805D
:104FD300900505E02414F8A3E03400F9888289835E
:104FE3007412F09003C27401024ABBC082C0839062
:104FF3000517E02407F5D9900507E0C4333354C0FF
:105003004402F5D97805790588828983A3A3A3E0AF
:10501300F5D988828983A3A882A983E8640B7003E6
:10502300E9640570E3900517E0601F78057905FAD8
:10503300E82413F582E93400F583E0F5D988828901
:1050430083A3A882A9831AEA70E675E195900A9B67
:105053007420F0A3740CF0A37420F0A3740CF0A3D9
:105063007420F0A3740CF0A37420F0A3740CF0A3C9
:105073007420F0A3740CF0A37420F0A3740CF0A3B9
:105083007426F0A3740CF0900AA97464F0A3740D51
:10509300F0A37464F0A3740DF0A37464F0A3740D0F
:1050A300F0A37464F0A3740DF0A37464F0A3740DFF
:1050B300F0A37464F0A3740DF0908548121F7490EC
:1050C3000505E0240EF8A3E03400F98882898312F1
:1050D3001F80900505E02414F8A3E03400F98882CA
:1050E30089837414F09003C27404024ABBC082C063
:1050F30083900517E02407F5D9900507E0C43333FF
:1051030054C04406F5D97805790588828983A3A319
:10511300A3E0F5D988828983A3A882A983E8640BD5
:105123007003E9640570E3900517E0601F78057963
:1051330005FAE82413F582E93400F583E0F5D9880C
:10514300828983A3A882A9831AEA70E6900537E0CF
:105153002407F5D9900507E0C4333354C04404F55C
:10516300D97805790588828983A3A3A3E0F5D98833
:10517300828983A3A882A983E8640B7003E9640589
:1051830070E3900537E0601F78057905FAE824336A
:10519300F582E93400F583E0F5D988828983A3A8F1
:1051A30082A9831AEA70E675E195900A9B741AF056
:1051B300A3740CF0A37464F0A3740DF0A37464F0EF
:1051C300A3740DF0A37464F0A3740DF0A37464F0DE
:1051D300A3740DF0A37464F0A3740DF0A37426F00C
:1051E300A3740CF0900AA97464F0A3740DF0A37473
:1051F30064F0A3740DF0A37464F0A3740DF0A374AE
:1052030064F0A3740DF0A37464F0A3740DF0A3749D
:1052130064F0A3740DF0908548121F74900505E0A7
:10522300240EF8A3E03400F988828983121F80904A
:105233000505E02414F8A3E03400F9888289837417
:1052430015F09003C27403024ABBC082C083900569
:1052530005E0F8A3E0F5838882A3A3A3A3A3A3E4B3
:10526300024AB974F71220DD9003F0E0F875F004F8
:10527300A4C8AAF02AF974F228F8740339F9E824C7
:1052830005FAE93400FB8A828B83E0FCA3E0FD8806
:10529300828983A3A3A3A3A3A3A3A3A3ECF0A3ED56
:1052A300F088828983A3A3A3A3A3A3A3E024FFF885
:1052B300A3E034FFF98A828B83E8F0A3E902550B5C
:1052C30074F71220DDEAFEEBFF9061D0E060030289
:1052D30053A075D90E75D90375D904EE248CF582C4
:1052E300EF3400F583E5822408F8E5833400F9E020
:1052F300F5D9A3E865827003E9658370F2EE24842F
:10530300F582EF3400F583E5822404F8E583340065
:10531300F9E0F5D9A3E865827003E9658370F27556
:10532300E1957908EE248CFAEF3400FB120D107925
:1053330004EE2484FAEF3400FB120D107C00EEF827
:10534300EFF9ECFAC3E49AFA95E0FBEE2AFAEF3BA5
:10535300FBEA248BF582EB3400F583E0C0E0E8241C
:10536300ABF582E93400F583D0E0F00C88828983C1
:10537300A3A882A983ECC3940840C7EE2470F582E6
:10538300EF3400F583E0F8A3E0F9EE2472F582EF41
:105393003400F583E8F0A3E9F07901800279000293
:1053A300550CC082C08375D90275D90375D90575AB
:1053B300E195EA2470F582EB3400F583E0F8A3E08D
:1053C300F9EA2472F582EB3400F583E8F0A3E9F0FF
:1053D3007901024ABC74F61220DDEAFEEBFF900568
:1053E300607406F075086075090578081222F07C70
:1053F300017903120D58740212209C75D90675D9D0
:1054030003758260758305E0F5D9A3E58264657051
:1054130004E583640570F075E1959003C2E06408C8
:10542300701EEE2470F582EF3400F583E0F8A3E0FC
:10543300F9EE2472F582EF3400F583E8F0A3E9F086
:1054430079010255D874F61220DDEAFEEBFF906174
:10545300D0E070667801900560740BF09003C2E0B1
:105463006407701975086075090578081222F07CC5
:10547300017903120D58740212209C7805740128D7
:10548300F5D975D903758260758305E8FAE0F5D916
:10549300A31AEA70F875E195EE2470F582EF3400F3
:1054A300F583E0F8A3E0F9EE2472F582EF3400F51A
:1054B30083E8F0A3E9F07901800279000255D874FA
:1054C300F71220DDEAFEEBFF75D90375D90375D911
:1054D3000DEE24DEF582EF3400F583E0F5D975E1B6
:1054E300957904120E60EE2470F582EF3400F58393
:1054F300E0F8A3E0F9EE2472F582EF3400F583E8D7
:10550300F0A3E9F079018001F07F010221AF74F685
:105513001220DDEAFEEBFF9061D0E0F87480C398BF
:10552300FAEE2483F582EF3400F583E06004780417
:1055330080027800E8240BF8EAC39850030255D69A
:105543007D09900560EDF0EE24E3F8EF3400F97A7D
:10555300617B057C0888828983E08A828B83F0885B
:10556300828983A3A882A9838A828B83A3AA82AB1D
:10557300831CEC70E0EE2483F582EF3400F583E0C6
:10558300601D75086075090578081222F07C097999
:1055930003EEFAEFFB120D58740212209C7D0D747A
:1055A300012DF5D975D9037582607583058D08E0E2
:1055B300F5D9A31508E50870F675E1957904120E7F
:1055C30060EE241DF582EF3400F583E4F0A3F07957
:1055D30001800279007F020221AF74F61220DDEA16
:1055E300FEEBFF9061D0E0F87480C398FAEE248359
:1055F300F582EF3400F583E06004780480027800DC
:10560300E82408F8EAC39850030256DD7D069005A6
:1056130060740CF09003DFE0900561F07AE07B03A7
:10562300786279057C028A828B83E088828983F0A1
:105633008A828B83A3AA82AB8388828983A3A8826D
:10564300A9831CEC70E07AE27B037C028A828B8361
:10565300E088828983F08A828B83A3AA82AB8388C2
:10566300828983A3A882A9831CEC70E0EE2483F5CE
:1056730082EF3400F583E0601D75086075090578D5
:10568300081222F07C067903EEFAEFFB120D587430
:105693000212209C7D0A74012DF5D975D9037582F8
:1056A300607583058D08E0F5D9A31508E50870F644
:1056B30075E1957904120E60EE2470F582EF3400E3
:1056C300F583E0F8A3E0F9EE2472F582EF3400F5F8
:1056D30083E8F0A3E9F07901800279000255D874D8
:1056E300F61220DDEAFEEBFF9061D0E0F87480C390
:1056F30098FAEE2483F582EF3400F583E0600478B2
:105703000480027800E82404F8EAC398500302579F
:10571300BC7802900560E8F0EE24F5F582EF3400E2
:10572300F583E0900561F0EE2483F582EF3400F514
:1057330083E0601B75086075090578081222F07C08
:10574300027903EEFA120D58740212209C78067443
:105753000128F5D975D9037582607583058808E03A
:10576300F5D9A31508E50870F675E195EE2474F5EF
:1057730082EF3400F583E4F0EE2480F582EF340009
:10578300F583E4F0EE241DF582EF3400F583E4F0B5
:10579300A3F07904120E60EE240DF582EF3400F5C8
:1057A30083E0F8A3E0F9EE2472F582EF3400F58389
:1057B300E8F0A3E9F07901800279000255D874F684
:1057C3001220DD9061D0E0F87480C398FCEA248352
:1057D300F582EB3400F583E06004780480027800FE
:1057E300E82404F8ECC398405B79029005607407E1
:1057F300F0EA24F6F582EB3400F583E0900561F0DE
:10580300EA2483F582EB3400F583E06018750860C1
:1058130075090578081222F07C0209120D587402EA
:1058230012209C7906740129F5D975D90375826014
:10583300758305E9F8E0F5D9A318E870F875E195E3
:105843007901800279000255D874F51220DDE9FC54
:10585300A2AFE433F50AC2AF7D0080010DEA246FE5
:10586300F582EB3400F583E0F8EDC398501A8D0808
:10587300EA2508F8EB3400F9E8246BF582E93400F3
:10588300F583E06C70D68024EA246FF8EB3400F9DA
:10589300E0FEEA2EFAEB3400FBEA246BF582EB34EC
:1058A30000F583ECF088828983E004F0E50AA2E046
:1058B30092AF7F030221AF74F61220DDA2AFE4336F
:1058C300FDC2AFEA246FF582EB3400F583E014F0F8
:1058D3007C0060368C08EA2508F8EB3400F9E824EC
:1058E3006CF582E93400F583E0C0E0E8246BF582CF
:1058F300E93400F583D0E0F00CEA246FF582EB3451
:1059030000F583E0F8ECC39840CAEA246EF582EB15
:105913003400F58374FFF0EA246AF582EB3400F572
:1059230083E4F0EDA2E092AF0255D8C082C083E5D4
:10593300A8F8C2AFEA246BF582EB3400F583E9F0F3
:10594300EA246AF582EB3400F583E4F0E8A2E792F7
:10595300AF024ABC74F31220DDEAFEEBFFECFAED72
:10596300FB8A828B83A3A3A3A3E0541FF0EE243608
:10597300F582EF3400F583E4F0F50AEEFCEFFD8ADF
:10598300828B83E0C0E0EC245DF582ED3400F58387
:10599300D0E0F0750B00E50A33333354F8F50C8A85
:1059A300828B83E0F508750900E50B780812205413
:1059B300E508A2E0502FEE2436F8EF3400F9888290
:1059C3008983E0F508EE2508F508EF3400F509E5CD
:1059D300082438F582E5093400F583E50CF0888264
:1059E3008983E004F0050B050CE50BC3940840AF75
:1059F300050A8A828B83A3AA82AB838C828D83A3BD
:105A0300AC82AD83E50AC3940550030259827F0536
:105A13000221AF74F71220DD9003EEE064017007FA
:105A23007A007B00025B8D7E009003F4E070F174DA
:105A330001F0A3E4F0A3F090045404F0900457E4BD
:105A4300F0A3F090045A04F09003F7E4F0A3F0A35A
:105A5300F0A3F090040104F0900427E4F090859003
:105A6300121F7490040A121F8090040EE4F0A3F036
:105A7300A3F0900472F0900466F090045B7480F0DD
:105A8300A3E4F0900461F0900459F09004DDF0A3D6
:105A9300F0A3F0A3F0A3F0A3F0A3F0A3F09004E627
:105AA300F0900475F09004C5F0A3F0908590121F58
:105AB300749004C7121F80908590121F749004CBBA
:105AC300121F809004D1E4F09004D3F09004CFF03F
:105AD3009004E9F0A3F0A3F0A3F0A3F0A3F0A3F0E4
:105AE300A3F078EE7903E8246FF582E93400F583B7
:105AF30074FFF00E88828983A3A882A983EEC394DE
:105B03000440E37AEE7B0378FD790488828983E09D
:105B1300C0E0EA2461F582EB3400F583D0E0F0883D
:105B2300828983A3A882A9838A828B83A3AA82AB57
